{
	"contracts/TelegramRedPacket.sol": {
		"TelegramRedPacket": {
			"abi": [
				{
					"anonymous": false,
					"inputs": [
						{
							"indexed": true,
							"internalType": "bytes32",
							"name": "packetId",
							"type": "bytes32"
						},
						{
							"indexed": true,
							"internalType": "address",
							"name": "claimer",
							"type": "address"
						},
						{
							"indexed": false,
							"internalType": "uint256",
							"name": "amount",
							"type": "uint256"
						}
					],
					"name": "Claimed",
					"type": "event"
				},
				{
					"anonymous": false,
					"inputs": [
						{
							"indexed": true,
							"internalType": "bytes32",
							"name": "packetId",
							"type": "bytes32"
						},
						{
							"indexed": true,
							"internalType": "address",
							"name": "creator",
							"type": "address"
						},
						{
							"indexed": false,
							"internalType": "uint256",
							"name": "total",
							"type": "uint256"
						},
						{
							"indexed": false,
							"internalType": "uint32",
							"name": "count",
							"type": "uint32"
						},
						{
							"indexed": false,
							"internalType": "uint64",
							"name": "expiresAt",
							"type": "uint64"
						}
					],
					"name": "PacketCreated",
					"type": "event"
				},
				{
					"anonymous": false,
					"inputs": [
						{
							"indexed": true,
							"internalType": "bytes32",
							"name": "packetId",
							"type": "bytes32"
						},
						{
							"indexed": true,
							"internalType": "address",
							"name": "creator",
							"type": "address"
						},
						{
							"indexed": false,
							"internalType": "uint256",
							"name": "amount",
							"type": "uint256"
						}
					],
					"name": "Refunded",
					"type": "event"
				},
				{
					"inputs": [],
					"name": "MAX_EXPIRES_IN",
					"outputs": [
						{
							"internalType": "uint64",
							"name": "",
							"type": "uint64"
						}
					],
					"stateMutability": "view",
					"type": "function"
				},
				{
					"inputs": [],
					"name": "MAX_PACKET_COUNT",
					"outputs": [
						{
							"internalType": "uint32",
							"name": "",
							"type": "uint32"
						}
					],
					"stateMutability": "view",
					"type": "function"
				},
				{
					"inputs": [
						{
							"internalType": "bytes32",
							"name": "packetId",
							"type": "bytes32"
						}
					],
					"name": "claim",
					"outputs": [],
					"stateMutability": "nonpayable",
					"type": "function"
				},
				{
					"inputs": [
						{
							"internalType": "bytes32",
							"name": "packetId",
							"type": "bytes32"
						},
						{
							"internalType": "uint32",
							"name": "count",
							"type": "uint32"
						},
						{
							"internalType": "uint64",
							"name": "expiresAt",
							"type": "uint64"
						}
					],
					"name": "createPacket",
					"outputs": [],
					"stateMutability": "payable",
					"type": "function"
				},
				{
					"inputs": [
						{
							"internalType": "bytes32",
							"name": "packetId",
							"type": "bytes32"
						}
					],
					"name": "getPacket",
					"outputs": [
						{
							"internalType": "address",
							"name": "creator",
							"type": "address"
						},
						{
							"internalType": "uint256",
							"name": "total",
							"type": "uint256"
						},
						{
							"internalType": "uint256",
							"name": "amountPerClaim",
							"type": "uint256"
						},
						{
							"internalType": "uint32",
							"name": "totalCount",
							"type": "uint32"
						},
						{
							"internalType": "uint32",
							"name": "claimedCount",
							"type": "uint32"
						},
						{
							"internalType": "uint64",
							"name": "expiresAt",
							"type": "uint64"
						},
						{
							"internalType": "bool",
							"name": "refunded",
							"type": "bool"
						},
						{
							"internalType": "bool",
							"name": "ended",
							"type": "bool"
						}
					],
					"stateMutability": "view",
					"type": "function"
				},
				{
					"inputs": [
						{
							"internalType": "bytes32",
							"name": "packetId",
							"type": "bytes32"
						},
						{
							"internalType": "address",
							"name": "claimer",
							"type": "address"
						}
					],
					"name": "hasClaimed",
					"outputs": [
						{
							"internalType": "bool",
							"name": "",
							"type": "bool"
						}
					],
					"stateMutability": "view",
					"type": "function"
				},
				{
					"inputs": [
						{
							"internalType": "bytes32",
							"name": "packetId",
							"type": "bytes32"
						}
					],
					"name": "refund",
					"outputs": [],
					"stateMutability": "nonpayable",
					"type": "function"
				}
			],
			"devdoc": {
				"kind": "dev",
				"methods": {},
				"version": 1
			},
			"evm": {
				"assembly": "    /* \"contracts/TelegramRedPacket.sol\":61:3870  contract TelegramRedPacket {... */\n  mstore(0x40, 0x80)\n  callvalue\n  dup1\n  iszero\n  tag_1\n  jumpi\n  revert(0x00, 0x00)\ntag_1:\n  pop\n  dataSize(sub_0)\n  dup1\n  dataOffset(sub_0)\n  0x00\n  codecopy\n  0x00\n  return\nstop\n\nsub_0: assembly {\n        /* \"contracts/TelegramRedPacket.sol\":61:3870  contract TelegramRedPacket {... */\n      mstore(0x40, 0x80)\n      jumpi(tag_1, lt(calldatasize, 0x04))\n      shr(0xe0, calldataload(0x00))\n      dup1\n      0x90924027\n      gt\n      tag_9\n      jumpi\n      dup1\n      0x90924027\n      eq\n      tag_5\n      jumpi\n      dup1\n      0x92a42d1d\n      eq\n      tag_6\n      jumpi\n      dup1\n      0xbd66528a\n      eq\n      tag_7\n      jumpi\n      dup1\n      0xdf567dd7\n      eq\n      tag_8\n      jumpi\n      jump(tag_1)\n    tag_9:\n      dup1\n      0x0b524856\n      eq\n      tag_2\n      jumpi\n      dup1\n      0x7249fbb6\n      eq\n      tag_3\n      jumpi\n      dup1\n      0x7bd76aa2\n      eq\n      tag_4\n      jumpi\n    tag_1:\n      revert(0x00, 0x00)\n        /* \"contracts/TelegramRedPacket.sol\":2947:3715  function getPacket(bytes32 packetId)... */\n    tag_2:\n      callvalue\n      dup1\n      iszero\n      tag_10\n      jumpi\n      revert(0x00, 0x00)\n    tag_10:\n      pop\n      tag_11\n      0x04\n      dup1\n      calldatasize\n      sub\n      dup2\n      add\n      swap1\n      tag_12\n      swap2\n      swap1\n      tag_13\n      jump\t// in\n    tag_12:\n      tag_14\n      jump\t// in\n    tag_11:\n      mload(0x40)\n      tag_15\n      swap9\n      swap8\n      swap7\n      swap6\n      swap5\n      swap4\n      swap3\n      swap2\n      swap1\n      tag_16\n      jump\t// in\n    tag_15:\n      mload(0x40)\n      dup1\n      swap2\n      sub\n      swap1\n      return\n        /* \"contracts/TelegramRedPacket.sol\":2305:2939  function refund(bytes32 packetId) external {... */\n    tag_3:\n      callvalue\n      dup1\n      iszero\n      tag_17\n      jumpi\n      revert(0x00, 0x00)\n    tag_17:\n      pop\n      tag_18\n      0x04\n      dup1\n      calldatasize\n      sub\n      dup2\n      add\n      swap1\n      tag_19\n      swap2\n      swap1\n      tag_13\n      jump\t// in\n    tag_19:\n      tag_20\n      jump\t// in\n    tag_18:\n      stop\n        /* \"contracts/TelegramRedPacket.sol\":820:1654  function createPacket(bytes32 packetId, uint32 count, uint64 expiresAt) external payable {... */\n    tag_4:\n      tag_21\n      0x04\n      dup1\n      calldatasize\n      sub\n      dup2\n      add\n      swap1\n      tag_22\n      swap2\n      swap1\n      tag_23\n      jump\t// in\n    tag_22:\n      tag_24\n      jump\t// in\n    tag_21:\n      stop\n        /* \"contracts/TelegramRedPacket.sol\":147:194  uint64 public constant MAX_EXPIRES_IN = 30 days */\n    tag_5:\n      callvalue\n      dup1\n      iszero\n      tag_25\n      jumpi\n      revert(0x00, 0x00)\n    tag_25:\n      pop\n      tag_26\n      tag_27\n      jump\t// in\n    tag_26:\n      mload(0x40)\n      tag_28\n      swap2\n      swap1\n      tag_29\n      jump\t// in\n    tag_28:\n      mload(0x40)\n      dup1\n      swap2\n      sub\n      swap1\n      return\n        /* \"contracts/TelegramRedPacket.sol\":3723:3867  function hasClaimed(bytes32 packetId, address claimer) external view returns (bool) {... */\n    tag_6:\n      callvalue\n      dup1\n      iszero\n      tag_30\n      jumpi\n      revert(0x00, 0x00)\n    tag_30:\n      pop\n      tag_31\n      0x04\n      dup1\n      calldatasize\n      sub\n      dup2\n      add\n      swap1\n      tag_32\n      swap2\n      swap1\n      tag_33\n      jump\t// in\n    tag_32:\n      tag_34\n      jump\t// in\n    tag_31:\n      mload(0x40)\n      tag_35\n      swap2\n      swap1\n      tag_36\n      jump\t// in\n    tag_35:\n      mload(0x40)\n      dup1\n      swap2\n      sub\n      swap1\n      return\n        /* \"contracts/TelegramRedPacket.sol\":1662:2297  function claim(bytes32 packetId) external {... */\n    tag_7:\n      callvalue\n      dup1\n      iszero\n      tag_37\n      jumpi\n      revert(0x00, 0x00)\n    tag_37:\n      pop\n      tag_38\n      0x04\n      dup1\n      calldatasize\n      sub\n      dup2\n      add\n      swap1\n      tag_39\n      swap2\n      swap1\n      tag_13\n      jump\t// in\n    tag_39:\n      tag_40\n      jump\t// in\n    tag_38:\n      stop\n        /* \"contracts/TelegramRedPacket.sol\":95:140  uint32 public constant MAX_PACKET_COUNT = 500 */\n    tag_8:\n      callvalue\n      dup1\n      iszero\n      tag_41\n      jumpi\n      revert(0x00, 0x00)\n    tag_41:\n      pop\n      tag_42\n      tag_43\n      jump\t// in\n    tag_42:\n      mload(0x40)\n      tag_44\n      swap2\n      swap1\n      tag_45\n      jump\t// in\n    tag_44:\n      mload(0x40)\n      dup1\n      swap2\n      sub\n      swap1\n      return\n        /* \"contracts/TelegramRedPacket.sol\":2947:3715  function getPacket(bytes32 packetId)... */\n    tag_14:\n        /* \"contracts/TelegramRedPacket.sol\":3048:3063  address creator */\n      0x00\n        /* \"contracts/TelegramRedPacket.sol\":3078:3091  uint256 total */\n      0x00\n        /* \"contracts/TelegramRedPacket.sol\":3106:3128  uint256 amountPerClaim */\n      0x00\n        /* \"contracts/TelegramRedPacket.sol\":3143:3160  uint32 totalCount */\n      0x00\n        /* \"contracts/TelegramRedPacket.sol\":3175:3194  uint32 claimedCount */\n      0x00\n        /* \"contracts/TelegramRedPacket.sol\":3209:3225  uint64 expiresAt */\n      0x00\n        /* \"contracts/TelegramRedPacket.sol\":3240:3253  bool refunded */\n      0x00\n        /* \"contracts/TelegramRedPacket.sol\":3268:3278  bool ended */\n      0x00\n        /* \"contracts/TelegramRedPacket.sol\":3306:3322  Packet storage p */\n      0x00\n        /* \"contracts/TelegramRedPacket.sol\":3325:3332  packets */\n      0x00\n        /* \"contracts/TelegramRedPacket.sol\":3325:3342  packets[packetId] */\n      0x00\n        /* \"contracts/TelegramRedPacket.sol\":3333:3341  packetId */\n      dup12\n        /* \"contracts/TelegramRedPacket.sol\":3325:3342  packets[packetId] */\n      dup2\n      mstore\n      0x20\n      add\n      swap1\n      dup2\n      mstore\n      0x20\n      add\n      0x00\n      keccak256\n        /* \"contracts/TelegramRedPacket.sol\":3306:3342  Packet storage p = packets[packetId] */\n      swap1\n      pop\n        /* \"contracts/TelegramRedPacket.sol\":3363:3364  p */\n      dup1\n        /* \"contracts/TelegramRedPacket.sol\":3363:3372  p.creator */\n      0x00\n      add\n      0x00\n      swap1\n      sload\n      swap1\n      0x0100\n      exp\n      swap1\n      div\n      0xffffffffffffffffffffffffffffffffffffffff\n      and\n        /* \"contracts/TelegramRedPacket.sol\":3353:3372  creator = p.creator */\n      swap9\n      pop\n        /* \"contracts/TelegramRedPacket.sol\":3391:3392  p */\n      dup1\n        /* \"contracts/TelegramRedPacket.sol\":3391:3398  p.total */\n      0x01\n      add\n      sload\n        /* \"contracts/TelegramRedPacket.sol\":3383:3398  total = p.total */\n      swap8\n      pop\n        /* \"contracts/TelegramRedPacket.sol\":3426:3427  p */\n      dup1\n        /* \"contracts/TelegramRedPacket.sol\":3426:3442  p.amountPerClaim */\n      0x02\n      add\n      sload\n        /* \"contracts/TelegramRedPacket.sol\":3409:3442  amountPerClaim = p.amountPerClaim */\n      swap7\n      pop\n        /* \"contracts/TelegramRedPacket.sol\":3466:3467  p */\n      dup1\n        /* \"contracts/TelegramRedPacket.sol\":3466:3478  p.totalCount */\n      0x03\n      add\n      0x00\n      swap1\n      sload\n      swap1\n      0x0100\n      exp\n      swap1\n      div\n      0xffffffff\n      and\n        /* \"contracts/TelegramRedPacket.sol\":3453:3478  totalCount = p.totalCount */\n      swap6\n      pop\n        /* \"contracts/TelegramRedPacket.sol\":3504:3505  p */\n      dup1\n        /* \"contracts/TelegramRedPacket.sol\":3504:3518  p.claimedCount */\n      0x03\n      add\n      0x04\n      swap1\n      sload\n      swap1\n      0x0100\n      exp\n      swap1\n      div\n      0xffffffff\n      and\n        /* \"contracts/TelegramRedPacket.sol\":3489:3518  claimedCount = p.claimedCount */\n      swap5\n      pop\n        /* \"contracts/TelegramRedPacket.sol\":3541:3542  p */\n      dup1\n        /* \"contracts/TelegramRedPacket.sol\":3541:3552  p.expiresAt */\n      0x03\n      add\n      0x08\n      swap1\n      sload\n      swap1\n      0x0100\n      exp\n      swap1\n      div\n      0xffffffffffffffff\n      and\n        /* \"contracts/TelegramRedPacket.sol\":3529:3552  expiresAt = p.expiresAt */\n      swap4\n      pop\n        /* \"contracts/TelegramRedPacket.sol\":3574:3575  p */\n      dup1\n        /* \"contracts/TelegramRedPacket.sol\":3574:3584  p.refunded */\n      0x03\n      add\n      0x10\n      swap1\n      sload\n      swap1\n      0x0100\n      exp\n      swap1\n      div\n      0xff\n      and\n        /* \"contracts/TelegramRedPacket.sol\":3563:3584  refunded = p.refunded */\n      swap3\n      pop\n        /* \"contracts/TelegramRedPacket.sol\":3624:3625  0 */\n      0x00\n        /* \"contracts/TelegramRedPacket.sol\":3603:3626  p.creator == address(0) */\n      0xffffffffffffffffffffffffffffffffffffffff\n      and\n        /* \"contracts/TelegramRedPacket.sol\":3603:3604  p */\n      dup2\n        /* \"contracts/TelegramRedPacket.sol\":3603:3612  p.creator */\n      0x00\n      add\n      0x00\n      swap1\n      sload\n      swap1\n      0x0100\n      exp\n      swap1\n      div\n      0xffffffffffffffffffffffffffffffffffffffff\n      and\n        /* \"contracts/TelegramRedPacket.sol\":3603:3626  p.creator == address(0) */\n      0xffffffffffffffffffffffffffffffffffffffff\n      and\n      eq\n        /* \"contracts/TelegramRedPacket.sol\":3603:3640  p.creator == address(0) || p.refunded */\n      dup1\n      tag_47\n      jumpi\n      pop\n        /* \"contracts/TelegramRedPacket.sol\":3630:3631  p */\n      dup1\n        /* \"contracts/TelegramRedPacket.sol\":3630:3640  p.refunded */\n      0x03\n      add\n      0x10\n      swap1\n      sload\n      swap1\n      0x0100\n      exp\n      swap1\n      div\n      0xff\n      and\n        /* \"contracts/TelegramRedPacket.sol\":3603:3640  p.creator == address(0) || p.refunded */\n    tag_47:\n        /* \"contracts/TelegramRedPacket.sol\":3603:3674  p.creator == address(0) || p.refunded || p.claimedCount == p.totalCount */\n      dup1\n      tag_48\n      jumpi\n      pop\n        /* \"contracts/TelegramRedPacket.sol\":3662:3663  p */\n      dup1\n        /* \"contracts/TelegramRedPacket.sol\":3662:3674  p.totalCount */\n      0x03\n      add\n      0x00\n      swap1\n      sload\n      swap1\n      0x0100\n      exp\n      swap1\n      div\n      0xffffffff\n      and\n        /* \"contracts/TelegramRedPacket.sol\":3644:3674  p.claimedCount == p.totalCount */\n      0xffffffff\n      and\n        /* \"contracts/TelegramRedPacket.sol\":3644:3645  p */\n      dup2\n        /* \"contracts/TelegramRedPacket.sol\":3644:3658  p.claimedCount */\n      0x03\n      add\n      0x04\n      swap1\n      sload\n      swap1\n      0x0100\n      exp\n      swap1\n      div\n      0xffffffff\n      and\n        /* \"contracts/TelegramRedPacket.sol\":3644:3674  p.claimedCount == p.totalCount */\n      0xffffffff\n      and\n      eq\n        /* \"contracts/TelegramRedPacket.sol\":3603:3674  p.creator == address(0) || p.refunded || p.claimedCount == p.totalCount */\n    tag_48:\n        /* \"contracts/TelegramRedPacket.sol\":3603:3707  p.creator == address(0) || p.refunded || p.claimedCount == p.totalCount || block.timestamp > p.expiresAt */\n      dup1\n      tag_49\n      jumpi\n      pop\n        /* \"contracts/TelegramRedPacket.sol\":3696:3697  p */\n      dup1\n        /* \"contracts/TelegramRedPacket.sol\":3696:3707  p.expiresAt */\n      0x03\n      add\n      0x08\n      swap1\n      sload\n      swap1\n      0x0100\n      exp\n      swap1\n      div\n      0xffffffffffffffff\n      and\n        /* \"contracts/TelegramRedPacket.sol\":3678:3707  block.timestamp > p.expiresAt */\n      0xffffffffffffffff\n      and\n        /* \"contracts/TelegramRedPacket.sol\":3678:3693  block.timestamp */\n      timestamp\n        /* \"contracts/TelegramRedPacket.sol\":3678:3707  block.timestamp > p.expiresAt */\n      gt\n        /* \"contracts/TelegramRedPacket.sol\":3603:3707  p.creator == address(0) || p.refunded || p.claimedCount == p.totalCount || block.timestamp > p.expiresAt */\n    tag_49:\n        /* \"contracts/TelegramRedPacket.sol\":3595:3707  ended = p.creator == address(0) || p.refunded || p.claimedCount == p.totalCount || block.timestamp > p.expiresAt */\n      swap2\n      pop\n        /* \"contracts/TelegramRedPacket.sol\":3295:3715  {... */\n      pop\n        /* \"contracts/TelegramRedPacket.sol\":2947:3715  function getPacket(bytes32 packetId)... */\n      swap2\n      swap4\n      swap6\n      swap8\n      pop\n      swap2\n      swap4\n      swap6\n      swap8\n      jump\t// out\n        /* \"contracts/TelegramRedPacket.sol\":2305:2939  function refund(bytes32 packetId) external {... */\n    tag_20:\n        /* \"contracts/TelegramRedPacket.sol\":2359:2375  Packet storage p */\n      0x00\n        /* \"contracts/TelegramRedPacket.sol\":2378:2385  packets */\n      0x00\n        /* \"contracts/TelegramRedPacket.sol\":2378:2395  packets[packetId] */\n      0x00\n        /* \"contracts/TelegramRedPacket.sol\":2386:2394  packetId */\n      dup4\n        /* \"contracts/TelegramRedPacket.sol\":2378:2395  packets[packetId] */\n      dup2\n      mstore\n      0x20\n      add\n      swap1\n      dup2\n      mstore\n      0x20\n      add\n      0x00\n      keccak256\n        /* \"contracts/TelegramRedPacket.sol\":2359:2395  Packet storage p = packets[packetId] */\n      swap1\n      pop\n        /* \"contracts/TelegramRedPacket.sol\":2427:2437  msg.sender */\n      caller\n        /* \"contracts/TelegramRedPacket.sol\":2414:2437  p.creator == msg.sender */\n      0xffffffffffffffffffffffffffffffffffffffff\n      and\n        /* \"contracts/TelegramRedPacket.sol\":2414:2415  p */\n      dup2\n        /* \"contracts/TelegramRedPacket.sol\":2414:2423  p.creator */\n      0x00\n      add\n      0x00\n      swap1\n      sload\n      swap1\n      0x0100\n      exp\n      swap1\n      div\n      0xffffffffffffffffffffffffffffffffffffffff\n      and\n        /* \"contracts/TelegramRedPacket.sol\":2414:2437  p.creator == msg.sender */\n      0xffffffffffffffffffffffffffffffffffffffff\n      and\n      eq\n        /* \"contracts/TelegramRedPacket.sol\":2406:2453  require(p.creator == msg.sender, \"not creator\") */\n      tag_51\n      jumpi\n      mload(0x40)\n      0x08c379a000000000000000000000000000000000000000000000000000000000\n      dup2\n      mstore\n      0x04\n      add\n      tag_52\n      swap1\n      tag_53\n      jump\t// in\n    tag_52:\n      mload(0x40)\n      dup1\n      swap2\n      sub\n      swap1\n      revert\n    tag_51:\n        /* \"contracts/TelegramRedPacket.sol\":2473:2474  p */\n      dup1\n        /* \"contracts/TelegramRedPacket.sol\":2473:2483  p.refunded */\n      0x03\n      add\n      0x10\n      swap1\n      sload\n      swap1\n      0x0100\n      exp\n      swap1\n      div\n      0xff\n      and\n        /* \"contracts/TelegramRedPacket.sol\":2472:2483  !p.refunded */\n      iszero\n        /* \"contracts/TelegramRedPacket.sol\":2464:2495  require(!p.refunded, \"already\") */\n      tag_54\n      jumpi\n      mload(0x40)\n      0x08c379a000000000000000000000000000000000000000000000000000000000\n      dup2\n      mstore\n      0x04\n      add\n      tag_55\n      swap1\n      tag_56\n      jump\t// in\n    tag_55:\n      mload(0x40)\n      dup1\n      swap2\n      sub\n      swap1\n      revert\n    tag_54:\n        /* \"contracts/TelegramRedPacket.sol\":2532:2533  p */\n      dup1\n        /* \"contracts/TelegramRedPacket.sol\":2532:2543  p.expiresAt */\n      0x03\n      add\n      0x08\n      swap1\n      sload\n      swap1\n      0x0100\n      exp\n      swap1\n      div\n      0xffffffffffffffff\n      and\n        /* \"contracts/TelegramRedPacket.sol\":2514:2543  block.timestamp > p.expiresAt */\n      0xffffffffffffffff\n      and\n        /* \"contracts/TelegramRedPacket.sol\":2514:2529  block.timestamp */\n      timestamp\n        /* \"contracts/TelegramRedPacket.sol\":2514:2543  block.timestamp > p.expiresAt */\n      gt\n        /* \"contracts/TelegramRedPacket.sol\":2514:2577  block.timestamp > p.expiresAt || p.claimedCount == p.totalCount */\n      dup1\n      tag_57\n      jumpi\n      pop\n        /* \"contracts/TelegramRedPacket.sol\":2565:2566  p */\n      dup1\n        /* \"contracts/TelegramRedPacket.sol\":2565:2577  p.totalCount */\n      0x03\n      add\n      0x00\n      swap1\n      sload\n      swap1\n      0x0100\n      exp\n      swap1\n      div\n      0xffffffff\n      and\n        /* \"contracts/TelegramRedPacket.sol\":2547:2577  p.claimedCount == p.totalCount */\n      0xffffffff\n      and\n        /* \"contracts/TelegramRedPacket.sol\":2547:2548  p */\n      dup2\n        /* \"contracts/TelegramRedPacket.sol\":2547:2561  p.claimedCount */\n      0x03\n      add\n      0x04\n      swap1\n      sload\n      swap1\n      0x0100\n      exp\n      swap1\n      div\n      0xffffffff\n      and\n        /* \"contracts/TelegramRedPacket.sol\":2547:2577  p.claimedCount == p.totalCount */\n      0xffffffff\n      and\n      eq\n        /* \"contracts/TelegramRedPacket.sol\":2514:2577  block.timestamp > p.expiresAt || p.claimedCount == p.totalCount */\n    tag_57:\n        /* \"contracts/TelegramRedPacket.sol\":2506:2589  require(block.timestamp > p.expiresAt || p.claimedCount == p.totalCount, \"not end\") */\n      tag_58\n      jumpi\n      mload(0x40)\n      0x08c379a000000000000000000000000000000000000000000000000000000000\n      dup2\n      mstore\n      0x04\n      add\n      tag_59\n      swap1\n      tag_60\n      jump\t// in\n    tag_59:\n      mload(0x40)\n      dup1\n      swap2\n      sub\n      swap1\n      revert\n    tag_58:\n        /* \"contracts/TelegramRedPacket.sol\":2615:2619  true */\n      0x01\n        /* \"contracts/TelegramRedPacket.sol\":2602:2603  p */\n      dup2\n        /* \"contracts/TelegramRedPacket.sol\":2602:2612  p.refunded */\n      0x03\n      add\n      0x10\n        /* \"contracts/TelegramRedPacket.sol\":2602:2619  p.refunded = true */\n      0x0100\n      exp\n      dup2\n      sload\n      dup2\n      0xff\n      mul\n      not\n      and\n      swap1\n      dup4\n      iszero\n      iszero\n      mul\n      or\n      swap1\n      sstore\n      pop\n        /* \"contracts/TelegramRedPacket.sol\":2630:2647  uint256 remaining */\n      0x00\n        /* \"contracts/TelegramRedPacket.sol\":2685:2686  p */\n      dup2\n        /* \"contracts/TelegramRedPacket.sol\":2685:2699  p.claimedCount */\n      0x03\n      add\n      0x04\n      swap1\n      sload\n      swap1\n      0x0100\n      exp\n      swap1\n      div\n      0xffffffff\n      and\n        /* \"contracts/TelegramRedPacket.sol\":2670:2671  p */\n      dup3\n        /* \"contracts/TelegramRedPacket.sol\":2670:2682  p.totalCount */\n      0x03\n      add\n      0x00\n      swap1\n      sload\n      swap1\n      0x0100\n      exp\n      swap1\n      div\n      0xffffffff\n      and\n        /* \"contracts/TelegramRedPacket.sol\":2670:2699  p.totalCount - p.claimedCount */\n      tag_61\n      swap2\n      swap1\n      tag_62\n      jump\t// in\n    tag_61:\n        /* \"contracts/TelegramRedPacket.sol\":2650:2700  p.amountPerClaim * (p.totalCount - p.claimedCount) */\n      0xffffffff\n      and\n        /* \"contracts/TelegramRedPacket.sol\":2650:2651  p */\n      dup3\n        /* \"contracts/TelegramRedPacket.sol\":2650:2666  p.amountPerClaim */\n      0x02\n      add\n      sload\n        /* \"contracts/TelegramRedPacket.sol\":2650:2700  p.amountPerClaim * (p.totalCount - p.claimedCount) */\n      tag_63\n      swap2\n      swap1\n      tag_64\n      jump\t// in\n    tag_63:\n        /* \"contracts/TelegramRedPacket.sol\":2630:2700  uint256 remaining = p.amountPerClaim * (p.totalCount - p.claimedCount) */\n      swap1\n      pop\n        /* \"contracts/TelegramRedPacket.sol\":2727:2728  0 */\n      0x00\n        /* \"contracts/TelegramRedPacket.sol\":2715:2724  remaining */\n      dup2\n        /* \"contracts/TelegramRedPacket.sol\":2715:2728  remaining > 0 */\n      gt\n        /* \"contracts/TelegramRedPacket.sol\":2711:2873  if (remaining > 0) {... */\n      iszero\n      tag_65\n      jumpi\n        /* \"contracts/TelegramRedPacket.sol\":2746:2755  bool sent */\n      0x00\n        /* \"contracts/TelegramRedPacket.sol\":2769:2779  msg.sender */\n      caller\n        /* \"contracts/TelegramRedPacket.sol\":2761:2785  payable(msg.sender).call */\n      0xffffffffffffffffffffffffffffffffffffffff\n      and\n        /* \"contracts/TelegramRedPacket.sol\":2793:2802  remaining */\n      dup3\n        /* \"contracts/TelegramRedPacket.sol\":2761:2807  payable(msg.sender).call{value: remaining}(\"\") */\n      mload(0x40)\n      tag_66\n      swap1\n      tag_67\n      jump\t// in\n    tag_66:\n      0x00\n      mload(0x40)\n      dup1\n      dup4\n      sub\n      dup2\n      dup6\n      dup8\n      gas\n      call\n      swap3\n      pop\n      pop\n      pop\n      returndatasize\n      dup1\n      0x00\n      dup2\n      eq\n      tag_70\n      jumpi\n      mload(0x40)\n      swap2\n      pop\n      and(add(returndatasize, 0x3f), not(0x1f))\n      dup3\n      add\n      0x40\n      mstore\n      returndatasize\n      dup3\n      mstore\n      returndatasize\n      0x00\n      0x20\n      dup5\n      add\n      returndatacopy\n      jump(tag_69)\n    tag_70:\n      0x60\n      swap2\n      pop\n    tag_69:\n      pop\n        /* \"contracts/TelegramRedPacket.sol\":2745:2807  (bool sent, ) = payable(msg.sender).call{value: remaining}(\"\") */\n      pop\n      swap1\n      pop\n        /* \"contracts/TelegramRedPacket.sol\":2830:2834  sent */\n      dup1\n        /* \"contracts/TelegramRedPacket.sol\":2822:2861  require(sent, \"refund transfer failed\") */\n      tag_71\n      jumpi\n      mload(0x40)\n      0x08c379a000000000000000000000000000000000000000000000000000000000\n      dup2\n      mstore\n      0x04\n      add\n      tag_72\n      swap1\n      tag_73\n      jump\t// in\n    tag_72:\n      mload(0x40)\n      dup1\n      swap2\n      sub\n      swap1\n      revert\n    tag_71:\n        /* \"contracts/TelegramRedPacket.sol\":2730:2873  {... */\n      pop\n        /* \"contracts/TelegramRedPacket.sol\":2711:2873  if (remaining > 0) {... */\n    tag_65:\n        /* \"contracts/TelegramRedPacket.sol\":2909:2919  msg.sender */\n      caller\n        /* \"contracts/TelegramRedPacket.sol\":2890:2931  Refunded(packetId, msg.sender, remaining) */\n      0xffffffffffffffffffffffffffffffffffffffff\n      and\n        /* \"contracts/TelegramRedPacket.sol\":2899:2907  packetId */\n      dup4\n        /* \"contracts/TelegramRedPacket.sol\":2890:2931  Refunded(packetId, msg.sender, remaining) */\n      0xf552ca82e113ac3c539c3d617f29fcd19c172a0c75dad017555c9e109f7fe183\n        /* \"contracts/TelegramRedPacket.sol\":2921:2930  remaining */\n      dup4\n        /* \"contracts/TelegramRedPacket.sol\":2890:2931  Refunded(packetId, msg.sender, remaining) */\n      mload(0x40)\n      tag_74\n      swap2\n      swap1\n      tag_75\n      jump\t// in\n    tag_74:\n      mload(0x40)\n      dup1\n      swap2\n      sub\n      swap1\n      log3\n        /* \"contracts/TelegramRedPacket.sol\":2348:2939  {... */\n      pop\n      pop\n        /* \"contracts/TelegramRedPacket.sol\":2305:2939  function refund(bytes32 packetId) external {... */\n      pop\n      jump\t// out\n        /* \"contracts/TelegramRedPacket.sol\":820:1654  function createPacket(bytes32 packetId, uint32 count, uint64 expiresAt) external payable {... */\n    tag_24:\n        /* \"contracts/TelegramRedPacket.sol\":948:949  0 */\n      0x00\n        /* \"contracts/TelegramRedPacket.sol\":940:950  bytes32(0) */\n      0x00\n      shl\n        /* \"contracts/TelegramRedPacket.sol\":928:936  packetId */\n      dup4\n        /* \"contracts/TelegramRedPacket.sol\":928:950  packetId != bytes32(0) */\n      sub\n        /* \"contracts/TelegramRedPacket.sol\":920:965  require(packetId != bytes32(0), \"packetId=0\") */\n      tag_77\n      jumpi\n      mload(0x40)\n      0x08c379a000000000000000000000000000000000000000000000000000000000\n      dup2\n      mstore\n      0x04\n      add\n      tag_78\n      swap1\n      tag_79\n      jump\t// in\n    tag_78:\n      mload(0x40)\n      dup1\n      swap2\n      sub\n      swap1\n      revert\n    tag_77:\n        /* \"contracts/TelegramRedPacket.sol\":992:993  0 */\n      0x00\n        /* \"contracts/TelegramRedPacket.sol\":984:989  count */\n      dup3\n        /* \"contracts/TelegramRedPacket.sol\":984:993  count > 0 */\n      0xffffffff\n      and\n      gt\n        /* \"contracts/TelegramRedPacket.sol\":984:1022  count > 0 && count <= MAX_PACKET_COUNT */\n      dup1\n      iszero\n      tag_80\n      jumpi\n      pop\n        /* \"contracts/TelegramRedPacket.sol\":137:140  500 */\n      0x01f4\n        /* \"contracts/TelegramRedPacket.sol\":997:1022  count <= MAX_PACKET_COUNT */\n      0xffffffff\n      and\n        /* \"contracts/TelegramRedPacket.sol\":997:1002  count */\n      dup3\n        /* \"contracts/TelegramRedPacket.sol\":997:1022  count <= MAX_PACKET_COUNT */\n      0xffffffff\n      and\n      gt\n      iszero\n        /* \"contracts/TelegramRedPacket.sol\":984:1022  count > 0 && count <= MAX_PACKET_COUNT */\n    tag_80:\n        /* \"contracts/TelegramRedPacket.sol\":976:1040  require(count > 0 && count <= MAX_PACKET_COUNT, \"invalid count\") */\n      tag_81\n      jumpi\n      mload(0x40)\n      0x08c379a000000000000000000000000000000000000000000000000000000000\n      dup2\n      mstore\n      0x04\n      add\n      tag_82\n      swap1\n      tag_83\n      jump\t// in\n    tag_82:\n      mload(0x40)\n      dup1\n      swap2\n      sub\n      swap1\n      revert\n    tag_81:\n        /* \"contracts/TelegramRedPacket.sol\":1071:1072  0 */\n      0x00\n        /* \"contracts/TelegramRedPacket.sol\":1059:1068  msg.value */\n      callvalue\n        /* \"contracts/TelegramRedPacket.sol\":1059:1072  msg.value > 0 */\n      gt\n        /* \"contracts/TelegramRedPacket.sol\":1051:1084  require(msg.value > 0, \"value=0\") */\n      tag_84\n      jumpi\n      mload(0x40)\n      0x08c379a000000000000000000000000000000000000000000000000000000000\n      dup2\n      mstore\n      0x04\n      add\n      tag_85\n      swap1\n      tag_86\n      jump\t// in\n    tag_85:\n      mload(0x40)\n      dup1\n      swap2\n      sub\n      swap1\n      revert\n    tag_84:\n        /* \"contracts/TelegramRedPacket.sol\":1115:1130  block.timestamp */\n      timestamp\n        /* \"contracts/TelegramRedPacket.sol\":1103:1112  expiresAt */\n      dup2\n        /* \"contracts/TelegramRedPacket.sol\":1103:1130  expiresAt > block.timestamp */\n      0xffffffffffffffff\n      and\n      gt\n        /* \"contracts/TelegramRedPacket.sol\":1095:1142  require(expiresAt > block.timestamp, \"expired\") */\n      tag_87\n      jumpi\n      mload(0x40)\n      0x08c379a000000000000000000000000000000000000000000000000000000000\n      dup2\n      mstore\n      0x04\n      add\n      tag_88\n      swap1\n      tag_89\n      jump\t// in\n    tag_88:\n      mload(0x40)\n      dup1\n      swap2\n      sub\n      swap1\n      revert\n    tag_87:\n        /* \"contracts/TelegramRedPacket.sol\":187:194  30 days */\n      0x278d00\n        /* \"contracts/TelegramRedPacket.sol\":1174:1206  block.timestamp + MAX_EXPIRES_IN */\n      0xffffffffffffffff\n      and\n        /* \"contracts/TelegramRedPacket.sol\":1174:1189  block.timestamp */\n      timestamp\n        /* \"contracts/TelegramRedPacket.sol\":1174:1206  block.timestamp + MAX_EXPIRES_IN */\n      tag_90\n      swap2\n      swap1\n      tag_91\n      jump\t// in\n    tag_90:\n        /* \"contracts/TelegramRedPacket.sol\":1161:1170  expiresAt */\n      dup2\n        /* \"contracts/TelegramRedPacket.sol\":1161:1206  expiresAt <= block.timestamp + MAX_EXPIRES_IN */\n      0xffffffffffffffff\n      and\n      gt\n      iszero\n        /* \"contracts/TelegramRedPacket.sol\":1153:1226  require(expiresAt <= block.timestamp + MAX_EXPIRES_IN, \"expires too far\") */\n      tag_92\n      jumpi\n      mload(0x40)\n      0x08c379a000000000000000000000000000000000000000000000000000000000\n      dup2\n      mstore\n      0x04\n      add\n      tag_93\n      swap1\n      tag_94\n      jump\t// in\n    tag_93:\n      mload(0x40)\n      dup1\n      swap2\n      sub\n      swap1\n      revert\n    tag_92:\n        /* \"contracts/TelegramRedPacket.sol\":1239:1255  Packet storage p */\n      0x00\n        /* \"contracts/TelegramRedPacket.sol\":1258:1265  packets */\n      0x00\n        /* \"contracts/TelegramRedPacket.sol\":1258:1275  packets[packetId] */\n      0x00\n        /* \"contracts/TelegramRedPacket.sol\":1266:1274  packetId */\n      dup6\n        /* \"contracts/TelegramRedPacket.sol\":1258:1275  packets[packetId] */\n      dup2\n      mstore\n      0x20\n      add\n      swap1\n      dup2\n      mstore\n      0x20\n      add\n      0x00\n      keccak256\n        /* \"contracts/TelegramRedPacket.sol\":1239:1275  Packet storage p = packets[packetId] */\n      swap1\n      pop\n        /* \"contracts/TelegramRedPacket.sol\":1315:1316  0 */\n      0x00\n        /* \"contracts/TelegramRedPacket.sol\":1294:1317  p.creator == address(0) */\n      0xffffffffffffffffffffffffffffffffffffffff\n      and\n        /* \"contracts/TelegramRedPacket.sol\":1294:1295  p */\n      dup2\n        /* \"contracts/TelegramRedPacket.sol\":1294:1303  p.creator */\n      0x00\n      add\n      0x00\n      swap1\n      sload\n      swap1\n      0x0100\n      exp\n      swap1\n      div\n      0xffffffffffffffffffffffffffffffffffffffff\n      and\n        /* \"contracts/TelegramRedPacket.sol\":1294:1317  p.creator == address(0) */\n      0xffffffffffffffffffffffffffffffffffffffff\n      and\n      eq\n        /* \"contracts/TelegramRedPacket.sol\":1286:1328  require(p.creator == address(0), \"exists\") */\n      tag_95\n      jumpi\n      mload(0x40)\n      0x08c379a000000000000000000000000000000000000000000000000000000000\n      dup2\n      mstore\n      0x04\n      add\n      tag_96\n      swap1\n      tag_97\n      jump\t// in\n    tag_96:\n      mload(0x40)\n      dup1\n      swap2\n      sub\n      swap1\n      revert\n    tag_95:\n        /* \"contracts/TelegramRedPacket.sol\":1368:1369  0 */\n      0x00\n        /* \"contracts/TelegramRedPacket.sol\":1359:1364  count */\n      dup4\n        /* \"contracts/TelegramRedPacket.sol\":1347:1364  msg.value % count */\n      0xffffffff\n      and\n        /* \"contracts/TelegramRedPacket.sol\":1347:1356  msg.value */\n      callvalue\n        /* \"contracts/TelegramRedPacket.sol\":1347:1364  msg.value % count */\n      tag_98\n      swap2\n      swap1\n      tag_99\n      jump\t// in\n    tag_98:\n        /* \"contracts/TelegramRedPacket.sol\":1347:1369  msg.value % count == 0 */\n      eq\n        /* \"contracts/TelegramRedPacket.sol\":1339:1387  require(msg.value % count == 0, \"not divisible\") */\n      tag_100\n      jumpi\n      mload(0x40)\n      0x08c379a000000000000000000000000000000000000000000000000000000000\n      dup2\n      mstore\n      0x04\n      add\n      tag_101\n      swap1\n      tag_102\n      jump\t// in\n    tag_101:\n      mload(0x40)\n      dup1\n      swap2\n      sub\n      swap1\n      revert\n    tag_100:\n        /* \"contracts/TelegramRedPacket.sol\":1412:1422  msg.sender */\n      caller\n        /* \"contracts/TelegramRedPacket.sol\":1400:1401  p */\n      dup2\n        /* \"contracts/TelegramRedPacket.sol\":1400:1409  p.creator */\n      0x00\n      add\n      0x00\n        /* \"contracts/TelegramRedPacket.sol\":1400:1422  p.creator = msg.sender */\n      0x0100\n      exp\n      dup2\n      sload\n      dup2\n      0xffffffffffffffffffffffffffffffffffffffff\n      mul\n      not\n      and\n      swap1\n      dup4\n      0xffffffffffffffffffffffffffffffffffffffff\n      and\n      mul\n      or\n      swap1\n      sstore\n      pop\n        /* \"contracts/TelegramRedPacket.sol\":1443:1452  msg.value */\n      callvalue\n        /* \"contracts/TelegramRedPacket.sol\":1433:1434  p */\n      dup2\n        /* \"contracts/TelegramRedPacket.sol\":1433:1440  p.total */\n      0x01\n      add\n        /* \"contracts/TelegramRedPacket.sol\":1433:1452  p.total = msg.value */\n      dup2\n      swap1\n      sstore\n      pop\n        /* \"contracts/TelegramRedPacket.sol\":1494:1499  count */\n      dup3\n        /* \"contracts/TelegramRedPacket.sol\":1482:1499  msg.value / count */\n      0xffffffff\n      and\n        /* \"contracts/TelegramRedPacket.sol\":1482:1491  msg.value */\n      callvalue\n        /* \"contracts/TelegramRedPacket.sol\":1482:1499  msg.value / count */\n      tag_103\n      swap2\n      swap1\n      tag_104\n      jump\t// in\n    tag_103:\n        /* \"contracts/TelegramRedPacket.sol\":1463:1464  p */\n      dup2\n        /* \"contracts/TelegramRedPacket.sol\":1463:1479  p.amountPerClaim */\n      0x02\n      add\n        /* \"contracts/TelegramRedPacket.sol\":1463:1499  p.amountPerClaim = msg.value / count */\n      dup2\n      swap1\n      sstore\n      pop\n        /* \"contracts/TelegramRedPacket.sol\":1525:1530  count */\n      dup3\n        /* \"contracts/TelegramRedPacket.sol\":1510:1511  p */\n      dup2\n        /* \"contracts/TelegramRedPacket.sol\":1510:1522  p.totalCount */\n      0x03\n      add\n      0x00\n        /* \"contracts/TelegramRedPacket.sol\":1510:1530  p.totalCount = count */\n      0x0100\n      exp\n      dup2\n      sload\n      dup2\n      0xffffffff\n      mul\n      not\n      and\n      swap1\n      dup4\n      0xffffffff\n      and\n      mul\n      or\n      swap1\n      sstore\n      pop\n        /* \"contracts/TelegramRedPacket.sol\":1555:1564  expiresAt */\n      dup2\n        /* \"contracts/TelegramRedPacket.sol\":1541:1542  p */\n      dup2\n        /* \"contracts/TelegramRedPacket.sol\":1541:1552  p.expiresAt */\n      0x03\n      add\n      0x08\n        /* \"contracts/TelegramRedPacket.sol\":1541:1564  p.expiresAt = expiresAt */\n      0x0100\n      exp\n      dup2\n      sload\n      dup2\n      0xffffffffffffffff\n      mul\n      not\n      and\n      swap1\n      dup4\n      0xffffffffffffffff\n      and\n      mul\n      or\n      swap1\n      sstore\n      pop\n        /* \"contracts/TelegramRedPacket.sol\":1606:1616  msg.sender */\n      caller\n        /* \"contracts/TelegramRedPacket.sol\":1582:1646  PacketCreated(packetId, msg.sender, msg.value, count, expiresAt) */\n      0xffffffffffffffffffffffffffffffffffffffff\n      and\n        /* \"contracts/TelegramRedPacket.sol\":1596:1604  packetId */\n      dup5\n        /* \"contracts/TelegramRedPacket.sol\":1582:1646  PacketCreated(packetId, msg.sender, msg.value, count, expiresAt) */\n      0x881d4506c5a3373a65c4b254ea24b8a916895f31b0aab5d224b83b656328fd3b\n        /* \"contracts/TelegramRedPacket.sol\":1618:1627  msg.value */\n      callvalue\n        /* \"contracts/TelegramRedPacket.sol\":1629:1634  count */\n      dup7\n        /* \"contracts/TelegramRedPacket.sol\":1636:1645  expiresAt */\n      dup7\n        /* \"contracts/TelegramRedPacket.sol\":1582:1646  PacketCreated(packetId, msg.sender, msg.value, count, expiresAt) */\n      mload(0x40)\n      tag_105\n      swap4\n      swap3\n      swap2\n      swap1\n      tag_106\n      jump\t// in\n    tag_105:\n      mload(0x40)\n      dup1\n      swap2\n      sub\n      swap1\n      log3\n        /* \"contracts/TelegramRedPacket.sol\":909:1654  {... */\n      pop\n        /* \"contracts/TelegramRedPacket.sol\":820:1654  function createPacket(bytes32 packetId, uint32 count, uint64 expiresAt) external payable {... */\n      pop\n      pop\n      pop\n      jump\t// out\n        /* \"contracts/TelegramRedPacket.sol\":147:194  uint64 public constant MAX_EXPIRES_IN = 30 days */\n    tag_27:\n        /* \"contracts/TelegramRedPacket.sol\":187:194  30 days */\n      0x278d00\n        /* \"contracts/TelegramRedPacket.sol\":147:194  uint64 public constant MAX_EXPIRES_IN = 30 days */\n      dup2\n      jump\t// out\n        /* \"contracts/TelegramRedPacket.sol\":3723:3867  function hasClaimed(bytes32 packetId, address claimer) external view returns (bool) {... */\n    tag_34:\n        /* \"contracts/TelegramRedPacket.sol\":3801:3805  bool */\n      0x00\n        /* \"contracts/TelegramRedPacket.sol\":3825:3832  packets */\n      0x00\n        /* \"contracts/TelegramRedPacket.sol\":3825:3842  packets[packetId] */\n      0x00\n        /* \"contracts/TelegramRedPacket.sol\":3833:3841  packetId */\n      dup5\n        /* \"contracts/TelegramRedPacket.sol\":3825:3842  packets[packetId] */\n      dup2\n      mstore\n      0x20\n      add\n      swap1\n      dup2\n      mstore\n      0x20\n      add\n      0x00\n      keccak256\n        /* \"contracts/TelegramRedPacket.sol\":3825:3850  packets[packetId].claimed */\n      0x04\n      add\n        /* \"contracts/TelegramRedPacket.sol\":3825:3859  packets[packetId].claimed[claimer] */\n      0x00\n        /* \"contracts/TelegramRedPacket.sol\":3851:3858  claimer */\n      dup4\n        /* \"contracts/TelegramRedPacket.sol\":3825:3859  packets[packetId].claimed[claimer] */\n      0xffffffffffffffffffffffffffffffffffffffff\n      and\n      0xffffffffffffffffffffffffffffffffffffffff\n      and\n      dup2\n      mstore\n      0x20\n      add\n      swap1\n      dup2\n      mstore\n      0x20\n      add\n      0x00\n      keccak256\n      0x00\n      swap1\n      sload\n      swap1\n      0x0100\n      exp\n      swap1\n      div\n      0xff\n      and\n        /* \"contracts/TelegramRedPacket.sol\":3818:3859  return packets[packetId].claimed[claimer] */\n      swap1\n      pop\n        /* \"contracts/TelegramRedPacket.sol\":3723:3867  function hasClaimed(bytes32 packetId, address claimer) external view returns (bool) {... */\n      swap3\n      swap2\n      pop\n      pop\n      jump\t// out\n        /* \"contracts/TelegramRedPacket.sol\":1662:2297  function claim(bytes32 packetId) external {... */\n    tag_40:\n        /* \"contracts/TelegramRedPacket.sol\":1715:1731  Packet storage p */\n      0x00\n        /* \"contracts/TelegramRedPacket.sol\":1734:1741  packets */\n      0x00\n        /* \"contracts/TelegramRedPacket.sol\":1734:1751  packets[packetId] */\n      0x00\n        /* \"contracts/TelegramRedPacket.sol\":1742:1750  packetId */\n      dup4\n        /* \"contracts/TelegramRedPacket.sol\":1734:1751  packets[packetId] */\n      dup2\n      mstore\n      0x20\n      add\n      swap1\n      dup2\n      mstore\n      0x20\n      add\n      0x00\n      keccak256\n        /* \"contracts/TelegramRedPacket.sol\":1715:1751  Packet storage p = packets[packetId] */\n      swap1\n      pop\n        /* \"contracts/TelegramRedPacket.sol\":1791:1792  0 */\n      0x00\n        /* \"contracts/TelegramRedPacket.sol\":1770:1793  p.creator != address(0) */\n      0xffffffffffffffffffffffffffffffffffffffff\n      and\n        /* \"contracts/TelegramRedPacket.sol\":1770:1771  p */\n      dup2\n        /* \"contracts/TelegramRedPacket.sol\":1770:1779  p.creator */\n      0x00\n      add\n      0x00\n      swap1\n      sload\n      swap1\n      0x0100\n      exp\n      swap1\n      div\n      0xffffffffffffffffffffffffffffffffffffffff\n      and\n        /* \"contracts/TelegramRedPacket.sol\":1770:1793  p.creator != address(0) */\n      0xffffffffffffffffffffffffffffffffffffffff\n      and\n      sub\n        /* \"contracts/TelegramRedPacket.sol\":1762:1807  require(p.creator != address(0), \"not found\") */\n      tag_109\n      jumpi\n      mload(0x40)\n      0x08c379a000000000000000000000000000000000000000000000000000000000\n      dup2\n      mstore\n      0x04\n      add\n      tag_110\n      swap1\n      tag_111\n      jump\t// in\n    tag_110:\n      mload(0x40)\n      dup1\n      swap2\n      sub\n      swap1\n      revert\n    tag_109:\n        /* \"contracts/TelegramRedPacket.sol\":1827:1828  p */\n      dup1\n        /* \"contracts/TelegramRedPacket.sol\":1827:1837  p.refunded */\n      0x03\n      add\n      0x10\n      swap1\n      sload\n      swap1\n      0x0100\n      exp\n      swap1\n      div\n      0xff\n      and\n        /* \"contracts/TelegramRedPacket.sol\":1826:1837  !p.refunded */\n      iszero\n        /* \"contracts/TelegramRedPacket.sol\":1818:1850  require(!p.refunded, \"refunded\") */\n      tag_112\n      jumpi\n      mload(0x40)\n      0x08c379a000000000000000000000000000000000000000000000000000000000\n      dup2\n      mstore\n      0x04\n      add\n      tag_113\n      swap1\n      tag_114\n      jump\t// in\n    tag_113:\n      mload(0x40)\n      dup1\n      swap2\n      sub\n      swap1\n      revert\n    tag_112:\n        /* \"contracts/TelegramRedPacket.sol\":1888:1889  p */\n      dup1\n        /* \"contracts/TelegramRedPacket.sol\":1888:1899  p.expiresAt */\n      0x03\n      add\n      0x08\n      swap1\n      sload\n      swap1\n      0x0100\n      exp\n      swap1\n      div\n      0xffffffffffffffff\n      and\n        /* \"contracts/TelegramRedPacket.sol\":1869:1899  block.timestamp <= p.expiresAt */\n      0xffffffffffffffff\n      and\n        /* \"contracts/TelegramRedPacket.sol\":1869:1884  block.timestamp */\n      timestamp\n        /* \"contracts/TelegramRedPacket.sol\":1869:1899  block.timestamp <= p.expiresAt */\n      gt\n      iszero\n        /* \"contracts/TelegramRedPacket.sol\":1861:1911  require(block.timestamp <= p.expiresAt, \"expired\") */\n      tag_115\n      jumpi\n      mload(0x40)\n      0x08c379a000000000000000000000000000000000000000000000000000000000\n      dup2\n      mstore\n      0x04\n      add\n      tag_116\n      swap1\n      tag_89\n      jump\t// in\n    tag_116:\n      mload(0x40)\n      dup1\n      swap2\n      sub\n      swap1\n      revert\n    tag_115:\n        /* \"contracts/TelegramRedPacket.sol\":1931:1932  p */\n      dup1\n        /* \"contracts/TelegramRedPacket.sol\":1931:1940  p.claimed */\n      0x04\n      add\n        /* \"contracts/TelegramRedPacket.sol\":1931:1952  p.claimed[msg.sender] */\n      0x00\n        /* \"contracts/TelegramRedPacket.sol\":1941:1951  msg.sender */\n      caller\n        /* \"contracts/TelegramRedPacket.sol\":1931:1952  p.claimed[msg.sender] */\n      0xffffffffffffffffffffffffffffffffffffffff\n      and\n      0xffffffffffffffffffffffffffffffffffffffff\n      and\n      dup2\n      mstore\n      0x20\n      add\n      swap1\n      dup2\n      mstore\n      0x20\n      add\n      0x00\n      keccak256\n      0x00\n      swap1\n      sload\n      swap1\n      0x0100\n      exp\n      swap1\n      div\n      0xff\n      and\n        /* \"contracts/TelegramRedPacket.sol\":1930:1952  !p.claimed[msg.sender] */\n      iszero\n        /* \"contracts/TelegramRedPacket.sol\":1922:1964  require(!p.claimed[msg.sender], \"claimed\") */\n      tag_117\n      jumpi\n      mload(0x40)\n      0x08c379a000000000000000000000000000000000000000000000000000000000\n      dup2\n      mstore\n      0x04\n      add\n      tag_118\n      swap1\n      tag_119\n      jump\t// in\n    tag_118:\n      mload(0x40)\n      dup1\n      swap2\n      sub\n      swap1\n      revert\n    tag_117:\n        /* \"contracts/TelegramRedPacket.sol\":2000:2001  p */\n      dup1\n        /* \"contracts/TelegramRedPacket.sol\":2000:2012  p.totalCount */\n      0x03\n      add\n      0x00\n      swap1\n      sload\n      swap1\n      0x0100\n      exp\n      swap1\n      div\n      0xffffffff\n      and\n        /* \"contracts/TelegramRedPacket.sol\":1983:2012  p.claimedCount < p.totalCount */\n      0xffffffff\n      and\n        /* \"contracts/TelegramRedPacket.sol\":1983:1984  p */\n      dup2\n        /* \"contracts/TelegramRedPacket.sol\":1983:1997  p.claimedCount */\n      0x03\n      add\n      0x04\n      swap1\n      sload\n      swap1\n      0x0100\n      exp\n      swap1\n      div\n      0xffffffff\n      and\n        /* \"contracts/TelegramRedPacket.sol\":1983:2012  p.claimedCount < p.totalCount */\n      0xffffffff\n      and\n      lt\n        /* \"contracts/TelegramRedPacket.sol\":1975:2022  require(p.claimedCount < p.totalCount, \"empty\") */\n      tag_120\n      jumpi\n      mload(0x40)\n      0x08c379a000000000000000000000000000000000000000000000000000000000\n      dup2\n      mstore\n      0x04\n      add\n      tag_121\n      swap1\n      tag_122\n      jump\t// in\n    tag_121:\n      mload(0x40)\n      dup1\n      swap2\n      sub\n      swap1\n      revert\n    tag_120:\n        /* \"contracts/TelegramRedPacket.sol\":2059:2063  true */\n      0x01\n        /* \"contracts/TelegramRedPacket.sol\":2035:2036  p */\n      dup2\n        /* \"contracts/TelegramRedPacket.sol\":2035:2044  p.claimed */\n      0x04\n      add\n        /* \"contracts/TelegramRedPacket.sol\":2035:2056  p.claimed[msg.sender] */\n      0x00\n        /* \"contracts/TelegramRedPacket.sol\":2045:2055  msg.sender */\n      caller\n        /* \"contracts/TelegramRedPacket.sol\":2035:2056  p.claimed[msg.sender] */\n      0xffffffffffffffffffffffffffffffffffffffff\n      and\n      0xffffffffffffffffffffffffffffffffffffffff\n      and\n      dup2\n      mstore\n      0x20\n      add\n      swap1\n      dup2\n      mstore\n      0x20\n      add\n      0x00\n      keccak256\n      0x00\n        /* \"contracts/TelegramRedPacket.sol\":2035:2063  p.claimed[msg.sender] = true */\n      0x0100\n      exp\n      dup2\n      sload\n      dup2\n      0xff\n      mul\n      not\n      and\n      swap1\n      dup4\n      iszero\n      iszero\n      mul\n      or\n      swap1\n      sstore\n      pop\n        /* \"contracts/TelegramRedPacket.sol\":2092:2093  1 */\n      0x01\n        /* \"contracts/TelegramRedPacket.sol\":2074:2075  p */\n      dup2\n        /* \"contracts/TelegramRedPacket.sol\":2074:2088  p.claimedCount */\n      0x03\n      add\n      0x04\n        /* \"contracts/TelegramRedPacket.sol\":2074:2093  p.claimedCount += 1 */\n      dup3\n      dup3\n      dup3\n      swap1\n      sload\n      swap1\n      0x0100\n      exp\n      swap1\n      div\n      0xffffffff\n      and\n      tag_123\n      swap2\n      swap1\n      tag_124\n      jump\t// in\n    tag_123:\n      swap3\n      pop\n      0x0100\n      exp\n      dup2\n      sload\n      dup2\n      0xffffffff\n      mul\n      not\n      and\n      swap1\n      dup4\n      0xffffffff\n      and\n      mul\n      or\n      swap1\n      sstore\n      pop\n        /* \"contracts/TelegramRedPacket.sol\":2107:2116  bool sent */\n      0x00\n        /* \"contracts/TelegramRedPacket.sol\":2130:2140  msg.sender */\n      caller\n        /* \"contracts/TelegramRedPacket.sol\":2122:2146  payable(msg.sender).call */\n      0xffffffffffffffffffffffffffffffffffffffff\n      and\n        /* \"contracts/TelegramRedPacket.sol\":2154:2155  p */\n      dup3\n        /* \"contracts/TelegramRedPacket.sol\":2154:2170  p.amountPerClaim */\n      0x02\n      add\n      sload\n        /* \"contracts/TelegramRedPacket.sol\":2122:2175  payable(msg.sender).call{value: p.amountPerClaim}(\"\") */\n      mload(0x40)\n      tag_125\n      swap1\n      tag_67\n      jump\t// in\n    tag_125:\n      0x00\n      mload(0x40)\n      dup1\n      dup4\n      sub\n      dup2\n      dup6\n      dup8\n      gas\n      call\n      swap3\n      pop\n      pop\n      pop\n      returndatasize\n      dup1\n      0x00\n      dup2\n      eq\n      tag_128\n      jumpi\n      mload(0x40)\n      swap2\n      pop\n      and(add(returndatasize, 0x3f), not(0x1f))\n      dup3\n      add\n      0x40\n      mstore\n      returndatasize\n      dup3\n      mstore\n      returndatasize\n      0x00\n      0x20\n      dup5\n      add\n      returndatacopy\n      jump(tag_127)\n    tag_128:\n      0x60\n      swap2\n      pop\n    tag_127:\n      pop\n        /* \"contracts/TelegramRedPacket.sol\":2106:2175  (bool sent, ) = payable(msg.sender).call{value: p.amountPerClaim}(\"\") */\n      pop\n      swap1\n      pop\n        /* \"contracts/TelegramRedPacket.sol\":2194:2198  sent */\n      dup1\n        /* \"contracts/TelegramRedPacket.sol\":2186:2224  require(sent, \"claim transfer failed\") */\n      tag_129\n      jumpi\n      mload(0x40)\n      0x08c379a000000000000000000000000000000000000000000000000000000000\n      dup2\n      mstore\n      0x04\n      add\n      tag_130\n      swap1\n      tag_131\n      jump\t// in\n    tag_130:\n      mload(0x40)\n      dup1\n      swap2\n      sub\n      swap1\n      revert\n    tag_129:\n        /* \"contracts/TelegramRedPacket.sol\":2260:2270  msg.sender */\n      caller\n        /* \"contracts/TelegramRedPacket.sol\":2242:2289  Claimed(packetId, msg.sender, p.amountPerClaim) */\n      0xffffffffffffffffffffffffffffffffffffffff\n      and\n        /* \"contracts/TelegramRedPacket.sol\":2250:2258  packetId */\n      dup4\n        /* \"contracts/TelegramRedPacket.sol\":2242:2289  Claimed(packetId, msg.sender, p.amountPerClaim) */\n      0x0508a8b4117d9a7b3d8f5895f6413e61b4f9a2df35afbfb41e78d0ecfff1843f\n        /* \"contracts/TelegramRedPacket.sol\":2272:2273  p */\n      dup5\n        /* \"contracts/TelegramRedPacket.sol\":2272:2288  p.amountPerClaim */\n      0x02\n      add\n      sload\n        /* \"contracts/TelegramRedPacket.sol\":2242:2289  Claimed(packetId, msg.sender, p.amountPerClaim) */\n      mload(0x40)\n      tag_132\n      swap2\n      swap1\n      tag_75\n      jump\t// in\n    tag_132:\n      mload(0x40)\n      dup1\n      swap2\n      sub\n      swap1\n      log3\n        /* \"contracts/TelegramRedPacket.sol\":1704:2297  {... */\n      pop\n      pop\n        /* \"contracts/TelegramRedPacket.sol\":1662:2297  function claim(bytes32 packetId) external {... */\n      pop\n      jump\t// out\n        /* \"contracts/TelegramRedPacket.sol\":95:140  uint32 public constant MAX_PACKET_COUNT = 500 */\n    tag_43:\n        /* \"contracts/TelegramRedPacket.sol\":137:140  500 */\n      0x01f4\n        /* \"contracts/TelegramRedPacket.sol\":95:140  uint32 public constant MAX_PACKET_COUNT = 500 */\n      dup2\n      jump\t// out\n        /* \"#utility.yul\":88:205   */\n    tag_134:\n        /* \"#utility.yul\":197:198   */\n      0x00\n        /* \"#utility.yul\":194:195   */\n      0x00\n        /* \"#utility.yul\":187:199   */\n      revert\n        /* \"#utility.yul\":334:411   */\n    tag_136:\n        /* \"#utility.yul\":371:378   */\n      0x00\n        /* \"#utility.yul\":400:405   */\n      dup2\n        /* \"#utility.yul\":389:405   */\n      swap1\n      pop\n        /* \"#utility.yul\":334:411   */\n      swap2\n      swap1\n      pop\n      jump\t// out\n        /* \"#utility.yul\":417:539   */\n    tag_137:\n        /* \"#utility.yul\":490:514   */\n      tag_200\n        /* \"#utility.yul\":508:513   */\n      dup2\n        /* \"#utility.yul\":490:514   */\n      tag_136\n      jump\t// in\n    tag_200:\n        /* \"#utility.yul\":483:488   */\n      dup2\n        /* \"#utility.yul\":480:515   */\n      eq\n        /* \"#utility.yul\":470:533   */\n      tag_201\n      jumpi\n        /* \"#utility.yul\":529:530   */\n      0x00\n        /* \"#utility.yul\":526:527   */\n      0x00\n        /* \"#utility.yul\":519:531   */\n      revert\n        /* \"#utility.yul\":470:533   */\n    tag_201:\n        /* \"#utility.yul\":417:539   */\n      pop\n      jump\t// out\n        /* \"#utility.yul\":545:684   */\n    tag_138:\n        /* \"#utility.yul\":591:596   */\n      0x00\n        /* \"#utility.yul\":629:635   */\n      dup2\n        /* \"#utility.yul\":616:636   */\n      calldataload\n        /* \"#utility.yul\":607:636   */\n      swap1\n      pop\n        /* \"#utility.yul\":645:678   */\n      tag_203\n        /* \"#utility.yul\":672:677   */\n      dup2\n        /* \"#utility.yul\":645:678   */\n      tag_137\n      jump\t// in\n    tag_203:\n        /* \"#utility.yul\":545:684   */\n      swap3\n      swap2\n      pop\n      pop\n      jump\t// out\n        /* \"#utility.yul\":690:1019   */\n    tag_13:\n        /* \"#utility.yul\":749:755   */\n      0x00\n        /* \"#utility.yul\":798:800   */\n      0x20\n        /* \"#utility.yul\":786:795   */\n      dup3\n        /* \"#utility.yul\":777:784   */\n      dup5\n        /* \"#utility.yul\":773:796   */\n      sub\n        /* \"#utility.yul\":769:801   */\n      slt\n        /* \"#utility.yul\":766:885   */\n      iszero\n      tag_205\n      jumpi\n        /* \"#utility.yul\":804:883   */\n      tag_206\n      tag_134\n      jump\t// in\n    tag_206:\n        /* \"#utility.yul\":766:885   */\n    tag_205:\n        /* \"#utility.yul\":924:925   */\n      0x00\n        /* \"#utility.yul\":949:1002   */\n      tag_207\n        /* \"#utility.yul\":994:1001   */\n      dup5\n        /* \"#utility.yul\":985:991   */\n      dup3\n        /* \"#utility.yul\":974:983   */\n      dup6\n        /* \"#utility.yul\":970:992   */\n      add\n        /* \"#utility.yul\":949:1002   */\n      tag_138\n      jump\t// in\n    tag_207:\n        /* \"#utility.yul\":939:1002   */\n      swap2\n      pop\n        /* \"#utility.yul\":895:1012   */\n      pop\n        /* \"#utility.yul\":690:1019   */\n      swap3\n      swap2\n      pop\n      pop\n      jump\t// out\n        /* \"#utility.yul\":1025:1151   */\n    tag_139:\n        /* \"#utility.yul\":1062:1069   */\n      0x00\n        /* \"#utility.yul\":1102:1144   */\n      0xffffffffffffffffffffffffffffffffffffffff\n        /* \"#utility.yul\":1095:1100   */\n      dup3\n        /* \"#utility.yul\":1091:1145   */\n      and\n        /* \"#utility.yul\":1080:1145   */\n      swap1\n      pop\n        /* \"#utility.yul\":1025:1151   */\n      swap2\n      swap1\n      pop\n      jump\t// out\n        /* \"#utility.yul\":1157:1253   */\n    tag_140:\n        /* \"#utility.yul\":1194:1201   */\n      0x00\n        /* \"#utility.yul\":1223:1247   */\n      tag_210\n        /* \"#utility.yul\":1241:1246   */\n      dup3\n        /* \"#utility.yul\":1223:1247   */\n      tag_139\n      jump\t// in\n    tag_210:\n        /* \"#utility.yul\":1212:1247   */\n      swap1\n      pop\n        /* \"#utility.yul\":1157:1253   */\n      swap2\n      swap1\n      pop\n      jump\t// out\n        /* \"#utility.yul\":1259:1377   */\n    tag_141:\n        /* \"#utility.yul\":1346:1370   */\n      tag_212\n        /* \"#utility.yul\":1364:1369   */\n      dup2\n        /* \"#utility.yul\":1346:1370   */\n      tag_140\n      jump\t// in\n    tag_212:\n        /* \"#utility.yul\":1341:1344   */\n      dup3\n        /* \"#utility.yul\":1334:1371   */\n      mstore\n        /* \"#utility.yul\":1259:1377   */\n      pop\n      pop\n      jump\t// out\n        /* \"#utility.yul\":1383:1460   */\n    tag_142:\n        /* \"#utility.yul\":1420:1427   */\n      0x00\n        /* \"#utility.yul\":1449:1454   */\n      dup2\n        /* \"#utility.yul\":1438:1454   */\n      swap1\n      pop\n        /* \"#utility.yul\":1383:1460   */\n      swap2\n      swap1\n      pop\n      jump\t// out\n        /* \"#utility.yul\":1466:1584   */\n    tag_143:\n        /* \"#utility.yul\":1553:1577   */\n      tag_215\n        /* \"#utility.yul\":1571:1576   */\n      dup2\n        /* \"#utility.yul\":1553:1577   */\n      tag_142\n      jump\t// in\n    tag_215:\n        /* \"#utility.yul\":1548:1551   */\n      dup3\n        /* \"#utility.yul\":1541:1578   */\n      mstore\n        /* \"#utility.yul\":1466:1584   */\n      pop\n      pop\n      jump\t// out\n        /* \"#utility.yul\":1590:1683   */\n    tag_144:\n        /* \"#utility.yul\":1626:1633   */\n      0x00\n        /* \"#utility.yul\":1666:1676   */\n      0xffffffff\n        /* \"#utility.yul\":1659:1664   */\n      dup3\n        /* \"#utility.yul\":1655:1677   */\n      and\n        /* \"#utility.yul\":1644:1677   */\n      swap1\n      pop\n        /* \"#utility.yul\":1590:1683   */\n      swap2\n      swap1\n      pop\n      jump\t// out\n        /* \"#utility.yul\":1689:1804   */\n    tag_145:\n        /* \"#utility.yul\":1774:1797   */\n      tag_218\n        /* \"#utility.yul\":1791:1796   */\n      dup2\n        /* \"#utility.yul\":1774:1797   */\n      tag_144\n      jump\t// in\n    tag_218:\n        /* \"#utility.yul\":1769:1772   */\n      dup3\n        /* \"#utility.yul\":1762:1798   */\n      mstore\n        /* \"#utility.yul\":1689:1804   */\n      pop\n      pop\n      jump\t// out\n        /* \"#utility.yul\":1810:1911   */\n    tag_146:\n        /* \"#utility.yul\":1846:1853   */\n      0x00\n        /* \"#utility.yul\":1886:1904   */\n      0xffffffffffffffff\n        /* \"#utility.yul\":1879:1884   */\n      dup3\n        /* \"#utility.yul\":1875:1905   */\n      and\n        /* \"#utility.yul\":1864:1905   */\n      swap1\n      pop\n        /* \"#utility.yul\":1810:1911   */\n      swap2\n      swap1\n      pop\n      jump\t// out\n        /* \"#utility.yul\":1917:2032   */\n    tag_147:\n        /* \"#utility.yul\":2002:2025   */\n      tag_221\n        /* \"#utility.yul\":2019:2024   */\n      dup2\n        /* \"#utility.yul\":2002:2025   */\n      tag_146\n      jump\t// in\n    tag_221:\n        /* \"#utility.yul\":1997:2000   */\n      dup3\n        /* \"#utility.yul\":1990:2026   */\n      mstore\n        /* \"#utility.yul\":1917:2032   */\n      pop\n      pop\n      jump\t// out\n        /* \"#utility.yul\":2038:2128   */\n    tag_148:\n        /* \"#utility.yul\":2072:2079   */\n      0x00\n        /* \"#utility.yul\":2115:2120   */\n      dup2\n        /* \"#utility.yul\":2108:2121   */\n      iszero\n        /* \"#utility.yul\":2101:2122   */\n      iszero\n        /* \"#utility.yul\":2090:2122   */\n      swap1\n      pop\n        /* \"#utility.yul\":2038:2128   */\n      swap2\n      swap1\n      pop\n      jump\t// out\n        /* \"#utility.yul\":2134:2243   */\n    tag_149:\n        /* \"#utility.yul\":2215:2236   */\n      tag_224\n        /* \"#utility.yul\":2230:2235   */\n      dup2\n        /* \"#utility.yul\":2215:2236   */\n      tag_148\n      jump\t// in\n    tag_224:\n        /* \"#utility.yul\":2210:2213   */\n      dup3\n        /* \"#utility.yul\":2203:2237   */\n      mstore\n        /* \"#utility.yul\":2134:2243   */\n      pop\n      pop\n      jump\t// out\n        /* \"#utility.yul\":2249:3210   */\n    tag_16:\n        /* \"#utility.yul\":2520:2524   */\n      0x00\n        /* \"#utility.yul\":2558:2561   */\n      0x0100\n        /* \"#utility.yul\":2547:2556   */\n      dup3\n        /* \"#utility.yul\":2543:2562   */\n      add\n        /* \"#utility.yul\":2535:2562   */\n      swap1\n      pop\n        /* \"#utility.yul\":2572:2643   */\n      tag_226\n        /* \"#utility.yul\":2640:2641   */\n      0x00\n        /* \"#utility.yul\":2629:2638   */\n      dup4\n        /* \"#utility.yul\":2625:2642   */\n      add\n        /* \"#utility.yul\":2616:2622   */\n      dup12\n        /* \"#utility.yul\":2572:2643   */\n      tag_141\n      jump\t// in\n    tag_226:\n        /* \"#utility.yul\":2653:2725   */\n      tag_227\n        /* \"#utility.yul\":2721:2723   */\n      0x20\n        /* \"#utility.yul\":2710:2719   */\n      dup4\n        /* \"#utility.yul\":2706:2724   */\n      add\n        /* \"#utility.yul\":2697:2703   */\n      dup11\n        /* \"#utility.yul\":2653:2725   */\n      tag_143\n      jump\t// in\n    tag_227:\n        /* \"#utility.yul\":2735:2807   */\n      tag_228\n        /* \"#utility.yul\":2803:2805   */\n      0x40\n        /* \"#utility.yul\":2792:2801   */\n      dup4\n        /* \"#utility.yul\":2788:2806   */\n      add\n        /* \"#utility.yul\":2779:2785   */\n      dup10\n        /* \"#utility.yul\":2735:2807   */\n      tag_143\n      jump\t// in\n    tag_228:\n        /* \"#utility.yul\":2817:2887   */\n      tag_229\n        /* \"#utility.yul\":2883:2885   */\n      0x60\n        /* \"#utility.yul\":2872:2881   */\n      dup4\n        /* \"#utility.yul\":2868:2886   */\n      add\n        /* \"#utility.yul\":2859:2865   */\n      dup9\n        /* \"#utility.yul\":2817:2887   */\n      tag_145\n      jump\t// in\n    tag_229:\n        /* \"#utility.yul\":2897:2968   */\n      tag_230\n        /* \"#utility.yul\":2963:2966   */\n      0x80\n        /* \"#utility.yul\":2952:2961   */\n      dup4\n        /* \"#utility.yul\":2948:2967   */\n      add\n        /* \"#utility.yul\":2939:2945   */\n      dup8\n        /* \"#utility.yul\":2897:2968   */\n      tag_145\n      jump\t// in\n    tag_230:\n        /* \"#utility.yul\":2978:3049   */\n      tag_231\n        /* \"#utility.yul\":3044:3047   */\n      0xa0\n        /* \"#utility.yul\":3033:3042   */\n      dup4\n        /* \"#utility.yul\":3029:3048   */\n      add\n        /* \"#utility.yul\":3020:3026   */\n      dup7\n        /* \"#utility.yul\":2978:3049   */\n      tag_147\n      jump\t// in\n    tag_231:\n        /* \"#utility.yul\":3059:3126   */\n      tag_232\n        /* \"#utility.yul\":3121:3124   */\n      0xc0\n        /* \"#utility.yul\":3110:3119   */\n      dup4\n        /* \"#utility.yul\":3106:3125   */\n      add\n        /* \"#utility.yul\":3097:3103   */\n      dup6\n        /* \"#utility.yul\":3059:3126   */\n      tag_149\n      jump\t// in\n    tag_232:\n        /* \"#utility.yul\":3136:3203   */\n      tag_233\n        /* \"#utility.yul\":3198:3201   */\n      0xe0\n        /* \"#utility.yul\":3187:3196   */\n      dup4\n        /* \"#utility.yul\":3183:3202   */\n      add\n        /* \"#utility.yul\":3174:3180   */\n      dup5\n        /* \"#utility.yul\":3136:3203   */\n      tag_149\n      jump\t// in\n    tag_233:\n        /* \"#utility.yul\":2249:3210   */\n      swap10\n      swap9\n      pop\n      pop\n      pop\n      pop\n      pop\n      pop\n      pop\n      pop\n      pop\n      jump\t// out\n        /* \"#utility.yul\":3216:3336   */\n    tag_150:\n        /* \"#utility.yul\":3288:3311   */\n      tag_235\n        /* \"#utility.yul\":3305:3310   */\n      dup2\n        /* \"#utility.yul\":3288:3311   */\n      tag_144\n      jump\t// in\n    tag_235:\n        /* \"#utility.yul\":3281:3286   */\n      dup2\n        /* \"#utility.yul\":3278:3312   */\n      eq\n        /* \"#utility.yul\":3268:3330   */\n      tag_236\n      jumpi\n        /* \"#utility.yul\":3326:3327   */\n      0x00\n        /* \"#utility.yul\":3323:3324   */\n      0x00\n        /* \"#utility.yul\":3316:3328   */\n      revert\n        /* \"#utility.yul\":3268:3330   */\n    tag_236:\n        /* \"#utility.yul\":3216:3336   */\n      pop\n      jump\t// out\n        /* \"#utility.yul\":3342:3479   */\n    tag_151:\n        /* \"#utility.yul\":3387:3392   */\n      0x00\n        /* \"#utility.yul\":3425:3431   */\n      dup2\n        /* \"#utility.yul\":3412:3432   */\n      calldataload\n        /* \"#utility.yul\":3403:3432   */\n      swap1\n      pop\n        /* \"#utility.yul\":3441:3473   */\n      tag_238\n        /* \"#utility.yul\":3467:3472   */\n      dup2\n        /* \"#utility.yul\":3441:3473   */\n      tag_150\n      jump\t// in\n    tag_238:\n        /* \"#utility.yul\":3342:3479   */\n      swap3\n      swap2\n      pop\n      pop\n      jump\t// out\n        /* \"#utility.yul\":3485:3605   */\n    tag_152:\n        /* \"#utility.yul\":3557:3580   */\n      tag_240\n        /* \"#utility.yul\":3574:3579   */\n      dup2\n        /* \"#utility.yul\":3557:3580   */\n      tag_146\n      jump\t// in\n    tag_240:\n        /* \"#utility.yul\":3550:3555   */\n      dup2\n        /* \"#utility.yul\":3547:3581   */\n      eq\n        /* \"#utility.yul\":3537:3599   */\n      tag_241\n      jumpi\n        /* \"#utility.yul\":3595:3596   */\n      0x00\n        /* \"#utility.yul\":3592:3593   */\n      0x00\n        /* \"#utility.yul\":3585:3597   */\n      revert\n        /* \"#utility.yul\":3537:3599   */\n    tag_241:\n        /* \"#utility.yul\":3485:3605   */\n      pop\n      jump\t// out\n        /* \"#utility.yul\":3611:3748   */\n    tag_153:\n        /* \"#utility.yul\":3656:3661   */\n      0x00\n        /* \"#utility.yul\":3694:3700   */\n      dup2\n        /* \"#utility.yul\":3681:3701   */\n      calldataload\n        /* \"#utility.yul\":3672:3701   */\n      swap1\n      pop\n        /* \"#utility.yul\":3710:3742   */\n      tag_243\n        /* \"#utility.yul\":3736:3741   */\n      dup2\n        /* \"#utility.yul\":3710:3742   */\n      tag_152\n      jump\t// in\n    tag_243:\n        /* \"#utility.yul\":3611:3748   */\n      swap3\n      swap2\n      pop\n      pop\n      jump\t// out\n        /* \"#utility.yul\":3754:4369   */\n    tag_23:\n        /* \"#utility.yul\":3829:3835   */\n      0x00\n        /* \"#utility.yul\":3837:3843   */\n      0x00\n        /* \"#utility.yul\":3845:3851   */\n      0x00\n        /* \"#utility.yul\":3894:3896   */\n      0x60\n        /* \"#utility.yul\":3882:3891   */\n      dup5\n        /* \"#utility.yul\":3873:3880   */\n      dup7\n        /* \"#utility.yul\":3869:3892   */\n      sub\n        /* \"#utility.yul\":3865:3897   */\n      slt\n        /* \"#utility.yul\":3862:3981   */\n      iszero\n      tag_245\n      jumpi\n        /* \"#utility.yul\":3900:3979   */\n      tag_246\n      tag_134\n      jump\t// in\n    tag_246:\n        /* \"#utility.yul\":3862:3981   */\n    tag_245:\n        /* \"#utility.yul\":4020:4021   */\n      0x00\n        /* \"#utility.yul\":4045:4098   */\n      tag_247\n        /* \"#utility.yul\":4090:4097   */\n      dup7\n        /* \"#utility.yul\":4081:4087   */\n      dup3\n        /* \"#utility.yul\":4070:4079   */\n      dup8\n        /* \"#utility.yul\":4066:4088   */\n      add\n        /* \"#utility.yul\":4045:4098   */\n      tag_138\n      jump\t// in\n    tag_247:\n        /* \"#utility.yul\":4035:4098   */\n      swap4\n      pop\n        /* \"#utility.yul\":3991:4108   */\n      pop\n        /* \"#utility.yul\":4147:4149   */\n      0x20\n        /* \"#utility.yul\":4173:4225   */\n      tag_248\n        /* \"#utility.yul\":4217:4224   */\n      dup7\n        /* \"#utility.yul\":4208:4214   */\n      dup3\n        /* \"#utility.yul\":4197:4206   */\n      dup8\n        /* \"#utility.yul\":4193:4215   */\n      add\n        /* \"#utility.yul\":4173:4225   */\n      tag_151\n      jump\t// in\n    tag_248:\n        /* \"#utility.yul\":4163:4225   */\n      swap3\n      pop\n        /* \"#utility.yul\":4118:4235   */\n      pop\n        /* \"#utility.yul\":4274:4276   */\n      0x40\n        /* \"#utility.yul\":4300:4352   */\n      tag_249\n        /* \"#utility.yul\":4344:4351   */\n      dup7\n        /* \"#utility.yul\":4335:4341   */\n      dup3\n        /* \"#utility.yul\":4324:4333   */\n      dup8\n        /* \"#utility.yul\":4320:4342   */\n      add\n        /* \"#utility.yul\":4300:4352   */\n      tag_153\n      jump\t// in\n    tag_249:\n        /* \"#utility.yul\":4290:4352   */\n      swap2\n      pop\n        /* \"#utility.yul\":4245:4362   */\n      pop\n        /* \"#utility.yul\":3754:4369   */\n      swap3\n      pop\n      swap3\n      pop\n      swap3\n      jump\t// out\n        /* \"#utility.yul\":4375:4593   */\n    tag_29:\n        /* \"#utility.yul\":4466:4470   */\n      0x00\n        /* \"#utility.yul\":4504:4506   */\n      0x20\n        /* \"#utility.yul\":4493:4502   */\n      dup3\n        /* \"#utility.yul\":4489:4507   */\n      add\n        /* \"#utility.yul\":4481:4507   */\n      swap1\n      pop\n        /* \"#utility.yul\":4517:4586   */\n      tag_251\n        /* \"#utility.yul\":4583:4584   */\n      0x00\n        /* \"#utility.yul\":4572:4581   */\n      dup4\n        /* \"#utility.yul\":4568:4585   */\n      add\n        /* \"#utility.yul\":4559:4565   */\n      dup5\n        /* \"#utility.yul\":4517:4586   */\n      tag_147\n      jump\t// in\n    tag_251:\n        /* \"#utility.yul\":4375:4593   */\n      swap3\n      swap2\n      pop\n      pop\n      jump\t// out\n        /* \"#utility.yul\":4599:4721   */\n    tag_154:\n        /* \"#utility.yul\":4672:4696   */\n      tag_253\n        /* \"#utility.yul\":4690:4695   */\n      dup2\n        /* \"#utility.yul\":4672:4696   */\n      tag_140\n      jump\t// in\n    tag_253:\n        /* \"#utility.yul\":4665:4670   */\n      dup2\n        /* \"#utility.yul\":4662:4697   */\n      eq\n        /* \"#utility.yul\":4652:4715   */\n      tag_254\n      jumpi\n        /* \"#utility.yul\":4711:4712   */\n      0x00\n        /* \"#utility.yul\":4708:4709   */\n      0x00\n        /* \"#utility.yul\":4701:4713   */\n      revert\n        /* \"#utility.yul\":4652:4715   */\n    tag_254:\n        /* \"#utility.yul\":4599:4721   */\n      pop\n      jump\t// out\n        /* \"#utility.yul\":4727:4866   */\n    tag_155:\n        /* \"#utility.yul\":4773:4778   */\n      0x00\n        /* \"#utility.yul\":4811:4817   */\n      dup2\n        /* \"#utility.yul\":4798:4818   */\n      calldataload\n        /* \"#utility.yul\":4789:4818   */\n      swap1\n      pop\n        /* \"#utility.yul\":4827:4860   */\n      tag_256\n        /* \"#utility.yul\":4854:4859   */\n      dup2\n        /* \"#utility.yul\":4827:4860   */\n      tag_154\n      jump\t// in\n    tag_256:\n        /* \"#utility.yul\":4727:4866   */\n      swap3\n      swap2\n      pop\n      pop\n      jump\t// out\n        /* \"#utility.yul\":4872:5346   */\n    tag_33:\n        /* \"#utility.yul\":4940:4946   */\n      0x00\n        /* \"#utility.yul\":4948:4954   */\n      0x00\n        /* \"#utility.yul\":4997:4999   */\n      0x40\n        /* \"#utility.yul\":4985:4994   */\n      dup4\n        /* \"#utility.yul\":4976:4983   */\n      dup6\n        /* \"#utility.yul\":4972:4995   */\n      sub\n        /* \"#utility.yul\":4968:5000   */\n      slt\n        /* \"#utility.yul\":4965:5084   */\n      iszero\n      tag_258\n      jumpi\n        /* \"#utility.yul\":5003:5082   */\n      tag_259\n      tag_134\n      jump\t// in\n    tag_259:\n        /* \"#utility.yul\":4965:5084   */\n    tag_258:\n        /* \"#utility.yul\":5123:5124   */\n      0x00\n        /* \"#utility.yul\":5148:5201   */\n      tag_260\n        /* \"#utility.yul\":5193:5200   */\n      dup6\n        /* \"#utility.yul\":5184:5190   */\n      dup3\n        /* \"#utility.yul\":5173:5182   */\n      dup7\n        /* \"#utility.yul\":5169:5191   */\n      add\n        /* \"#utility.yul\":5148:5201   */\n      tag_138\n      jump\t// in\n    tag_260:\n        /* \"#utility.yul\":5138:5201   */\n      swap3\n      pop\n        /* \"#utility.yul\":5094:5211   */\n      pop\n        /* \"#utility.yul\":5250:5252   */\n      0x20\n        /* \"#utility.yul\":5276:5329   */\n      tag_261\n        /* \"#utility.yul\":5321:5328   */\n      dup6\n        /* \"#utility.yul\":5312:5318   */\n      dup3\n        /* \"#utility.yul\":5301:5310   */\n      dup7\n        /* \"#utility.yul\":5297:5319   */\n      add\n        /* \"#utility.yul\":5276:5329   */\n      tag_155\n      jump\t// in\n    tag_261:\n        /* \"#utility.yul\":5266:5329   */\n      swap2\n      pop\n        /* \"#utility.yul\":5221:5339   */\n      pop\n        /* \"#utility.yul\":4872:5346   */\n      swap3\n      pop\n      swap3\n      swap1\n      pop\n      jump\t// out\n        /* \"#utility.yul\":5352:5562   */\n    tag_36:\n        /* \"#utility.yul\":5439:5443   */\n      0x00\n        /* \"#utility.yul\":5477:5479   */\n      0x20\n        /* \"#utility.yul\":5466:5475   */\n      dup3\n        /* \"#utility.yul\":5462:5480   */\n      add\n        /* \"#utility.yul\":5454:5480   */\n      swap1\n      pop\n        /* \"#utility.yul\":5490:5555   */\n      tag_263\n        /* \"#utility.yul\":5552:5553   */\n      0x00\n        /* \"#utility.yul\":5541:5550   */\n      dup4\n        /* \"#utility.yul\":5537:5554   */\n      add\n        /* \"#utility.yul\":5528:5534   */\n      dup5\n        /* \"#utility.yul\":5490:5555   */\n      tag_149\n      jump\t// in\n    tag_263:\n        /* \"#utility.yul\":5352:5562   */\n      swap3\n      swap2\n      pop\n      pop\n      jump\t// out\n        /* \"#utility.yul\":5568:5786   */\n    tag_45:\n        /* \"#utility.yul\":5659:5663   */\n      0x00\n        /* \"#utility.yul\":5697:5699   */\n      0x20\n        /* \"#utility.yul\":5686:5695   */\n      dup3\n        /* \"#utility.yul\":5682:5700   */\n      add\n        /* \"#utility.yul\":5674:5700   */\n      swap1\n      pop\n        /* \"#utility.yul\":5710:5779   */\n      tag_265\n        /* \"#utility.yul\":5776:5777   */\n      0x00\n        /* \"#utility.yul\":5765:5774   */\n      dup4\n        /* \"#utility.yul\":5761:5778   */\n      add\n        /* \"#utility.yul\":5752:5758   */\n      dup5\n        /* \"#utility.yul\":5710:5779   */\n      tag_145\n      jump\t// in\n    tag_265:\n        /* \"#utility.yul\":5568:5786   */\n      swap3\n      swap2\n      pop\n      pop\n      jump\t// out\n        /* \"#utility.yul\":5792:5961   */\n    tag_156:\n        /* \"#utility.yul\":5876:5887   */\n      0x00\n        /* \"#utility.yul\":5910:5916   */\n      dup3\n        /* \"#utility.yul\":5905:5908   */\n      dup3\n        /* \"#utility.yul\":5898:5917   */\n      mstore\n        /* \"#utility.yul\":5950:5954   */\n      0x20\n        /* \"#utility.yul\":5945:5948   */\n      dup3\n        /* \"#utility.yul\":5941:5955   */\n      add\n        /* \"#utility.yul\":5926:5955   */\n      swap1\n      pop\n        /* \"#utility.yul\":5792:5961   */\n      swap3\n      swap2\n      pop\n      pop\n      jump\t// out\n        /* \"#utility.yul\":5967:6128   */\n    tag_157:\n        /* \"#utility.yul\":6107:6120   */\n      0x6e6f742063726561746f72000000000000000000000000000000000000000000\n        /* \"#utility.yul\":6103:6104   */\n      0x00\n        /* \"#utility.yul\":6095:6101   */\n      dup3\n        /* \"#utility.yul\":6091:6105   */\n      add\n        /* \"#utility.yul\":6084:6121   */\n      mstore\n        /* \"#utility.yul\":5967:6128   */\n      pop\n      jump\t// out\n        /* \"#utility.yul\":6134:6500   */\n    tag_158:\n        /* \"#utility.yul\":6276:6279   */\n      0x00\n        /* \"#utility.yul\":6297:6364   */\n      tag_269\n        /* \"#utility.yul\":6361:6363   */\n      0x0b\n        /* \"#utility.yul\":6356:6359   */\n      dup4\n        /* \"#utility.yul\":6297:6364   */\n      tag_156\n      jump\t// in\n    tag_269:\n        /* \"#utility.yul\":6290:6364   */\n      swap2\n      pop\n        /* \"#utility.yul\":6373:6466   */\n      tag_270\n        /* \"#utility.yul\":6462:6465   */\n      dup3\n        /* \"#utility.yul\":6373:6466   */\n      tag_157\n      jump\t// in\n    tag_270:\n        /* \"#utility.yul\":6491:6493   */\n      0x20\n        /* \"#utility.yul\":6486:6489   */\n      dup3\n        /* \"#utility.yul\":6482:6494   */\n      add\n        /* \"#utility.yul\":6475:6494   */\n      swap1\n      pop\n        /* \"#utility.yul\":6134:6500   */\n      swap2\n      swap1\n      pop\n      jump\t// out\n        /* \"#utility.yul\":6506:6925   */\n    tag_53:\n        /* \"#utility.yul\":6672:6676   */\n      0x00\n        /* \"#utility.yul\":6710:6712   */\n      0x20\n        /* \"#utility.yul\":6699:6708   */\n      dup3\n        /* \"#utility.yul\":6695:6713   */\n      add\n        /* \"#utility.yul\":6687:6713   */\n      swap1\n      pop\n        /* \"#utility.yul\":6759:6768   */\n      dup2\n        /* \"#utility.yul\":6753:6757   */\n      dup2\n        /* \"#utility.yul\":6749:6769   */\n      sub\n        /* \"#utility.yul\":6745:6746   */\n      0x00\n        /* \"#utility.yul\":6734:6743   */\n      dup4\n        /* \"#utility.yul\":6730:6747   */\n      add\n        /* \"#utility.yul\":6723:6770   */\n      mstore\n        /* \"#utility.yul\":6787:6918   */\n      tag_272\n        /* \"#utility.yul\":6913:6917   */\n      dup2\n        /* \"#utility.yul\":6787:6918   */\n      tag_158\n      jump\t// in\n    tag_272:\n        /* \"#utility.yul\":6779:6918   */\n      swap1\n      pop\n        /* \"#utility.yul\":6506:6925   */\n      swap2\n      swap1\n      pop\n      jump\t// out\n        /* \"#utility.yul\":6931:7088   */\n    tag_159:\n        /* \"#utility.yul\":7071:7080   */\n      0x616c726561647900000000000000000000000000000000000000000000000000\n        /* \"#utility.yul\":7067:7068   */\n      0x00\n        /* \"#utility.yul\":7059:7065   */\n      dup3\n        /* \"#utility.yul\":7055:7069   */\n      add\n        /* \"#utility.yul\":7048:7081   */\n      mstore\n        /* \"#utility.yul\":6931:7088   */\n      pop\n      jump\t// out\n        /* \"#utility.yul\":7094:7459   */\n    tag_160:\n        /* \"#utility.yul\":7236:7239   */\n      0x00\n        /* \"#utility.yul\":7257:7323   */\n      tag_275\n        /* \"#utility.yul\":7321:7322   */\n      0x07\n        /* \"#utility.yul\":7316:7319   */\n      dup4\n        /* \"#utility.yul\":7257:7323   */\n      tag_156\n      jump\t// in\n    tag_275:\n        /* \"#utility.yul\":7250:7323   */\n      swap2\n      pop\n        /* \"#utility.yul\":7332:7425   */\n      tag_276\n        /* \"#utility.yul\":7421:7424   */\n      dup3\n        /* \"#utility.yul\":7332:7425   */\n      tag_159\n      jump\t// in\n    tag_276:\n        /* \"#utility.yul\":7450:7452   */\n      0x20\n        /* \"#utility.yul\":7445:7448   */\n      dup3\n        /* \"#utility.yul\":7441:7453   */\n      add\n        /* \"#utility.yul\":7434:7453   */\n      swap1\n      pop\n        /* \"#utility.yul\":7094:7459   */\n      swap2\n      swap1\n      pop\n      jump\t// out\n        /* \"#utility.yul\":7465:7884   */\n    tag_56:\n        /* \"#utility.yul\":7631:7635   */\n      0x00\n        /* \"#utility.yul\":7669:7671   */\n      0x20\n        /* \"#utility.yul\":7658:7667   */\n      dup3\n        /* \"#utility.yul\":7654:7672   */\n      add\n        /* \"#utility.yul\":7646:7672   */\n      swap1\n      pop\n        /* \"#utility.yul\":7718:7727   */\n      dup2\n        /* \"#utility.yul\":7712:7716   */\n      dup2\n        /* \"#utility.yul\":7708:7728   */\n      sub\n        /* \"#utility.yul\":7704:7705   */\n      0x00\n        /* \"#utility.yul\":7693:7702   */\n      dup4\n        /* \"#utility.yul\":7689:7706   */\n      add\n        /* \"#utility.yul\":7682:7729   */\n      mstore\n        /* \"#utility.yul\":7746:7877   */\n      tag_278\n        /* \"#utility.yul\":7872:7876   */\n      dup2\n        /* \"#utility.yul\":7746:7877   */\n      tag_160\n      jump\t// in\n    tag_278:\n        /* \"#utility.yul\":7738:7877   */\n      swap1\n      pop\n        /* \"#utility.yul\":7465:7884   */\n      swap2\n      swap1\n      pop\n      jump\t// out\n        /* \"#utility.yul\":7890:8047   */\n    tag_161:\n        /* \"#utility.yul\":8030:8039   */\n      0x6e6f7420656e6400000000000000000000000000000000000000000000000000\n        /* \"#utility.yul\":8026:8027   */\n      0x00\n        /* \"#utility.yul\":8018:8024   */\n      dup3\n        /* \"#utility.yul\":8014:8028   */\n      add\n        /* \"#utility.yul\":8007:8040   */\n      mstore\n        /* \"#utility.yul\":7890:8047   */\n      pop\n      jump\t// out\n        /* \"#utility.yul\":8053:8418   */\n    tag_162:\n        /* \"#utility.yul\":8195:8198   */\n      0x00\n        /* \"#utility.yul\":8216:8282   */\n      tag_281\n        /* \"#utility.yul\":8280:8281   */\n      0x07\n        /* \"#utility.yul\":8275:8278   */\n      dup4\n        /* \"#utility.yul\":8216:8282   */\n      tag_156\n      jump\t// in\n    tag_281:\n        /* \"#utility.yul\":8209:8282   */\n      swap2\n      pop\n        /* \"#utility.yul\":8291:8384   */\n      tag_282\n        /* \"#utility.yul\":8380:8383   */\n      dup3\n        /* \"#utility.yul\":8291:8384   */\n      tag_161\n      jump\t// in\n    tag_282:\n        /* \"#utility.yul\":8409:8411   */\n      0x20\n        /* \"#utility.yul\":8404:8407   */\n      dup3\n        /* \"#utility.yul\":8400:8412   */\n      add\n        /* \"#utility.yul\":8393:8412   */\n      swap1\n      pop\n        /* \"#utility.yul\":8053:8418   */\n      swap2\n      swap1\n      pop\n      jump\t// out\n        /* \"#utility.yul\":8424:8843   */\n    tag_60:\n        /* \"#utility.yul\":8590:8594   */\n      0x00\n        /* \"#utility.yul\":8628:8630   */\n      0x20\n        /* \"#utility.yul\":8617:8626   */\n      dup3\n        /* \"#utility.yul\":8613:8631   */\n      add\n        /* \"#utility.yul\":8605:8631   */\n      swap1\n      pop\n        /* \"#utility.yul\":8677:8686   */\n      dup2\n        /* \"#utility.yul\":8671:8675   */\n      dup2\n        /* \"#utility.yul\":8667:8687   */\n      sub\n        /* \"#utility.yul\":8663:8664   */\n      0x00\n        /* \"#utility.yul\":8652:8661   */\n      dup4\n        /* \"#utility.yul\":8648:8665   */\n      add\n        /* \"#utility.yul\":8641:8688   */\n      mstore\n        /* \"#utility.yul\":8705:8836   */\n      tag_284\n        /* \"#utility.yul\":8831:8835   */\n      dup2\n        /* \"#utility.yul\":8705:8836   */\n      tag_162\n      jump\t// in\n    tag_284:\n        /* \"#utility.yul\":8697:8836   */\n      swap1\n      pop\n        /* \"#utility.yul\":8424:8843   */\n      swap2\n      swap1\n      pop\n      jump\t// out\n        /* \"#utility.yul\":8849:9029   */\n    tag_163:\n        /* \"#utility.yul\":8897:8974   */\n      0x4e487b7100000000000000000000000000000000000000000000000000000000\n        /* \"#utility.yul\":8894:8895   */\n      0x00\n        /* \"#utility.yul\":8887:8975   */\n      mstore\n        /* \"#utility.yul\":8994:8998   */\n      0x11\n        /* \"#utility.yul\":8991:8992   */\n      0x04\n        /* \"#utility.yul\":8984:8999   */\n      mstore\n        /* \"#utility.yul\":9018:9022   */\n      0x24\n        /* \"#utility.yul\":9015:9016   */\n      0x00\n        /* \"#utility.yul\":9008:9023   */\n      revert\n        /* \"#utility.yul\":9035:9235   */\n    tag_62:\n        /* \"#utility.yul\":9074:9078   */\n      0x00\n        /* \"#utility.yul\":9094:9113   */\n      tag_287\n        /* \"#utility.yul\":9111:9112   */\n      dup3\n        /* \"#utility.yul\":9094:9113   */\n      tag_144\n      jump\t// in\n    tag_287:\n        /* \"#utility.yul\":9089:9113   */\n      swap2\n      pop\n        /* \"#utility.yul\":9127:9146   */\n      tag_288\n        /* \"#utility.yul\":9144:9145   */\n      dup4\n        /* \"#utility.yul\":9127:9146   */\n      tag_144\n      jump\t// in\n    tag_288:\n        /* \"#utility.yul\":9122:9146   */\n      swap3\n      pop\n        /* \"#utility.yul\":9170:9171   */\n      dup3\n        /* \"#utility.yul\":9167:9168   */\n      dup3\n        /* \"#utility.yul\":9163:9172   */\n      sub\n        /* \"#utility.yul\":9155:9172   */\n      swap1\n      pop\n        /* \"#utility.yul\":9194:9204   */\n      0xffffffff\n        /* \"#utility.yul\":9188:9192   */\n      dup2\n        /* \"#utility.yul\":9185:9205   */\n      gt\n        /* \"#utility.yul\":9182:9228   */\n      iszero\n      tag_289\n      jumpi\n        /* \"#utility.yul\":9208:9226   */\n      tag_290\n      tag_163\n      jump\t// in\n    tag_290:\n        /* \"#utility.yul\":9182:9228   */\n    tag_289:\n        /* \"#utility.yul\":9035:9235   */\n      swap3\n      swap2\n      pop\n      pop\n      jump\t// out\n        /* \"#utility.yul\":9241:9651   */\n    tag_64:\n        /* \"#utility.yul\":9281:9288   */\n      0x00\n        /* \"#utility.yul\":9304:9324   */\n      tag_292\n        /* \"#utility.yul\":9322:9323   */\n      dup3\n        /* \"#utility.yul\":9304:9324   */\n      tag_142\n      jump\t// in\n    tag_292:\n        /* \"#utility.yul\":9299:9324   */\n      swap2\n      pop\n        /* \"#utility.yul\":9338:9358   */\n      tag_293\n        /* \"#utility.yul\":9356:9357   */\n      dup4\n        /* \"#utility.yul\":9338:9358   */\n      tag_142\n      jump\t// in\n    tag_293:\n        /* \"#utility.yul\":9333:9358   */\n      swap3\n      pop\n        /* \"#utility.yul\":9393:9394   */\n      dup3\n        /* \"#utility.yul\":9390:9391   */\n      dup3\n        /* \"#utility.yul\":9386:9395   */\n      mul\n        /* \"#utility.yul\":9415:9445   */\n      tag_294\n        /* \"#utility.yul\":9433:9444   */\n      dup2\n        /* \"#utility.yul\":9415:9445   */\n      tag_142\n      jump\t// in\n    tag_294:\n        /* \"#utility.yul\":9404:9445   */\n      swap2\n      pop\n        /* \"#utility.yul\":9594:9595   */\n      dup3\n        /* \"#utility.yul\":9585:9592   */\n      dup3\n        /* \"#utility.yul\":9581:9596   */\n      div\n        /* \"#utility.yul\":9578:9579   */\n      dup5\n        /* \"#utility.yul\":9575:9597   */\n      eq\n        /* \"#utility.yul\":9555:9556   */\n      dup4\n        /* \"#utility.yul\":9548:9557   */\n      iszero\n        /* \"#utility.yul\":9528:9611   */\n      or\n        /* \"#utility.yul\":9505:9644   */\n      tag_295\n      jumpi\n        /* \"#utility.yul\":9624:9642   */\n      tag_296\n      tag_163\n      jump\t// in\n    tag_296:\n        /* \"#utility.yul\":9505:9644   */\n    tag_295:\n        /* \"#utility.yul\":9289:9651   */\n      pop\n        /* \"#utility.yul\":9241:9651   */\n      swap3\n      swap2\n      pop\n      pop\n      jump\t// out\n        /* \"#utility.yul\":9657:9804   */\n    tag_164:\n        /* \"#utility.yul\":9758:9769   */\n      0x00\n        /* \"#utility.yul\":9795:9798   */\n      dup2\n        /* \"#utility.yul\":9780:9798   */\n      swap1\n      pop\n        /* \"#utility.yul\":9657:9804   */\n      swap3\n      swap2\n      pop\n      pop\n      jump\t// out\n        /* \"#utility.yul\":9810:9924   */\n    tag_165:\n      pop\n      jump\t// out\n        /* \"#utility.yul\":9930:10328   */\n    tag_166:\n        /* \"#utility.yul\":10089:10092   */\n      0x00\n        /* \"#utility.yul\":10110:10193   */\n      tag_300\n        /* \"#utility.yul\":10191:10192   */\n      0x00\n        /* \"#utility.yul\":10186:10189   */\n      dup4\n        /* \"#utility.yul\":10110:10193   */\n      tag_164\n      jump\t// in\n    tag_300:\n        /* \"#utility.yul\":10103:10193   */\n      swap2\n      pop\n        /* \"#utility.yul\":10202:10295   */\n      tag_301\n        /* \"#utility.yul\":10291:10294   */\n      dup3\n        /* \"#utility.yul\":10202:10295   */\n      tag_165\n      jump\t// in\n    tag_301:\n        /* \"#utility.yul\":10320:10321   */\n      0x00\n        /* \"#utility.yul\":10315:10318   */\n      dup3\n        /* \"#utility.yul\":10311:10322   */\n      add\n        /* \"#utility.yul\":10304:10322   */\n      swap1\n      pop\n        /* \"#utility.yul\":9930:10328   */\n      swap2\n      swap1\n      pop\n      jump\t// out\n        /* \"#utility.yul\":10334:10713   */\n    tag_67:\n        /* \"#utility.yul\":10518:10521   */\n      0x00\n        /* \"#utility.yul\":10540:10687   */\n      tag_303\n        /* \"#utility.yul\":10683:10686   */\n      dup3\n        /* \"#utility.yul\":10540:10687   */\n      tag_166\n      jump\t// in\n    tag_303:\n        /* \"#utility.yul\":10533:10687   */\n      swap2\n      pop\n        /* \"#utility.yul\":10704:10707   */\n      dup2\n        /* \"#utility.yul\":10697:10707   */\n      swap1\n      pop\n        /* \"#utility.yul\":10334:10713   */\n      swap2\n      swap1\n      pop\n      jump\t// out\n        /* \"#utility.yul\":10719:10891   */\n    tag_167:\n        /* \"#utility.yul\":10859:10883   */\n      0x726566756e64207472616e73666572206661696c656400000000000000000000\n        /* \"#utility.yul\":10855:10856   */\n      0x00\n        /* \"#utility.yul\":10847:10853   */\n      dup3\n        /* \"#utility.yul\":10843:10857   */\n      add\n        /* \"#utility.yul\":10836:10884   */\n      mstore\n        /* \"#utility.yul\":10719:10891   */\n      pop\n      jump\t// out\n        /* \"#utility.yul\":10897:11263   */\n    tag_168:\n        /* \"#utility.yul\":11039:11042   */\n      0x00\n        /* \"#utility.yul\":11060:11127   */\n      tag_306\n        /* \"#utility.yul\":11124:11126   */\n      0x16\n        /* \"#utility.yul\":11119:11122   */\n      dup4\n        /* \"#utility.yul\":11060:11127   */\n      tag_156\n      jump\t// in\n    tag_306:\n        /* \"#utility.yul\":11053:11127   */\n      swap2\n      pop\n        /* \"#utility.yul\":11136:11229   */\n      tag_307\n        /* \"#utility.yul\":11225:11228   */\n      dup3\n        /* \"#utility.yul\":11136:11229   */\n      tag_167\n      jump\t// in\n    tag_307:\n        /* \"#utility.yul\":11254:11256   */\n      0x20\n        /* \"#utility.yul\":11249:11252   */\n      dup3\n        /* \"#utility.yul\":11245:11257   */\n      add\n        /* \"#utility.yul\":11238:11257   */\n      swap1\n      pop\n        /* \"#utility.yul\":10897:11263   */\n      swap2\n      swap1\n      pop\n      jump\t// out\n        /* \"#utility.yul\":11269:11688   */\n    tag_73:\n        /* \"#utility.yul\":11435:11439   */\n      0x00\n        /* \"#utility.yul\":11473:11475   */\n      0x20\n        /* \"#utility.yul\":11462:11471   */\n      dup3\n        /* \"#utility.yul\":11458:11476   */\n      add\n        /* \"#utility.yul\":11450:11476   */\n      swap1\n      pop\n        /* \"#utility.yul\":11522:11531   */\n      dup2\n        /* \"#utility.yul\":11516:11520   */\n      dup2\n        /* \"#utility.yul\":11512:11532   */\n      sub\n        /* \"#utility.yul\":11508:11509   */\n      0x00\n        /* \"#utility.yul\":11497:11506   */\n      dup4\n        /* \"#utility.yul\":11493:11510   */\n      add\n        /* \"#utility.yul\":11486:11533   */\n      mstore\n        /* \"#utility.yul\":11550:11681   */\n      tag_309\n        /* \"#utility.yul\":11676:11680   */\n      dup2\n        /* \"#utility.yul\":11550:11681   */\n      tag_168\n      jump\t// in\n    tag_309:\n        /* \"#utility.yul\":11542:11681   */\n      swap1\n      pop\n        /* \"#utility.yul\":11269:11688   */\n      swap2\n      swap1\n      pop\n      jump\t// out\n        /* \"#utility.yul\":11694:11916   */\n    tag_75:\n        /* \"#utility.yul\":11787:11791   */\n      0x00\n        /* \"#utility.yul\":11825:11827   */\n      0x20\n        /* \"#utility.yul\":11814:11823   */\n      dup3\n        /* \"#utility.yul\":11810:11828   */\n      add\n        /* \"#utility.yul\":11802:11828   */\n      swap1\n      pop\n        /* \"#utility.yul\":11838:11909   */\n      tag_311\n        /* \"#utility.yul\":11906:11907   */\n      0x00\n        /* \"#utility.yul\":11895:11904   */\n      dup4\n        /* \"#utility.yul\":11891:11908   */\n      add\n        /* \"#utility.yul\":11882:11888   */\n      dup5\n        /* \"#utility.yul\":11838:11909   */\n      tag_143\n      jump\t// in\n    tag_311:\n        /* \"#utility.yul\":11694:11916   */\n      swap3\n      swap2\n      pop\n      pop\n      jump\t// out\n        /* \"#utility.yul\":11922:12082   */\n    tag_169:\n        /* \"#utility.yul\":12062:12074   */\n      0x7061636b657449643d3000000000000000000000000000000000000000000000\n        /* \"#utility.yul\":12058:12059   */\n      0x00\n        /* \"#utility.yul\":12050:12056   */\n      dup3\n        /* \"#utility.yul\":12046:12060   */\n      add\n        /* \"#utility.yul\":12039:12075   */\n      mstore\n        /* \"#utility.yul\":11922:12082   */\n      pop\n      jump\t// out\n        /* \"#utility.yul\":12088:12454   */\n    tag_170:\n        /* \"#utility.yul\":12230:12233   */\n      0x00\n        /* \"#utility.yul\":12251:12318   */\n      tag_314\n        /* \"#utility.yul\":12315:12317   */\n      0x0a\n        /* \"#utility.yul\":12310:12313   */\n      dup4\n        /* \"#utility.yul\":12251:12318   */\n      tag_156\n      jump\t// in\n    tag_314:\n        /* \"#utility.yul\":12244:12318   */\n      swap2\n      pop\n        /* \"#utility.yul\":12327:12420   */\n      tag_315\n        /* \"#utility.yul\":12416:12419   */\n      dup3\n        /* \"#utility.yul\":12327:12420   */\n      tag_169\n      jump\t// in\n    tag_315:\n        /* \"#utility.yul\":12445:12447   */\n      0x20\n        /* \"#utility.yul\":12440:12443   */\n      dup3\n        /* \"#utility.yul\":12436:12448   */\n      add\n        /* \"#utility.yul\":12429:12448   */\n      swap1\n      pop\n        /* \"#utility.yul\":12088:12454   */\n      swap2\n      swap1\n      pop\n      jump\t// out\n        /* \"#utility.yul\":12460:12879   */\n    tag_79:\n        /* \"#utility.yul\":12626:12630   */\n      0x00\n        /* \"#utility.yul\":12664:12666   */\n      0x20\n        /* \"#utility.yul\":12653:12662   */\n      dup3\n        /* \"#utility.yul\":12649:12667   */\n      add\n        /* \"#utility.yul\":12641:12667   */\n      swap1\n      pop\n        /* \"#utility.yul\":12713:12722   */\n      dup2\n        /* \"#utility.yul\":12707:12711   */\n      dup2\n        /* \"#utility.yul\":12703:12723   */\n      sub\n        /* \"#utility.yul\":12699:12700   */\n      0x00\n        /* \"#utility.yul\":12688:12697   */\n      dup4\n        /* \"#utility.yul\":12684:12701   */\n      add\n        /* \"#utility.yul\":12677:12724   */\n      mstore\n        /* \"#utility.yul\":12741:12872   */\n      tag_317\n        /* \"#utility.yul\":12867:12871   */\n      dup2\n        /* \"#utility.yul\":12741:12872   */\n      tag_170\n      jump\t// in\n    tag_317:\n        /* \"#utility.yul\":12733:12872   */\n      swap1\n      pop\n        /* \"#utility.yul\":12460:12879   */\n      swap2\n      swap1\n      pop\n      jump\t// out\n        /* \"#utility.yul\":12885:13048   */\n    tag_171:\n        /* \"#utility.yul\":13025:13040   */\n      0x696e76616c696420636f756e7400000000000000000000000000000000000000\n        /* \"#utility.yul\":13021:13022   */\n      0x00\n        /* \"#utility.yul\":13013:13019   */\n      dup3\n        /* \"#utility.yul\":13009:13023   */\n      add\n        /* \"#utility.yul\":13002:13041   */\n      mstore\n        /* \"#utility.yul\":12885:13048   */\n      pop\n      jump\t// out\n        /* \"#utility.yul\":13054:13420   */\n    tag_172:\n        /* \"#utility.yul\":13196:13199   */\n      0x00\n        /* \"#utility.yul\":13217:13284   */\n      tag_320\n        /* \"#utility.yul\":13281:13283   */\n      0x0d\n        /* \"#utility.yul\":13276:13279   */\n      dup4\n        /* \"#utility.yul\":13217:13284   */\n      tag_156\n      jump\t// in\n    tag_320:\n        /* \"#utility.yul\":13210:13284   */\n      swap2\n      pop\n        /* \"#utility.yul\":13293:13386   */\n      tag_321\n        /* \"#utility.yul\":13382:13385   */\n      dup3\n        /* \"#utility.yul\":13293:13386   */\n      tag_171\n      jump\t// in\n    tag_321:\n        /* \"#utility.yul\":13411:13413   */\n      0x20\n        /* \"#utility.yul\":13406:13409   */\n      dup3\n        /* \"#utility.yul\":13402:13414   */\n      add\n        /* \"#utility.yul\":13395:13414   */\n      swap1\n      pop\n        /* \"#utility.yul\":13054:13420   */\n      swap2\n      swap1\n      pop\n      jump\t// out\n        /* \"#utility.yul\":13426:13845   */\n    tag_83:\n        /* \"#utility.yul\":13592:13596   */\n      0x00\n        /* \"#utility.yul\":13630:13632   */\n      0x20\n        /* \"#utility.yul\":13619:13628   */\n      dup3\n        /* \"#utility.yul\":13615:13633   */\n      add\n        /* \"#utility.yul\":13607:13633   */\n      swap1\n      pop\n        /* \"#utility.yul\":13679:13688   */\n      dup2\n        /* \"#utility.yul\":13673:13677   */\n      dup2\n        /* \"#utility.yul\":13669:13689   */\n      sub\n        /* \"#utility.yul\":13665:13666   */\n      0x00\n        /* \"#utility.yul\":13654:13663   */\n      dup4\n        /* \"#utility.yul\":13650:13667   */\n      add\n        /* \"#utility.yul\":13643:13690   */\n      mstore\n        /* \"#utility.yul\":13707:13838   */\n      tag_323\n        /* \"#utility.yul\":13833:13837   */\n      dup2\n        /* \"#utility.yul\":13707:13838   */\n      tag_172\n      jump\t// in\n    tag_323:\n        /* \"#utility.yul\":13699:13838   */\n      swap1\n      pop\n        /* \"#utility.yul\":13426:13845   */\n      swap2\n      swap1\n      pop\n      jump\t// out\n        /* \"#utility.yul\":13851:14008   */\n    tag_173:\n        /* \"#utility.yul\":13991:14000   */\n      0x76616c75653d3000000000000000000000000000000000000000000000000000\n        /* \"#utility.yul\":13987:13988   */\n      0x00\n        /* \"#utility.yul\":13979:13985   */\n      dup3\n        /* \"#utility.yul\":13975:13989   */\n      add\n        /* \"#utility.yul\":13968:14001   */\n      mstore\n        /* \"#utility.yul\":13851:14008   */\n      pop\n      jump\t// out\n        /* \"#utility.yul\":14014:14379   */\n    tag_174:\n        /* \"#utility.yul\":14156:14159   */\n      0x00\n        /* \"#utility.yul\":14177:14243   */\n      tag_326\n        /* \"#utility.yul\":14241:14242   */\n      0x07\n        /* \"#utility.yul\":14236:14239   */\n      dup4\n        /* \"#utility.yul\":14177:14243   */\n      tag_156\n      jump\t// in\n    tag_326:\n        /* \"#utility.yul\":14170:14243   */\n      swap2\n      pop\n        /* \"#utility.yul\":14252:14345   */\n      tag_327\n        /* \"#utility.yul\":14341:14344   */\n      dup3\n        /* \"#utility.yul\":14252:14345   */\n      tag_173\n      jump\t// in\n    tag_327:\n        /* \"#utility.yul\":14370:14372   */\n      0x20\n        /* \"#utility.yul\":14365:14368   */\n      dup3\n        /* \"#utility.yul\":14361:14373   */\n      add\n        /* \"#utility.yul\":14354:14373   */\n      swap1\n      pop\n        /* \"#utility.yul\":14014:14379   */\n      swap2\n      swap1\n      pop\n      jump\t// out\n        /* \"#utility.yul\":14385:14804   */\n    tag_86:\n        /* \"#utility.yul\":14551:14555   */\n      0x00\n        /* \"#utility.yul\":14589:14591   */\n      0x20\n        /* \"#utility.yul\":14578:14587   */\n      dup3\n        /* \"#utility.yul\":14574:14592   */\n      add\n        /* \"#utility.yul\":14566:14592   */\n      swap1\n      pop\n        /* \"#utility.yul\":14638:14647   */\n      dup2\n        /* \"#utility.yul\":14632:14636   */\n      dup2\n        /* \"#utility.yul\":14628:14648   */\n      sub\n        /* \"#utility.yul\":14624:14625   */\n      0x00\n        /* \"#utility.yul\":14613:14622   */\n      dup4\n        /* \"#utility.yul\":14609:14626   */\n      add\n        /* \"#utility.yul\":14602:14649   */\n      mstore\n        /* \"#utility.yul\":14666:14797   */\n      tag_329\n        /* \"#utility.yul\":14792:14796   */\n      dup2\n        /* \"#utility.yul\":14666:14797   */\n      tag_174\n      jump\t// in\n    tag_329:\n        /* \"#utility.yul\":14658:14797   */\n      swap1\n      pop\n        /* \"#utility.yul\":14385:14804   */\n      swap2\n      swap1\n      pop\n      jump\t// out\n        /* \"#utility.yul\":14810:14967   */\n    tag_175:\n        /* \"#utility.yul\":14950:14959   */\n      0x6578706972656400000000000000000000000000000000000000000000000000\n        /* \"#utility.yul\":14946:14947   */\n      0x00\n        /* \"#utility.yul\":14938:14944   */\n      dup3\n        /* \"#utility.yul\":14934:14948   */\n      add\n        /* \"#utility.yul\":14927:14960   */\n      mstore\n        /* \"#utility.yul\":14810:14967   */\n      pop\n      jump\t// out\n        /* \"#utility.yul\":14973:15338   */\n    tag_176:\n        /* \"#utility.yul\":15115:15118   */\n      0x00\n        /* \"#utility.yul\":15136:15202   */\n      tag_332\n        /* \"#utility.yul\":15200:15201   */\n      0x07\n        /* \"#utility.yul\":15195:15198   */\n      dup4\n        /* \"#utility.yul\":15136:15202   */\n      tag_156\n      jump\t// in\n    tag_332:\n        /* \"#utility.yul\":15129:15202   */\n      swap2\n      pop\n        /* \"#utility.yul\":15211:15304   */\n      tag_333\n        /* \"#utility.yul\":15300:15303   */\n      dup3\n        /* \"#utility.yul\":15211:15304   */\n      tag_175\n      jump\t// in\n    tag_333:\n        /* \"#utility.yul\":15329:15331   */\n      0x20\n        /* \"#utility.yul\":15324:15327   */\n      dup3\n        /* \"#utility.yul\":15320:15332   */\n      add\n        /* \"#utility.yul\":15313:15332   */\n      swap1\n      pop\n        /* \"#utility.yul\":14973:15338   */\n      swap2\n      swap1\n      pop\n      jump\t// out\n        /* \"#utility.yul\":15344:15763   */\n    tag_89:\n        /* \"#utility.yul\":15510:15514   */\n      0x00\n        /* \"#utility.yul\":15548:15550   */\n      0x20\n        /* \"#utility.yul\":15537:15546   */\n      dup3\n        /* \"#utility.yul\":15533:15551   */\n      add\n        /* \"#utility.yul\":15525:15551   */\n      swap1\n      pop\n        /* \"#utility.yul\":15597:15606   */\n      dup2\n        /* \"#utility.yul\":15591:15595   */\n      dup2\n        /* \"#utility.yul\":15587:15607   */\n      sub\n        /* \"#utility.yul\":15583:15584   */\n      0x00\n        /* \"#utility.yul\":15572:15581   */\n      dup4\n        /* \"#utility.yul\":15568:15585   */\n      add\n        /* \"#utility.yul\":15561:15608   */\n      mstore\n        /* \"#utility.yul\":15625:15756   */\n      tag_335\n        /* \"#utility.yul\":15751:15755   */\n      dup2\n        /* \"#utility.yul\":15625:15756   */\n      tag_176\n      jump\t// in\n    tag_335:\n        /* \"#utility.yul\":15617:15756   */\n      swap1\n      pop\n        /* \"#utility.yul\":15344:15763   */\n      swap2\n      swap1\n      pop\n      jump\t// out\n        /* \"#utility.yul\":15769:15960   */\n    tag_91:\n        /* \"#utility.yul\":15809:15812   */\n      0x00\n        /* \"#utility.yul\":15828:15848   */\n      tag_337\n        /* \"#utility.yul\":15846:15847   */\n      dup3\n        /* \"#utility.yul\":15828:15848   */\n      tag_142\n      jump\t// in\n    tag_337:\n        /* \"#utility.yul\":15823:15848   */\n      swap2\n      pop\n        /* \"#utility.yul\":15862:15882   */\n      tag_338\n        /* \"#utility.yul\":15880:15881   */\n      dup4\n        /* \"#utility.yul\":15862:15882   */\n      tag_142\n      jump\t// in\n    tag_338:\n        /* \"#utility.yul\":15857:15882   */\n      swap3\n      pop\n        /* \"#utility.yul\":15905:15906   */\n      dup3\n        /* \"#utility.yul\":15902:15903   */\n      dup3\n        /* \"#utility.yul\":15898:15907   */\n      add\n        /* \"#utility.yul\":15891:15907   */\n      swap1\n      pop\n        /* \"#utility.yul\":15926:15929   */\n      dup1\n        /* \"#utility.yul\":15923:15924   */\n      dup3\n        /* \"#utility.yul\":15920:15930   */\n      gt\n        /* \"#utility.yul\":15917:15953   */\n      iszero\n      tag_339\n      jumpi\n        /* \"#utility.yul\":15933:15951   */\n      tag_340\n      tag_163\n      jump\t// in\n    tag_340:\n        /* \"#utility.yul\":15917:15953   */\n    tag_339:\n        /* \"#utility.yul\":15769:15960   */\n      swap3\n      swap2\n      pop\n      pop\n      jump\t// out\n        /* \"#utility.yul\":15966:16131   */\n    tag_177:\n        /* \"#utility.yul\":16106:16123   */\n      0x6578706972657320746f6f206661720000000000000000000000000000000000\n        /* \"#utility.yul\":16102:16103   */\n      0x00\n        /* \"#utility.yul\":16094:16100   */\n      dup3\n        /* \"#utility.yul\":16090:16104   */\n      add\n        /* \"#utility.yul\":16083:16124   */\n      mstore\n        /* \"#utility.yul\":15966:16131   */\n      pop\n      jump\t// out\n        /* \"#utility.yul\":16137:16503   */\n    tag_178:\n        /* \"#utility.yul\":16279:16282   */\n      0x00\n        /* \"#utility.yul\":16300:16367   */\n      tag_343\n        /* \"#utility.yul\":16364:16366   */\n      0x0f\n        /* \"#utility.yul\":16359:16362   */\n      dup4\n        /* \"#utility.yul\":16300:16367   */\n      tag_156\n      jump\t// in\n    tag_343:\n        /* \"#utility.yul\":16293:16367   */\n      swap2\n      pop\n        /* \"#utility.yul\":16376:16469   */\n      tag_344\n        /* \"#utility.yul\":16465:16468   */\n      dup3\n        /* \"#utility.yul\":16376:16469   */\n      tag_177\n      jump\t// in\n    tag_344:\n        /* \"#utility.yul\":16494:16496   */\n      0x20\n        /* \"#utility.yul\":16489:16492   */\n      dup3\n        /* \"#utility.yul\":16485:16497   */\n      add\n        /* \"#utility.yul\":16478:16497   */\n      swap1\n      pop\n        /* \"#utility.yul\":16137:16503   */\n      swap2\n      swap1\n      pop\n      jump\t// out\n        /* \"#utility.yul\":16509:16928   */\n    tag_94:\n        /* \"#utility.yul\":16675:16679   */\n      0x00\n        /* \"#utility.yul\":16713:16715   */\n      0x20\n        /* \"#utility.yul\":16702:16711   */\n      dup3\n        /* \"#utility.yul\":16698:16716   */\n      add\n        /* \"#utility.yul\":16690:16716   */\n      swap1\n      pop\n        /* \"#utility.yul\":16762:16771   */\n      dup2\n        /* \"#utility.yul\":16756:16760   */\n      dup2\n        /* \"#utility.yul\":16752:16772   */\n      sub\n        /* \"#utility.yul\":16748:16749   */\n      0x00\n        /* \"#utility.yul\":16737:16746   */\n      dup4\n        /* \"#utility.yul\":16733:16750   */\n      add\n        /* \"#utility.yul\":16726:16773   */\n      mstore\n        /* \"#utility.yul\":16790:16921   */\n      tag_346\n        /* \"#utility.yul\":16916:16920   */\n      dup2\n        /* \"#utility.yul\":16790:16921   */\n      tag_178\n      jump\t// in\n    tag_346:\n        /* \"#utility.yul\":16782:16921   */\n      swap1\n      pop\n        /* \"#utility.yul\":16509:16928   */\n      swap2\n      swap1\n      pop\n      jump\t// out\n        /* \"#utility.yul\":16934:17090   */\n    tag_179:\n        /* \"#utility.yul\":17074:17082   */\n      0x6578697374730000000000000000000000000000000000000000000000000000\n        /* \"#utility.yul\":17070:17071   */\n      0x00\n        /* \"#utility.yul\":17062:17068   */\n      dup3\n        /* \"#utility.yul\":17058:17072   */\n      add\n        /* \"#utility.yul\":17051:17083   */\n      mstore\n        /* \"#utility.yul\":16934:17090   */\n      pop\n      jump\t// out\n        /* \"#utility.yul\":17096:17461   */\n    tag_180:\n        /* \"#utility.yul\":17238:17241   */\n      0x00\n        /* \"#utility.yul\":17259:17325   */\n      tag_349\n        /* \"#utility.yul\":17323:17324   */\n      0x06\n        /* \"#utility.yul\":17318:17321   */\n      dup4\n        /* \"#utility.yul\":17259:17325   */\n      tag_156\n      jump\t// in\n    tag_349:\n        /* \"#utility.yul\":17252:17325   */\n      swap2\n      pop\n        /* \"#utility.yul\":17334:17427   */\n      tag_350\n        /* \"#utility.yul\":17423:17426   */\n      dup3\n        /* \"#utility.yul\":17334:17427   */\n      tag_179\n      jump\t// in\n    tag_350:\n        /* \"#utility.yul\":17452:17454   */\n      0x20\n        /* \"#utility.yul\":17447:17450   */\n      dup3\n        /* \"#utility.yul\":17443:17455   */\n      add\n        /* \"#utility.yul\":17436:17455   */\n      swap1\n      pop\n        /* \"#utility.yul\":17096:17461   */\n      swap2\n      swap1\n      pop\n      jump\t// out\n        /* \"#utility.yul\":17467:17886   */\n    tag_97:\n        /* \"#utility.yul\":17633:17637   */\n      0x00\n        /* \"#utility.yul\":17671:17673   */\n      0x20\n        /* \"#utility.yul\":17660:17669   */\n      dup3\n        /* \"#utility.yul\":17656:17674   */\n      add\n        /* \"#utility.yul\":17648:17674   */\n      swap1\n      pop\n        /* \"#utility.yul\":17720:17729   */\n      dup2\n        /* \"#utility.yul\":17714:17718   */\n      dup2\n        /* \"#utility.yul\":17710:17730   */\n      sub\n        /* \"#utility.yul\":17706:17707   */\n      0x00\n        /* \"#utility.yul\":17695:17704   */\n      dup4\n        /* \"#utility.yul\":17691:17708   */\n      add\n        /* \"#utility.yul\":17684:17731   */\n      mstore\n        /* \"#utility.yul\":17748:17879   */\n      tag_352\n        /* \"#utility.yul\":17874:17878   */\n      dup2\n        /* \"#utility.yul\":17748:17879   */\n      tag_180\n      jump\t// in\n    tag_352:\n        /* \"#utility.yul\":17740:17879   */\n      swap1\n      pop\n        /* \"#utility.yul\":17467:17886   */\n      swap2\n      swap1\n      pop\n      jump\t// out\n        /* \"#utility.yul\":17892:18072   */\n    tag_181:\n        /* \"#utility.yul\":17940:18017   */\n      0x4e487b7100000000000000000000000000000000000000000000000000000000\n        /* \"#utility.yul\":17937:17938   */\n      0x00\n        /* \"#utility.yul\":17930:18018   */\n      mstore\n        /* \"#utility.yul\":18037:18041   */\n      0x12\n        /* \"#utility.yul\":18034:18035   */\n      0x04\n        /* \"#utility.yul\":18027:18042   */\n      mstore\n        /* \"#utility.yul\":18061:18065   */\n      0x24\n        /* \"#utility.yul\":18058:18059   */\n      0x00\n        /* \"#utility.yul\":18051:18066   */\n      revert\n        /* \"#utility.yul\":18078:18254   */\n    tag_99:\n        /* \"#utility.yul\":18110:18111   */\n      0x00\n        /* \"#utility.yul\":18127:18147   */\n      tag_355\n        /* \"#utility.yul\":18145:18146   */\n      dup3\n        /* \"#utility.yul\":18127:18147   */\n      tag_142\n      jump\t// in\n    tag_355:\n        /* \"#utility.yul\":18122:18147   */\n      swap2\n      pop\n        /* \"#utility.yul\":18161:18181   */\n      tag_356\n        /* \"#utility.yul\":18179:18180   */\n      dup4\n        /* \"#utility.yul\":18161:18181   */\n      tag_142\n      jump\t// in\n    tag_356:\n        /* \"#utility.yul\":18156:18181   */\n      swap3\n      pop\n        /* \"#utility.yul\":18200:18201   */\n      dup3\n        /* \"#utility.yul\":18190:18225   */\n      tag_357\n      jumpi\n        /* \"#utility.yul\":18205:18223   */\n      tag_358\n      tag_181\n      jump\t// in\n    tag_358:\n        /* \"#utility.yul\":18190:18225   */\n    tag_357:\n        /* \"#utility.yul\":18246:18247   */\n      dup3\n        /* \"#utility.yul\":18243:18244   */\n      dup3\n        /* \"#utility.yul\":18239:18248   */\n      mod\n        /* \"#utility.yul\":18234:18248   */\n      swap1\n      pop\n        /* \"#utility.yul\":18078:18254   */\n      swap3\n      swap2\n      pop\n      pop\n      jump\t// out\n        /* \"#utility.yul\":18260:18423   */\n    tag_182:\n        /* \"#utility.yul\":18400:18415   */\n      0x6e6f7420646976697369626c6500000000000000000000000000000000000000\n        /* \"#utility.yul\":18396:18397   */\n      0x00\n        /* \"#utility.yul\":18388:18394   */\n      dup3\n        /* \"#utility.yul\":18384:18398   */\n      add\n        /* \"#utility.yul\":18377:18416   */\n      mstore\n        /* \"#utility.yul\":18260:18423   */\n      pop\n      jump\t// out\n        /* \"#utility.yul\":18429:18795   */\n    tag_183:\n        /* \"#utility.yul\":18571:18574   */\n      0x00\n        /* \"#utility.yul\":18592:18659   */\n      tag_361\n        /* \"#utility.yul\":18656:18658   */\n      0x0d\n        /* \"#utility.yul\":18651:18654   */\n      dup4\n        /* \"#utility.yul\":18592:18659   */\n      tag_156\n      jump\t// in\n    tag_361:\n        /* \"#utility.yul\":18585:18659   */\n      swap2\n      pop\n        /* \"#utility.yul\":18668:18761   */\n      tag_362\n        /* \"#utility.yul\":18757:18760   */\n      dup3\n        /* \"#utility.yul\":18668:18761   */\n      tag_182\n      jump\t// in\n    tag_362:\n        /* \"#utility.yul\":18786:18788   */\n      0x20\n        /* \"#utility.yul\":18781:18784   */\n      dup3\n        /* \"#utility.yul\":18777:18789   */\n      add\n        /* \"#utility.yul\":18770:18789   */\n      swap1\n      pop\n        /* \"#utility.yul\":18429:18795   */\n      swap2\n      swap1\n      pop\n      jump\t// out\n        /* \"#utility.yul\":18801:19220   */\n    tag_102:\n        /* \"#utility.yul\":18967:18971   */\n      0x00\n        /* \"#utility.yul\":19005:19007   */\n      0x20\n        /* \"#utility.yul\":18994:19003   */\n      dup3\n        /* \"#utility.yul\":18990:19008   */\n      add\n        /* \"#utility.yul\":18982:19008   */\n      swap1\n      pop\n        /* \"#utility.yul\":19054:19063   */\n      dup2\n        /* \"#utility.yul\":19048:19052   */\n      dup2\n        /* \"#utility.yul\":19044:19064   */\n      sub\n        /* \"#utility.yul\":19040:19041   */\n      0x00\n        /* \"#utility.yul\":19029:19038   */\n      dup4\n        /* \"#utility.yul\":19025:19042   */\n      add\n        /* \"#utility.yul\":19018:19065   */\n      mstore\n        /* \"#utility.yul\":19082:19213   */\n      tag_364\n        /* \"#utility.yul\":19208:19212   */\n      dup2\n        /* \"#utility.yul\":19082:19213   */\n      tag_183\n      jump\t// in\n    tag_364:\n        /* \"#utility.yul\":19074:19213   */\n      swap1\n      pop\n        /* \"#utility.yul\":18801:19220   */\n      swap2\n      swap1\n      pop\n      jump\t// out\n        /* \"#utility.yul\":19226:19411   */\n    tag_104:\n        /* \"#utility.yul\":19266:19267   */\n      0x00\n        /* \"#utility.yul\":19283:19303   */\n      tag_366\n        /* \"#utility.yul\":19301:19302   */\n      dup3\n        /* \"#utility.yul\":19283:19303   */\n      tag_142\n      jump\t// in\n    tag_366:\n        /* \"#utility.yul\":19278:19303   */\n      swap2\n      pop\n        /* \"#utility.yul\":19317:19337   */\n      tag_367\n        /* \"#utility.yul\":19335:19336   */\n      dup4\n        /* \"#utility.yul\":19317:19337   */\n      tag_142\n      jump\t// in\n    tag_367:\n        /* \"#utility.yul\":19312:19337   */\n      swap3\n      pop\n        /* \"#utility.yul\":19356:19357   */\n      dup3\n        /* \"#utility.yul\":19346:19381   */\n      tag_368\n      jumpi\n        /* \"#utility.yul\":19361:19379   */\n      tag_369\n      tag_181\n      jump\t// in\n    tag_369:\n        /* \"#utility.yul\":19346:19381   */\n    tag_368:\n        /* \"#utility.yul\":19403:19404   */\n      dup3\n        /* \"#utility.yul\":19400:19401   */\n      dup3\n        /* \"#utility.yul\":19396:19405   */\n      div\n        /* \"#utility.yul\":19391:19405   */\n      swap1\n      pop\n        /* \"#utility.yul\":19226:19411   */\n      swap3\n      swap2\n      pop\n      pop\n      jump\t// out\n        /* \"#utility.yul\":19417:19851   */\n    tag_106:\n        /* \"#utility.yul\":19562:19566   */\n      0x00\n        /* \"#utility.yul\":19600:19602   */\n      0x60\n        /* \"#utility.yul\":19589:19598   */\n      dup3\n        /* \"#utility.yul\":19585:19603   */\n      add\n        /* \"#utility.yul\":19577:19603   */\n      swap1\n      pop\n        /* \"#utility.yul\":19613:19684   */\n      tag_371\n        /* \"#utility.yul\":19681:19682   */\n      0x00\n        /* \"#utility.yul\":19670:19679   */\n      dup4\n        /* \"#utility.yul\":19666:19683   */\n      add\n        /* \"#utility.yul\":19657:19663   */\n      dup7\n        /* \"#utility.yul\":19613:19684   */\n      tag_143\n      jump\t// in\n    tag_371:\n        /* \"#utility.yul\":19694:19764   */\n      tag_372\n        /* \"#utility.yul\":19760:19762   */\n      0x20\n        /* \"#utility.yul\":19749:19758   */\n      dup4\n        /* \"#utility.yul\":19745:19763   */\n      add\n        /* \"#utility.yul\":19736:19742   */\n      dup6\n        /* \"#utility.yul\":19694:19764   */\n      tag_145\n      jump\t// in\n    tag_372:\n        /* \"#utility.yul\":19774:19844   */\n      tag_373\n        /* \"#utility.yul\":19840:19842   */\n      0x40\n        /* \"#utility.yul\":19829:19838   */\n      dup4\n        /* \"#utility.yul\":19825:19843   */\n      add\n        /* \"#utility.yul\":19816:19822   */\n      dup5\n        /* \"#utility.yul\":19774:19844   */\n      tag_147\n      jump\t// in\n    tag_373:\n        /* \"#utility.yul\":19417:19851   */\n      swap5\n      swap4\n      pop\n      pop\n      pop\n      pop\n      jump\t// out\n        /* \"#utility.yul\":19857:20016   */\n    tag_184:\n        /* \"#utility.yul\":19997:20008   */\n      0x6e6f7420666f756e640000000000000000000000000000000000000000000000\n        /* \"#utility.yul\":19993:19994   */\n      0x00\n        /* \"#utility.yul\":19985:19991   */\n      dup3\n        /* \"#utility.yul\":19981:19995   */\n      add\n        /* \"#utility.yul\":19974:20009   */\n      mstore\n        /* \"#utility.yul\":19857:20016   */\n      pop\n      jump\t// out\n        /* \"#utility.yul\":20022:20387   */\n    tag_185:\n        /* \"#utility.yul\":20164:20167   */\n      0x00\n        /* \"#utility.yul\":20185:20251   */\n      tag_376\n        /* \"#utility.yul\":20249:20250   */\n      0x09\n        /* \"#utility.yul\":20244:20247   */\n      dup4\n        /* \"#utility.yul\":20185:20251   */\n      tag_156\n      jump\t// in\n    tag_376:\n        /* \"#utility.yul\":20178:20251   */\n      swap2\n      pop\n        /* \"#utility.yul\":20260:20353   */\n      tag_377\n        /* \"#utility.yul\":20349:20352   */\n      dup3\n        /* \"#utility.yul\":20260:20353   */\n      tag_184\n      jump\t// in\n    tag_377:\n        /* \"#utility.yul\":20378:20380   */\n      0x20\n        /* \"#utility.yul\":20373:20376   */\n      dup3\n        /* \"#utility.yul\":20369:20381   */\n      add\n        /* \"#utility.yul\":20362:20381   */\n      swap1\n      pop\n        /* \"#utility.yul\":20022:20387   */\n      swap2\n      swap1\n      pop\n      jump\t// out\n        /* \"#utility.yul\":20393:20812   */\n    tag_111:\n        /* \"#utility.yul\":20559:20563   */\n      0x00\n        /* \"#utility.yul\":20597:20599   */\n      0x20\n        /* \"#utility.yul\":20586:20595   */\n      dup3\n        /* \"#utility.yul\":20582:20600   */\n      add\n        /* \"#utility.yul\":20574:20600   */\n      swap1\n      pop\n        /* \"#utility.yul\":20646:20655   */\n      dup2\n        /* \"#utility.yul\":20640:20644   */\n      dup2\n        /* \"#utility.yul\":20636:20656   */\n      sub\n        /* \"#utility.yul\":20632:20633   */\n      0x00\n        /* \"#utility.yul\":20621:20630   */\n      dup4\n        /* \"#utility.yul\":20617:20634   */\n      add\n        /* \"#utility.yul\":20610:20657   */\n      mstore\n        /* \"#utility.yul\":20674:20805   */\n      tag_379\n        /* \"#utility.yul\":20800:20804   */\n      dup2\n        /* \"#utility.yul\":20674:20805   */\n      tag_185\n      jump\t// in\n    tag_379:\n        /* \"#utility.yul\":20666:20805   */\n      swap1\n      pop\n        /* \"#utility.yul\":20393:20812   */\n      swap2\n      swap1\n      pop\n      jump\t// out\n        /* \"#utility.yul\":20818:20976   */\n    tag_186:\n        /* \"#utility.yul\":20958:20968   */\n      0x726566756e646564000000000000000000000000000000000000000000000000\n        /* \"#utility.yul\":20954:20955   */\n      0x00\n        /* \"#utility.yul\":20946:20952   */\n      dup3\n        /* \"#utility.yul\":20942:20956   */\n      add\n        /* \"#utility.yul\":20935:20969   */\n      mstore\n        /* \"#utility.yul\":20818:20976   */\n      pop\n      jump\t// out\n        /* \"#utility.yul\":20982:21347   */\n    tag_187:\n        /* \"#utility.yul\":21124:21127   */\n      0x00\n        /* \"#utility.yul\":21145:21211   */\n      tag_382\n        /* \"#utility.yul\":21209:21210   */\n      0x08\n        /* \"#utility.yul\":21204:21207   */\n      dup4\n        /* \"#utility.yul\":21145:21211   */\n      tag_156\n      jump\t// in\n    tag_382:\n        /* \"#utility.yul\":21138:21211   */\n      swap2\n      pop\n        /* \"#utility.yul\":21220:21313   */\n      tag_383\n        /* \"#utility.yul\":21309:21312   */\n      dup3\n        /* \"#utility.yul\":21220:21313   */\n      tag_186\n      jump\t// in\n    tag_383:\n        /* \"#utility.yul\":21338:21340   */\n      0x20\n        /* \"#utility.yul\":21333:21336   */\n      dup3\n        /* \"#utility.yul\":21329:21341   */\n      add\n        /* \"#utility.yul\":21322:21341   */\n      swap1\n      pop\n        /* \"#utility.yul\":20982:21347   */\n      swap2\n      swap1\n      pop\n      jump\t// out\n        /* \"#utility.yul\":21353:21772   */\n    tag_114:\n        /* \"#utility.yul\":21519:21523   */\n      0x00\n        /* \"#utility.yul\":21557:21559   */\n      0x20\n        /* \"#utility.yul\":21546:21555   */\n      dup3\n        /* \"#utility.yul\":21542:21560   */\n      add\n        /* \"#utility.yul\":21534:21560   */\n      swap1\n      pop\n        /* \"#utility.yul\":21606:21615   */\n      dup2\n        /* \"#utility.yul\":21600:21604   */\n      dup2\n        /* \"#utility.yul\":21596:21616   */\n      sub\n        /* \"#utility.yul\":21592:21593   */\n      0x00\n        /* \"#utility.yul\":21581:21590   */\n      dup4\n        /* \"#utility.yul\":21577:21594   */\n      add\n        /* \"#utility.yul\":21570:21617   */\n      mstore\n        /* \"#utility.yul\":21634:21765   */\n      tag_385\n        /* \"#utility.yul\":21760:21764   */\n      dup2\n        /* \"#utility.yul\":21634:21765   */\n      tag_187\n      jump\t// in\n    tag_385:\n        /* \"#utility.yul\":21626:21765   */\n      swap1\n      pop\n        /* \"#utility.yul\":21353:21772   */\n      swap2\n      swap1\n      pop\n      jump\t// out\n        /* \"#utility.yul\":21778:21935   */\n    tag_188:\n        /* \"#utility.yul\":21918:21927   */\n      0x636c61696d656400000000000000000000000000000000000000000000000000\n        /* \"#utility.yul\":21914:21915   */\n      0x00\n        /* \"#utility.yul\":21906:21912   */\n      dup3\n        /* \"#utility.yul\":21902:21916   */\n      add\n        /* \"#utility.yul\":21895:21928   */\n      mstore\n        /* \"#utility.yul\":21778:21935   */\n      pop\n      jump\t// out\n        /* \"#utility.yul\":21941:22306   */\n    tag_189:\n        /* \"#utility.yul\":22083:22086   */\n      0x00\n        /* \"#utility.yul\":22104:22170   */\n      tag_388\n        /* \"#utility.yul\":22168:22169   */\n      0x07\n        /* \"#utility.yul\":22163:22166   */\n      dup4\n        /* \"#utility.yul\":22104:22170   */\n      tag_156\n      jump\t// in\n    tag_388:\n        /* \"#utility.yul\":22097:22170   */\n      swap2\n      pop\n        /* \"#utility.yul\":22179:22272   */\n      tag_389\n        /* \"#utility.yul\":22268:22271   */\n      dup3\n        /* \"#utility.yul\":22179:22272   */\n      tag_188\n      jump\t// in\n    tag_389:\n        /* \"#utility.yul\":22297:22299   */\n      0x20\n        /* \"#utility.yul\":22292:22295   */\n      dup3\n        /* \"#utility.yul\":22288:22300   */\n      add\n        /* \"#utility.yul\":22281:22300   */\n      swap1\n      pop\n        /* \"#utility.yul\":21941:22306   */\n      swap2\n      swap1\n      pop\n      jump\t// out\n        /* \"#utility.yul\":22312:22731   */\n    tag_119:\n        /* \"#utility.yul\":22478:22482   */\n      0x00\n        /* \"#utility.yul\":22516:22518   */\n      0x20\n        /* \"#utility.yul\":22505:22514   */\n      dup3\n        /* \"#utility.yul\":22501:22519   */\n      add\n        /* \"#utility.yul\":22493:22519   */\n      swap1\n      pop\n        /* \"#utility.yul\":22565:22574   */\n      dup2\n        /* \"#utility.yul\":22559:22563   */\n      dup2\n        /* \"#utility.yul\":22555:22575   */\n      sub\n        /* \"#utility.yul\":22551:22552   */\n      0x00\n        /* \"#utility.yul\":22540:22549   */\n      dup4\n        /* \"#utility.yul\":22536:22553   */\n      add\n        /* \"#utility.yul\":22529:22576   */\n      mstore\n        /* \"#utility.yul\":22593:22724   */\n      tag_391\n        /* \"#utility.yul\":22719:22723   */\n      dup2\n        /* \"#utility.yul\":22593:22724   */\n      tag_189\n      jump\t// in\n    tag_391:\n        /* \"#utility.yul\":22585:22724   */\n      swap1\n      pop\n        /* \"#utility.yul\":22312:22731   */\n      swap2\n      swap1\n      pop\n      jump\t// out\n        /* \"#utility.yul\":22737:22892   */\n    tag_190:\n        /* \"#utility.yul\":22877:22884   */\n      0x656d707479000000000000000000000000000000000000000000000000000000\n        /* \"#utility.yul\":22873:22874   */\n      0x00\n        /* \"#utility.yul\":22865:22871   */\n      dup3\n        /* \"#utility.yul\":22861:22875   */\n      add\n        /* \"#utility.yul\":22854:22885   */\n      mstore\n        /* \"#utility.yul\":22737:22892   */\n      pop\n      jump\t// out\n        /* \"#utility.yul\":22898:23263   */\n    tag_191:\n        /* \"#utility.yul\":23040:23043   */\n      0x00\n        /* \"#utility.yul\":23061:23127   */\n      tag_394\n        /* \"#utility.yul\":23125:23126   */\n      0x05\n        /* \"#utility.yul\":23120:23123   */\n      dup4\n        /* \"#utility.yul\":23061:23127   */\n      tag_156\n      jump\t// in\n    tag_394:\n        /* \"#utility.yul\":23054:23127   */\n      swap2\n      pop\n        /* \"#utility.yul\":23136:23229   */\n      tag_395\n        /* \"#utility.yul\":23225:23228   */\n      dup3\n        /* \"#utility.yul\":23136:23229   */\n      tag_190\n      jump\t// in\n    tag_395:\n        /* \"#utility.yul\":23254:23256   */\n      0x20\n        /* \"#utility.yul\":23249:23252   */\n      dup3\n        /* \"#utility.yul\":23245:23257   */\n      add\n        /* \"#utility.yul\":23238:23257   */\n      swap1\n      pop\n        /* \"#utility.yul\":22898:23263   */\n      swap2\n      swap1\n      pop\n      jump\t// out\n        /* \"#utility.yul\":23269:23688   */\n    tag_122:\n        /* \"#utility.yul\":23435:23439   */\n      0x00\n        /* \"#utility.yul\":23473:23475   */\n      0x20\n        /* \"#utility.yul\":23462:23471   */\n      dup3\n        /* \"#utility.yul\":23458:23476   */\n      add\n        /* \"#utility.yul\":23450:23476   */\n      swap1\n      pop\n        /* \"#utility.yul\":23522:23531   */\n      dup2\n        /* \"#utility.yul\":23516:23520   */\n      dup2\n        /* \"#utility.yul\":23512:23532   */\n      sub\n        /* \"#utility.yul\":23508:23509   */\n      0x00\n        /* \"#utility.yul\":23497:23506   */\n      dup4\n        /* \"#utility.yul\":23493:23510   */\n      add\n        /* \"#utility.yul\":23486:23533   */\n      mstore\n        /* \"#utility.yul\":23550:23681   */\n      tag_397\n        /* \"#utility.yul\":23676:23680   */\n      dup2\n        /* \"#utility.yul\":23550:23681   */\n      tag_191\n      jump\t// in\n    tag_397:\n        /* \"#utility.yul\":23542:23681   */\n      swap1\n      pop\n        /* \"#utility.yul\":23269:23688   */\n      swap2\n      swap1\n      pop\n      jump\t// out\n        /* \"#utility.yul\":23694:23891   */\n    tag_124:\n        /* \"#utility.yul\":23733:23736   */\n      0x00\n        /* \"#utility.yul\":23752:23771   */\n      tag_399\n        /* \"#utility.yul\":23769:23770   */\n      dup3\n        /* \"#utility.yul\":23752:23771   */\n      tag_144\n      jump\t// in\n    tag_399:\n        /* \"#utility.yul\":23747:23771   */\n      swap2\n      pop\n        /* \"#utility.yul\":23785:23804   */\n      tag_400\n        /* \"#utility.yul\":23802:23803   */\n      dup4\n        /* \"#utility.yul\":23785:23804   */\n      tag_144\n      jump\t// in\n    tag_400:\n        /* \"#utility.yul\":23780:23804   */\n      swap3\n      pop\n        /* \"#utility.yul\":23827:23828   */\n      dup3\n        /* \"#utility.yul\":23824:23825   */\n      dup3\n        /* \"#utility.yul\":23820:23829   */\n      add\n        /* \"#utility.yul\":23813:23829   */\n      swap1\n      pop\n        /* \"#utility.yul\":23850:23860   */\n      0xffffffff\n        /* \"#utility.yul\":23845:23848   */\n      dup2\n        /* \"#utility.yul\":23842:23861   */\n      gt\n        /* \"#utility.yul\":23839:23884   */\n      iszero\n      tag_401\n      jumpi\n        /* \"#utility.yul\":23864:23882   */\n      tag_402\n      tag_163\n      jump\t// in\n    tag_402:\n        /* \"#utility.yul\":23839:23884   */\n    tag_401:\n        /* \"#utility.yul\":23694:23891   */\n      swap3\n      swap2\n      pop\n      pop\n      jump\t// out\n        /* \"#utility.yul\":23897:24068   */\n    tag_192:\n        /* \"#utility.yul\":24037:24060   */\n      0x636c61696d207472616e73666572206661696c65640000000000000000000000\n        /* \"#utility.yul\":24033:24034   */\n      0x00\n        /* \"#utility.yul\":24025:24031   */\n      dup3\n        /* \"#utility.yul\":24021:24035   */\n      add\n        /* \"#utility.yul\":24014:24061   */\n      mstore\n        /* \"#utility.yul\":23897:24068   */\n      pop\n      jump\t// out\n        /* \"#utility.yul\":24074:24440   */\n    tag_193:\n        /* \"#utility.yul\":24216:24219   */\n      0x00\n        /* \"#utility.yul\":24237:24304   */\n      tag_405\n        /* \"#utility.yul\":24301:24303   */\n      0x15\n        /* \"#utility.yul\":24296:24299   */\n      dup4\n        /* \"#utility.yul\":24237:24304   */\n      tag_156\n      jump\t// in\n    tag_405:\n        /* \"#utility.yul\":24230:24304   */\n      swap2\n      pop\n        /* \"#utility.yul\":24313:24406   */\n      tag_406\n        /* \"#utility.yul\":24402:24405   */\n      dup3\n        /* \"#utility.yul\":24313:24406   */\n      tag_192\n      jump\t// in\n    tag_406:\n        /* \"#utility.yul\":24431:24433   */\n      0x20\n        /* \"#utility.yul\":24426:24429   */\n      dup3\n        /* \"#utility.yul\":24422:24434   */\n      add\n        /* \"#utility.yul\":24415:24434   */\n      swap1\n      pop\n        /* \"#utility.yul\":24074:24440   */\n      swap2\n      swap1\n      pop\n      jump\t// out\n        /* \"#utility.yul\":24446:24865   */\n    tag_131:\n        /* \"#utility.yul\":24612:24616   */\n      0x00\n        /* \"#utility.yul\":24650:24652   */\n      0x20\n        /* \"#utility.yul\":24639:24648   */\n      dup3\n        /* \"#utility.yul\":24635:24653   */\n      add\n        /* \"#utility.yul\":24627:24653   */\n      swap1\n      pop\n        /* \"#utility.yul\":24699:24708   */\n      dup2\n        /* \"#utility.yul\":24693:24697   */\n      dup2\n        /* \"#utility.yul\":24689:24709   */\n      sub\n        /* \"#utility.yul\":24685:24686   */\n      0x00\n        /* \"#utility.yul\":24674:24683   */\n      dup4\n        /* \"#utility.yul\":24670:24687   */\n      add\n        /* \"#utility.yul\":24663:24710   */\n      mstore\n        /* \"#utility.yul\":24727:24858   */\n      tag_408\n        /* \"#utility.yul\":24853:24857   */\n      dup2\n        /* \"#utility.yul\":24727:24858   */\n      tag_193\n      jump\t// in\n    tag_408:\n        /* \"#utility.yul\":24719:24858   */\n      swap1\n      pop\n        /* \"#utility.yul\":24446:24865   */\n      swap2\n      swap1\n      pop\n      jump\t// out\n\n    auxdata: 0xa26469706673582212208bd238b6acbac2740fd66b9fc43ce9351fa629f19bb40819b30d6f6fc163e37664736f6c634300081e0033\n}\n",
				"bytecode": {
					"linkReferences": {},
					"object": "6080604052348015600e575f5ffd5b50611a1a8061001c5f395ff3fe60806040526004361061006f575f3560e01c8063909240271161004d57806390924027146100fa57806392a42d1d14610124578063bd66528a14610160578063df567dd7146101885761006f565b80630b524856146100735780637249fbb6146100b65780637bd76aa2146100de575b5f5ffd5b34801561007e575f5ffd5b5061009960048036038101906100949190610e7a565b6101b2565b6040516100ad989796959493929190610f56565b60405180910390f35b3480156100c1575f5ffd5b506100dc60048036038101906100d79190610e7a565b61033d565b005b6100f860048036038101906100f39190611026565b610641565b005b348015610105575f5ffd5b5061010e6109da565b60405161011b9190611076565b60405180910390f35b34801561012f575f5ffd5b5061014a600480360381019061014591906110b9565b6109e1565b60405161015791906110f7565b60405180910390f35b34801561016b575f5ffd5b5061018660048036038101906101819190610e7a565b610a45565b005b348015610193575f5ffd5b5061019c610e3d565b6040516101a99190611110565b60405180910390f35b5f5f5f5f5f5f5f5f5f5f5f8b81526020019081526020015f209050805f015f9054906101000a900473ffffffffffffffffffffffffffffffffffffffff1698508060010154975080600201549650806003015f9054906101000a900463ffffffff1695508060030160049054906101000a900463ffffffff1694508060030160089054906101000a900467ffffffffffffffff1693508060030160109054906101000a900460ff1692505f73ffffffffffffffffffffffffffffffffffffffff16815f015f9054906101000a900473ffffffffffffffffffffffffffffffffffffffff1673ffffffffffffffffffffffffffffffffffffffff1614806102c657508060030160109054906101000a900460ff165b806103035750806003015f9054906101000a900463ffffffff1663ffffffff168160030160049054906101000a900463ffffffff1663ffffffff16145b8061032f57508060030160089054906101000a900467ffffffffffffffff1667ffffffffffffffff1642115b915050919395975091939597565b5f5f5f8381526020019081526020015f2090503373ffffffffffffffffffffffffffffffffffffffff16815f015f9054906101000a900473ffffffffffffffffffffffffffffffffffffffff1673ffffffffffffffffffffffffffffffffffffffff16146103e0576040517f08c379a00000000000000000000000000000000000000000000000000000000081526004016103d790611183565b60405180910390fd5b8060030160109054906101000a900460ff1615610432576040517f08c379a0000000000000000000000000000000000000000000000000000000008152600401610429906111eb565b60405180910390fd5b8060030160089054906101000a900467ffffffffffffffff1667ffffffffffffffff164211806104945750806003015f9054906101000a900463ffffffff1663ffffffff168160030160049054906101000a900463ffffffff1663ffffffff16145b6104d3576040517f08c379a00000000000000000000000000000000000000000000000000000000081526004016104ca90611253565b60405180910390fd5b60018160030160106101000a81548160ff0219169083151502179055505f8160030160049054906101000a900463ffffffff16826003015f9054906101000a900463ffffffff16610524919061129e565b63ffffffff16826002015461053991906112d5565b90505f8111156105ed575f3373ffffffffffffffffffffffffffffffffffffffff168260405161056890611343565b5f6040518083038185875af1925050503d805f81146105a2576040519150601f19603f3d011682016040523d82523d5f602084013e6105a7565b606091505b50509050806105eb576040517f08c379a00000000000000000000000000000000000000000000000000000000081526004016105e2906113a1565b60405180910390fd5b505b3373ffffffffffffffffffffffffffffffffffffffff16837ff552ca82e113ac3c539c3d617f29fcd19c172a0c75dad017555c9e109f7fe1838360405161063491906113bf565b60405180910390a3505050565b5f5f1b8303610685576040517f08c379a000000000000000000000000000000000000000000000000000000000815260040161067c90611422565b60405180910390fd5b5f8263ffffffff161180156106a857506101f463ffffffff168263ffffffff1611155b6106e7576040517f08c379a00000000000000000000000000000000000000000000000000000000081526004016106de9061148a565b60405180910390fd5b5f3411610729576040517f08c379a0000000000000000000000000000000000000000000000000000000008152600401610720906114f2565b60405180910390fd5b428167ffffffffffffffff1611610775576040517f08c379a000000000000000000000000000000000000000000000000000000000815260040161076c9061155a565b60405180910390fd5b62278d0067ffffffffffffffff164261078e9190611578565b8167ffffffffffffffff1611156107da576040517f08c379a00000000000000000000000000000000000000000000000000000000081526004016107d1906115f5565b60405180910390fd5b5f5f5f8581526020019081526020015f2090505f73ffffffffffffffffffffffffffffffffffffffff16815f015f9054906101000a900473ffffffffffffffffffffffffffffffffffffffff1673ffffffffffffffffffffffffffffffffffffffff161461087d576040517f08c379a00000000000000000000000000000000000000000000000000000000081526004016108749061165d565b60405180910390fd5b5f8363ffffffff163461089091906116a8565b146108d0576040517f08c379a00000000000000000000000000000000000000000000000000000000081526004016108c790611722565b60405180910390fd5b33815f015f6101000a81548173ffffffffffffffffffffffffffffffffffffffff021916908373ffffffffffffffffffffffffffffffffffffffff1602179055503481600101819055508263ffffffff163461092c9190611740565b816002018190555082816003015f6101000a81548163ffffffff021916908363ffffffff160217905550818160030160086101000a81548167ffffffffffffffff021916908367ffffffffffffffff1602179055503373ffffffffffffffffffffffffffffffffffffffff16847f881d4506c5a3373a65c4b254ea24b8a916895f31b0aab5d224b83b656328fd3b3486866040516109cc93929190611770565b60405180910390a350505050565b62278d0081565b5f5f5f8481526020019081526020015f206004015f8373ffffffffffffffffffffffffffffffffffffffff1673ffffffffffffffffffffffffffffffffffffffff1681526020019081526020015f205f9054906101000a900460ff16905092915050565b5f5f5f8381526020019081526020015f2090505f73ffffffffffffffffffffffffffffffffffffffff16815f015f9054906101000a900473ffffffffffffffffffffffffffffffffffffffff1673ffffffffffffffffffffffffffffffffffffffff1603610ae8576040517f08c379a0000000000000000000000000000000000000000000000000000000008152600401610adf906117ef565b60405180910390fd5b8060030160109054906101000a900460ff1615610b3a576040517f08c379a0000000000000000000000000000000000000000000000000000000008152600401610b3190611857565b60405180910390fd5b8060030160089054906101000a900467ffffffffffffffff1667ffffffffffffffff16421115610b9f576040517f08c379a0000000000000000000000000000000000000000000000000000000008152600401610b969061155a565b60405180910390fd5b806004015f3373ffffffffffffffffffffffffffffffffffffffff1673ffffffffffffffffffffffffffffffffffffffff1681526020019081526020015f205f9054906101000a900460ff1615610c2b576040517f08c379a0000000000000000000000000000000000000000000000000000000008152600401610c22906118bf565b60405180910390fd5b806003015f9054906101000a900463ffffffff1663ffffffff168160030160049054906101000a900463ffffffff1663ffffffff1610610ca0576040517f08c379a0000000000000000000000000000000000000000000000000000000008152600401610c9790611927565b60405180910390fd5b6001816004015f3373ffffffffffffffffffffffffffffffffffffffff1673ffffffffffffffffffffffffffffffffffffffff1681526020019081526020015f205f6101000a81548160ff02191690831515021790555060018160030160048282829054906101000a900463ffffffff16610d1b9190611945565b92506101000a81548163ffffffff021916908363ffffffff1602179055505f3373ffffffffffffffffffffffffffffffffffffffff168260020154604051610d6290611343565b5f6040518083038185875af1925050503d805f8114610d9c576040519150601f19603f3d011682016040523d82523d5f602084013e610da1565b606091505b5050905080610de5576040517f08c379a0000000000000000000000000000000000000000000000000000000008152600401610ddc906119c6565b60405180910390fd5b3373ffffffffffffffffffffffffffffffffffffffff16837f0508a8b4117d9a7b3d8f5895f6413e61b4f9a2df35afbfb41e78d0ecfff1843f8460020154604051610e3091906113bf565b60405180910390a3505050565b6101f481565b5f5ffd5b5f819050919050565b610e5981610e47565b8114610e63575f5ffd5b50565b5f81359050610e7481610e50565b92915050565b5f60208284031215610e8f57610e8e610e43565b5b5f610e9c84828501610e66565b91505092915050565b5f73ffffffffffffffffffffffffffffffffffffffff82169050919050565b5f610ece82610ea5565b9050919050565b610ede81610ec4565b82525050565b5f819050919050565b610ef681610ee4565b82525050565b5f63ffffffff82169050919050565b610f1481610efc565b82525050565b5f67ffffffffffffffff82169050919050565b610f3681610f1a565b82525050565b5f8115159050919050565b610f5081610f3c565b82525050565b5f61010082019050610f6a5f83018b610ed5565b610f77602083018a610eed565b610f846040830189610eed565b610f916060830188610f0b565b610f9e6080830187610f0b565b610fab60a0830186610f2d565b610fb860c0830185610f47565b610fc560e0830184610f47565b9998505050505050505050565b610fdb81610efc565b8114610fe5575f5ffd5b50565b5f81359050610ff681610fd2565b92915050565b61100581610f1a565b811461100f575f5ffd5b50565b5f8135905061102081610ffc565b92915050565b5f5f5f6060848603121561103d5761103c610e43565b5b5f61104a86828701610e66565b935050602061105b86828701610fe8565b925050604061106c86828701611012565b9150509250925092565b5f6020820190506110895f830184610f2d565b92915050565b61109881610ec4565b81146110a2575f5ffd5b50565b5f813590506110b38161108f565b92915050565b5f5f604083850312156110cf576110ce610e43565b5b5f6110dc85828601610e66565b92505060206110ed858286016110a5565b9150509250929050565b5f60208201905061110a5f830184610f47565b92915050565b5f6020820190506111235f830184610f0b565b92915050565b5f82825260208201905092915050565b7f6e6f742063726561746f720000000000000000000000000000000000000000005f82015250565b5f61116d600b83611129565b915061117882611139565b602082019050919050565b5f6020820190508181035f83015261119a81611161565b9050919050565b7f616c7265616479000000000000000000000000000000000000000000000000005f82015250565b5f6111d5600783611129565b91506111e0826111a1565b602082019050919050565b5f6020820190508181035f830152611202816111c9565b9050919050565b7f6e6f7420656e64000000000000000000000000000000000000000000000000005f82015250565b5f61123d600783611129565b915061124882611209565b602082019050919050565b5f6020820190508181035f83015261126a81611231565b9050919050565b7f4e487b71000000000000000000000000000000000000000000000000000000005f52601160045260245ffd5b5f6112a882610efc565b91506112b383610efc565b9250828203905063ffffffff8111156112cf576112ce611271565b5b92915050565b5f6112df82610ee4565b91506112ea83610ee4565b92508282026112f881610ee4565b9150828204841483151761130f5761130e611271565b5b5092915050565b5f81905092915050565b50565b5f61132e5f83611316565b915061133982611320565b5f82019050919050565b5f61134d82611323565b9150819050919050565b7f726566756e64207472616e73666572206661696c6564000000000000000000005f82015250565b5f61138b601683611129565b915061139682611357565b602082019050919050565b5f6020820190508181035f8301526113b88161137f565b9050919050565b5f6020820190506113d25f830184610eed565b92915050565b7f7061636b657449643d30000000000000000000000000000000000000000000005f82015250565b5f61140c600a83611129565b9150611417826113d8565b602082019050919050565b5f6020820190508181035f83015261143981611400565b9050919050565b7f696e76616c696420636f756e74000000000000000000000000000000000000005f82015250565b5f611474600d83611129565b915061147f82611440565b602082019050919050565b5f6020820190508181035f8301526114a181611468565b9050919050565b7f76616c75653d30000000000000000000000000000000000000000000000000005f82015250565b5f6114dc600783611129565b91506114e7826114a8565b602082019050919050565b5f6020820190508181035f830152611509816114d0565b9050919050565b7f65787069726564000000000000000000000000000000000000000000000000005f82015250565b5f611544600783611129565b915061154f82611510565b602082019050919050565b5f6020820190508181035f83015261157181611538565b9050919050565b5f61158282610ee4565b915061158d83610ee4565b92508282019050808211156115a5576115a4611271565b5b92915050565b7f6578706972657320746f6f2066617200000000000000000000000000000000005f82015250565b5f6115df600f83611129565b91506115ea826115ab565b602082019050919050565b5f6020820190508181035f83015261160c816115d3565b9050919050565b7f65786973747300000000000000000000000000000000000000000000000000005f82015250565b5f611647600683611129565b915061165282611613565b602082019050919050565b5f6020820190508181035f8301526116748161163b565b9050919050565b7f4e487b71000000000000000000000000000000000000000000000000000000005f52601260045260245ffd5b5f6116b282610ee4565b91506116bd83610ee4565b9250826116cd576116cc61167b565b5b828206905092915050565b7f6e6f7420646976697369626c65000000000000000000000000000000000000005f82015250565b5f61170c600d83611129565b9150611717826116d8565b602082019050919050565b5f6020820190508181035f83015261173981611700565b9050919050565b5f61174a82610ee4565b915061175583610ee4565b9250826117655761176461167b565b5b828204905092915050565b5f6060820190506117835f830186610eed565b6117906020830185610f0b565b61179d6040830184610f2d565b949350505050565b7f6e6f7420666f756e6400000000000000000000000000000000000000000000005f82015250565b5f6117d9600983611129565b91506117e4826117a5565b602082019050919050565b5f6020820190508181035f830152611806816117cd565b9050919050565b7f726566756e6465640000000000000000000000000000000000000000000000005f82015250565b5f611841600883611129565b915061184c8261180d565b602082019050919050565b5f6020820190508181035f83015261186e81611835565b9050919050565b7f636c61696d6564000000000000000000000000000000000000000000000000005f82015250565b5f6118a9600783611129565b91506118b482611875565b602082019050919050565b5f6020820190508181035f8301526118d68161189d565b9050919050565b7f656d7074790000000000000000000000000000000000000000000000000000005f82015250565b5f611911600583611129565b915061191c826118dd565b602082019050919050565b5f6020820190508181035f83015261193e81611905565b9050919050565b5f61194f82610efc565b915061195a83610efc565b9250828201905063ffffffff81111561197657611975611271565b5b92915050565b7f636c61696d207472616e73666572206661696c656400000000000000000000005f82015250565b5f6119b0601583611129565b91506119bb8261197c565b602082019050919050565b5f6020820190508181035f8301526119dd816119a4565b905091905056fea26469706673582212208bd238b6acbac2740fd66b9fc43ce9351fa629f19bb40819b30d6f6fc163e37664736f6c634300081e0033",
					"opcodes": "PUSH1 0x80 PUSH1 0x40 MSTORE CALLVALUE DUP1 ISZERO PUSH1 0xE JUMPI PUSH0 PUSH0 REVERT JUMPDEST POP PUSH2 0x1A1A DUP1 PUSH2 0x1C PUSH0 CODECOPY PUSH0 RETURN INVALID PUSH1 0x80 PUSH1 0x40 MSTORE PUSH1 0x4 CALLDATASIZE LT PUSH2 0x6F JUMPI PUSH0 CALLDATALOAD PUSH1 0xE0 SHR DUP1 PUSH4 0x90924027 GT PUSH2 0x4D JUMPI DUP1 PUSH4 0x90924027 EQ PUSH2 0xFA JUMPI DUP1 PUSH4 0x92A42D1D EQ PUSH2 0x124 JUMPI DUP1 PUSH4 0xBD66528A EQ PUSH2 0x160 JUMPI DUP1 PUSH4 0xDF567DD7 EQ PUSH2 0x188 JUMPI PUSH2 0x6F JUMP JUMPDEST DUP1 PUSH4 0xB524856 EQ PUSH2 0x73 JUMPI DUP1 PUSH4 0x7249FBB6 EQ PUSH2 0xB6 JUMPI DUP1 PUSH4 0x7BD76AA2 EQ PUSH2 0xDE JUMPI JUMPDEST PUSH0 PUSH0 REVERT JUMPDEST CALLVALUE DUP1 ISZERO PUSH2 0x7E JUMPI PUSH0 PUSH0 REVERT JUMPDEST POP PUSH2 0x99 PUSH1 0x4 DUP1 CALLDATASIZE SUB DUP2 ADD SWAP1 PUSH2 0x94 SWAP2 SWAP1 PUSH2 0xE7A JUMP JUMPDEST PUSH2 0x1B2 JUMP JUMPDEST PUSH1 0x40 MLOAD PUSH2 0xAD SWAP9 SWAP8 SWAP7 SWAP6 SWAP5 SWAP4 SWAP3 SWAP2 SWAP1 PUSH2 0xF56 JUMP JUMPDEST PUSH1 0x40 MLOAD DUP1 SWAP2 SUB SWAP1 RETURN JUMPDEST CALLVALUE DUP1 ISZERO PUSH2 0xC1 JUMPI PUSH0 PUSH0 REVERT JUMPDEST POP PUSH2 0xDC PUSH1 0x4 DUP1 CALLDATASIZE SUB DUP2 ADD SWAP1 PUSH2 0xD7 SWAP2 SWAP1 PUSH2 0xE7A JUMP JUMPDEST PUSH2 0x33D JUMP JUMPDEST STOP JUMPDEST PUSH2 0xF8 PUSH1 0x4 DUP1 CALLDATASIZE SUB DUP2 ADD SWAP1 PUSH2 0xF3 SWAP2 SWAP1 PUSH2 0x1026 JUMP JUMPDEST PUSH2 0x641 JUMP JUMPDEST STOP JUMPDEST CALLVALUE DUP1 ISZERO PUSH2 0x105 JUMPI PUSH0 PUSH0 REVERT JUMPDEST POP PUSH2 0x10E PUSH2 0x9DA JUMP JUMPDEST PUSH1 0x40 MLOAD PUSH2 0x11B SWAP2 SWAP1 PUSH2 0x1076 JUMP JUMPDEST PUSH1 0x40 MLOAD DUP1 SWAP2 SUB SWAP1 RETURN JUMPDEST CALLVALUE DUP1 ISZERO PUSH2 0x12F JUMPI PUSH0 PUSH0 REVERT JUMPDEST POP PUSH2 0x14A PUSH1 0x4 DUP1 CALLDATASIZE SUB DUP2 ADD SWAP1 PUSH2 0x145 SWAP2 SWAP1 PUSH2 0x10B9 JUMP JUMPDEST PUSH2 0x9E1 JUMP JUMPDEST PUSH1 0x40 MLOAD PUSH2 0x157 SWAP2 SWAP1 PUSH2 0x10F7 JUMP JUMPDEST PUSH1 0x40 MLOAD DUP1 SWAP2 SUB SWAP1 RETURN JUMPDEST CALLVALUE DUP1 ISZERO PUSH2 0x16B JUMPI PUSH0 PUSH0 REVERT JUMPDEST POP PUSH2 0x186 PUSH1 0x4 DUP1 CALLDATASIZE SUB DUP2 ADD SWAP1 PUSH2 0x181 SWAP2 SWAP1 PUSH2 0xE7A JUMP JUMPDEST PUSH2 0xA45 JUMP JUMPDEST STOP JUMPDEST CALLVALUE DUP1 ISZERO PUSH2 0x193 JUMPI PUSH0 PUSH0 REVERT JUMPDEST POP PUSH2 0x19C PUSH2 0xE3D JUMP JUMPDEST PUSH1 0x40 MLOAD PUSH2 0x1A9 SWAP2 SWAP1 PUSH2 0x1110 JUMP JUMPDEST PUSH1 0x40 MLOAD DUP1 SWAP2 SUB SWAP1 RETURN JUMPDEST PUSH0 PUSH0 PUSH0 PUSH0 PUSH0 PUSH0 PUSH0 PUSH0 PUSH0 PUSH0 PUSH0 DUP12 DUP2 MSTORE PUSH1 0x20 ADD SWAP1 DUP2 MSTORE PUSH1 0x20 ADD PUSH0 KECCAK256 SWAP1 POP DUP1 PUSH0 ADD PUSH0 SWAP1 SLOAD SWAP1 PUSH2 0x100 EXP SWAP1 DIV PUSH20 0xFFFFFFFFFFFFFFFFFFFFFFFFFFFFFFFFFFFFFFFF AND SWAP9 POP DUP1 PUSH1 0x1 ADD SLOAD SWAP8 POP DUP1 PUSH1 0x2 ADD SLOAD SWAP7 POP DUP1 PUSH1 0x3 ADD PUSH0 SWAP1 SLOAD SWAP1 PUSH2 0x100 EXP SWAP1 DIV PUSH4 0xFFFFFFFF AND SWAP6 POP DUP1 PUSH1 0x3 ADD PUSH1 0x4 SWAP1 SLOAD SWAP1 PUSH2 0x100 EXP SWAP1 DIV PUSH4 0xFFFFFFFF AND SWAP5 POP DUP1 PUSH1 0x3 ADD PUSH1 0x8 SWAP1 SLOAD SWAP1 PUSH2 0x100 EXP SWAP1 DIV PUSH8 0xFFFFFFFFFFFFFFFF AND SWAP4 POP DUP1 PUSH1 0x3 ADD PUSH1 0x10 SWAP1 SLOAD SWAP1 PUSH2 0x100 EXP SWAP1 DIV PUSH1 0xFF AND SWAP3 POP PUSH0 PUSH20 0xFFFFFFFFFFFFFFFFFFFFFFFFFFFFFFFFFFFFFFFF AND DUP2 PUSH0 ADD PUSH0 SWAP1 SLOAD SWAP1 PUSH2 0x100 EXP SWAP1 DIV PUSH20 0xFFFFFFFFFFFFFFFFFFFFFFFFFFFFFFFFFFFFFFFF AND PUSH20 0xFFFFFFFFFFFFFFFFFFFFFFFFFFFFFFFFFFFFFFFF AND EQ DUP1 PUSH2 0x2C6 JUMPI POP DUP1 PUSH1 0x3 ADD PUSH1 0x10 SWAP1 SLOAD SWAP1 PUSH2 0x100 EXP SWAP1 DIV PUSH1 0xFF AND JUMPDEST DUP1 PUSH2 0x303 JUMPI POP DUP1 PUSH1 0x3 ADD PUSH0 SWAP1 SLOAD SWAP1 PUSH2 0x100 EXP SWAP1 DIV PUSH4 0xFFFFFFFF AND PUSH4 0xFFFFFFFF AND DUP2 PUSH1 0x3 ADD PUSH1 0x4 SWAP1 SLOAD SWAP1 PUSH2 0x100 EXP SWAP1 DIV PUSH4 0xFFFFFFFF AND PUSH4 0xFFFFFFFF AND EQ JUMPDEST DUP1 PUSH2 0x32F JUMPI POP DUP1 PUSH1 0x3 ADD PUSH1 0x8 SWAP1 SLOAD SWAP1 PUSH2 0x100 EXP SWAP1 DIV PUSH8 0xFFFFFFFFFFFFFFFF AND PUSH8 0xFFFFFFFFFFFFFFFF AND TIMESTAMP GT JUMPDEST SWAP2 POP POP SWAP2 SWAP4 SWAP6 SWAP8 POP SWAP2 SWAP4 SWAP6 SWAP8 JUMP JUMPDEST PUSH0 PUSH0 PUSH0 DUP4 DUP2 MSTORE PUSH1 0x20 ADD SWAP1 DUP2 MSTORE PUSH1 0x20 ADD PUSH0 KECCAK256 SWAP1 POP CALLER PUSH20 0xFFFFFFFFFFFFFFFFFFFFFFFFFFFFFFFFFFFFFFFF AND DUP2 PUSH0 ADD PUSH0 SWAP1 SLOAD SWAP1 PUSH2 0x100 EXP SWAP1 DIV PUSH20 0xFFFFFFFFFFFFFFFFFFFFFFFFFFFFFFFFFFFFFFFF AND PUSH20 0xFFFFFFFFFFFFFFFFFFFFFFFFFFFFFFFFFFFFFFFF AND EQ PUSH2 0x3E0 JUMPI PUSH1 0x40 MLOAD PUSH32 0x8C379A000000000000000000000000000000000000000000000000000000000 DUP2 MSTORE PUSH1 0x4 ADD PUSH2 0x3D7 SWAP1 PUSH2 0x1183 JUMP JUMPDEST PUSH1 0x40 MLOAD DUP1 SWAP2 SUB SWAP1 REVERT JUMPDEST DUP1 PUSH1 0x3 ADD PUSH1 0x10 SWAP1 SLOAD SWAP1 PUSH2 0x100 EXP SWAP1 DIV PUSH1 0xFF AND ISZERO PUSH2 0x432 JUMPI PUSH1 0x40 MLOAD PUSH32 0x8C379A000000000000000000000000000000000000000000000000000000000 DUP2 MSTORE PUSH1 0x4 ADD PUSH2 0x429 SWAP1 PUSH2 0x11EB JUMP JUMPDEST PUSH1 0x40 MLOAD DUP1 SWAP2 SUB SWAP1 REVERT JUMPDEST DUP1 PUSH1 0x3 ADD PUSH1 0x8 SWAP1 SLOAD SWAP1 PUSH2 0x100 EXP SWAP1 DIV PUSH8 0xFFFFFFFFFFFFFFFF AND PUSH8 0xFFFFFFFFFFFFFFFF AND TIMESTAMP GT DUP1 PUSH2 0x494 JUMPI POP DUP1 PUSH1 0x3 ADD PUSH0 SWAP1 SLOAD SWAP1 PUSH2 0x100 EXP SWAP1 DIV PUSH4 0xFFFFFFFF AND PUSH4 0xFFFFFFFF AND DUP2 PUSH1 0x3 ADD PUSH1 0x4 SWAP1 SLOAD SWAP1 PUSH2 0x100 EXP SWAP1 DIV PUSH4 0xFFFFFFFF AND PUSH4 0xFFFFFFFF AND EQ JUMPDEST PUSH2 0x4D3 JUMPI PUSH1 0x40 MLOAD PUSH32 0x8C379A000000000000000000000000000000000000000000000000000000000 DUP2 MSTORE PUSH1 0x4 ADD PUSH2 0x4CA SWAP1 PUSH2 0x1253 JUMP JUMPDEST PUSH1 0x40 MLOAD DUP1 SWAP2 SUB SWAP1 REVERT JUMPDEST PUSH1 0x1 DUP2 PUSH1 0x3 ADD PUSH1 0x10 PUSH2 0x100 EXP DUP2 SLOAD DUP2 PUSH1 0xFF MUL NOT AND SWAP1 DUP4 ISZERO ISZERO MUL OR SWAP1 SSTORE POP PUSH0 DUP2 PUSH1 0x3 ADD PUSH1 0x4 SWAP1 SLOAD SWAP1 PUSH2 0x100 EXP SWAP1 DIV PUSH4 0xFFFFFFFF AND DUP3 PUSH1 0x3 ADD PUSH0 SWAP1 SLOAD SWAP1 PUSH2 0x100 EXP SWAP1 DIV PUSH4 0xFFFFFFFF AND PUSH2 0x524 SWAP2 SWAP1 PUSH2 0x129E JUMP JUMPDEST PUSH4 0xFFFFFFFF AND DUP3 PUSH1 0x2 ADD SLOAD PUSH2 0x539 SWAP2 SWAP1 PUSH2 0x12D5 JUMP JUMPDEST SWAP1 POP PUSH0 DUP2 GT ISZERO PUSH2 0x5ED JUMPI PUSH0 CALLER PUSH20 0xFFFFFFFFFFFFFFFFFFFFFFFFFFFFFFFFFFFFFFFF AND DUP3 PUSH1 0x40 MLOAD PUSH2 0x568 SWAP1 PUSH2 0x1343 JUMP JUMPDEST PUSH0 PUSH1 0x40 MLOAD DUP1 DUP4 SUB DUP2 DUP6 DUP8 GAS CALL SWAP3 POP POP POP RETURNDATASIZE DUP1 PUSH0 DUP2 EQ PUSH2 0x5A2 JUMPI PUSH1 0x40 MLOAD SWAP2 POP PUSH1 0x1F NOT PUSH1 0x3F RETURNDATASIZE ADD AND DUP3 ADD PUSH1 0x40 MSTORE RETURNDATASIZE DUP3 MSTORE RETURNDATASIZE PUSH0 PUSH1 0x20 DUP5 ADD RETURNDATACOPY PUSH2 0x5A7 JUMP JUMPDEST PUSH1 0x60 SWAP2 POP JUMPDEST POP POP SWAP1 POP DUP1 PUSH2 0x5EB JUMPI PUSH1 0x40 MLOAD PUSH32 0x8C379A000000000000000000000000000000000000000000000000000000000 DUP2 MSTORE PUSH1 0x4 ADD PUSH2 0x5E2 SWAP1 PUSH2 0x13A1 JUMP JUMPDEST PUSH1 0x40 MLOAD DUP1 SWAP2 SUB SWAP1 REVERT JUMPDEST POP JUMPDEST CALLER PUSH20 0xFFFFFFFFFFFFFFFFFFFFFFFFFFFFFFFFFFFFFFFF AND DUP4 PUSH32 0xF552CA82E113AC3C539C3D617F29FCD19C172A0C75DAD017555C9E109F7FE183 DUP4 PUSH1 0x40 MLOAD PUSH2 0x634 SWAP2 SWAP1 PUSH2 0x13BF JUMP JUMPDEST PUSH1 0x40 MLOAD DUP1 SWAP2 SUB SWAP1 LOG3 POP POP POP JUMP JUMPDEST PUSH0 PUSH0 SHL DUP4 SUB PUSH2 0x685 JUMPI PUSH1 0x40 MLOAD PUSH32 0x8C379A000000000000000000000000000000000000000000000000000000000 DUP2 MSTORE PUSH1 0x4 ADD PUSH2 0x67C SWAP1 PUSH2 0x1422 JUMP JUMPDEST PUSH1 0x40 MLOAD DUP1 SWAP2 SUB SWAP1 REVERT JUMPDEST PUSH0 DUP3 PUSH4 0xFFFFFFFF AND GT DUP1 ISZERO PUSH2 0x6A8 JUMPI POP PUSH2 0x1F4 PUSH4 0xFFFFFFFF AND DUP3 PUSH4 0xFFFFFFFF AND GT ISZERO JUMPDEST PUSH2 0x6E7 JUMPI PUSH1 0x40 MLOAD PUSH32 0x8C379A000000000000000000000000000000000000000000000000000000000 DUP2 MSTORE PUSH1 0x4 ADD PUSH2 0x6DE SWAP1 PUSH2 0x148A JUMP JUMPDEST PUSH1 0x40 MLOAD DUP1 SWAP2 SUB SWAP1 REVERT JUMPDEST PUSH0 CALLVALUE GT PUSH2 0x729 JUMPI PUSH1 0x40 MLOAD PUSH32 0x8C379A000000000000000000000000000000000000000000000000000000000 DUP2 MSTORE PUSH1 0x4 ADD PUSH2 0x720 SWAP1 PUSH2 0x14F2 JUMP JUMPDEST PUSH1 0x40 MLOAD DUP1 SWAP2 SUB SWAP1 REVERT JUMPDEST TIMESTAMP DUP2 PUSH8 0xFFFFFFFFFFFFFFFF AND GT PUSH2 0x775 JUMPI PUSH1 0x40 MLOAD PUSH32 0x8C379A000000000000000000000000000000000000000000000000000000000 DUP2 MSTORE PUSH1 0x4 ADD PUSH2 0x76C SWAP1 PUSH2 0x155A JUMP JUMPDEST PUSH1 0x40 MLOAD DUP1 SWAP2 SUB SWAP1 REVERT JUMPDEST PUSH3 0x278D00 PUSH8 0xFFFFFFFFFFFFFFFF AND TIMESTAMP PUSH2 0x78E SWAP2 SWAP1 PUSH2 0x1578 JUMP JUMPDEST DUP2 PUSH8 0xFFFFFFFFFFFFFFFF AND GT ISZERO PUSH2 0x7DA JUMPI PUSH1 0x40 MLOAD PUSH32 0x8C379A000000000000000000000000000000000000000000000000000000000 DUP2 MSTORE PUSH1 0x4 ADD PUSH2 0x7D1 SWAP1 PUSH2 0x15F5 JUMP JUMPDEST PUSH1 0x40 MLOAD DUP1 SWAP2 SUB SWAP1 REVERT JUMPDEST PUSH0 PUSH0 PUSH0 DUP6 DUP2 MSTORE PUSH1 0x20 ADD SWAP1 DUP2 MSTORE PUSH1 0x20 ADD PUSH0 KECCAK256 SWAP1 POP PUSH0 PUSH20 0xFFFFFFFFFFFFFFFFFFFFFFFFFFFFFFFFFFFFFFFF AND DUP2 PUSH0 ADD PUSH0 SWAP1 SLOAD SWAP1 PUSH2 0x100 EXP SWAP1 DIV PUSH20 0xFFFFFFFFFFFFFFFFFFFFFFFFFFFFFFFFFFFFFFFF AND PUSH20 0xFFFFFFFFFFFFFFFFFFFFFFFFFFFFFFFFFFFFFFFF AND EQ PUSH2 0x87D JUMPI PUSH1 0x40 MLOAD PUSH32 0x8C379A000000000000000000000000000000000000000000000000000000000 DUP2 MSTORE PUSH1 0x4 ADD PUSH2 0x874 SWAP1 PUSH2 0x165D JUMP JUMPDEST PUSH1 0x40 MLOAD DUP1 SWAP2 SUB SWAP1 REVERT JUMPDEST PUSH0 DUP4 PUSH4 0xFFFFFFFF AND CALLVALUE PUSH2 0x890 SWAP2 SWAP1 PUSH2 0x16A8 JUMP JUMPDEST EQ PUSH2 0x8D0 JUMPI PUSH1 0x40 MLOAD PUSH32 0x8C379A000000000000000000000000000000000000000000000000000000000 DUP2 MSTORE PUSH1 0x4 ADD PUSH2 0x8C7 SWAP1 PUSH2 0x1722 JUMP JUMPDEST PUSH1 0x40 MLOAD DUP1 SWAP2 SUB SWAP1 REVERT JUMPDEST CALLER DUP2 PUSH0 ADD PUSH0 PUSH2 0x100 EXP DUP2 SLOAD DUP2 PUSH20 0xFFFFFFFFFFFFFFFFFFFFFFFFFFFFFFFFFFFFFFFF MUL NOT AND SWAP1 DUP4 PUSH20 0xFFFFFFFFFFFFFFFFFFFFFFFFFFFFFFFFFFFFFFFF AND MUL OR SWAP1 SSTORE POP CALLVALUE DUP2 PUSH1 0x1 ADD DUP2 SWAP1 SSTORE POP DUP3 PUSH4 0xFFFFFFFF AND CALLVALUE PUSH2 0x92C SWAP2 SWAP1 PUSH2 0x1740 JUMP JUMPDEST DUP2 PUSH1 0x2 ADD DUP2 SWAP1 SSTORE POP DUP3 DUP2 PUSH1 0x3 ADD PUSH0 PUSH2 0x100 EXP DUP2 SLOAD DUP2 PUSH4 0xFFFFFFFF MUL NOT AND SWAP1 DUP4 PUSH4 0xFFFFFFFF AND MUL OR SWAP1 SSTORE POP DUP2 DUP2 PUSH1 0x3 ADD PUSH1 0x8 PUSH2 0x100 EXP DUP2 SLOAD DUP2 PUSH8 0xFFFFFFFFFFFFFFFF MUL NOT AND SWAP1 DUP4 PUSH8 0xFFFFFFFFFFFFFFFF AND MUL OR SWAP1 SSTORE POP CALLER PUSH20 0xFFFFFFFFFFFFFFFFFFFFFFFFFFFFFFFFFFFFFFFF AND DUP5 PUSH32 0x881D4506C5A3373A65C4B254EA24B8A916895F31B0AAB5D224B83B656328FD3B CALLVALUE DUP7 DUP7 PUSH1 0x40 MLOAD PUSH2 0x9CC SWAP4 SWAP3 SWAP2 SWAP1 PUSH2 0x1770 JUMP JUMPDEST PUSH1 0x40 MLOAD DUP1 SWAP2 SUB SWAP1 LOG3 POP POP POP POP JUMP JUMPDEST PUSH3 0x278D00 DUP2 JUMP JUMPDEST PUSH0 PUSH0 PUSH0 DUP5 DUP2 MSTORE PUSH1 0x20 ADD SWAP1 DUP2 MSTORE PUSH1 0x20 ADD PUSH0 KECCAK256 PUSH1 0x4 ADD PUSH0 DUP4 PUSH20 0xFFFFFFFFFFFFFFFFFFFFFFFFFFFFFFFFFFFFFFFF AND PUSH20 0xFFFFFFFFFFFFFFFFFFFFFFFFFFFFFFFFFFFFFFFF AND DUP2 MSTORE PUSH1 0x20 ADD SWAP1 DUP2 MSTORE PUSH1 0x20 ADD PUSH0 KECCAK256 PUSH0 SWAP1 SLOAD SWAP1 PUSH2 0x100 EXP SWAP1 DIV PUSH1 0xFF AND SWAP1 POP SWAP3 SWAP2 POP POP JUMP JUMPDEST PUSH0 PUSH0 PUSH0 DUP4 DUP2 MSTORE PUSH1 0x20 ADD SWAP1 DUP2 MSTORE PUSH1 0x20 ADD PUSH0 KECCAK256 SWAP1 POP PUSH0 PUSH20 0xFFFFFFFFFFFFFFFFFFFFFFFFFFFFFFFFFFFFFFFF AND DUP2 PUSH0 ADD PUSH0 SWAP1 SLOAD SWAP1 PUSH2 0x100 EXP SWAP1 DIV PUSH20 0xFFFFFFFFFFFFFFFFFFFFFFFFFFFFFFFFFFFFFFFF AND PUSH20 0xFFFFFFFFFFFFFFFFFFFFFFFFFFFFFFFFFFFFFFFF AND SUB PUSH2 0xAE8 JUMPI PUSH1 0x40 MLOAD PUSH32 0x8C379A000000000000000000000000000000000000000000000000000000000 DUP2 MSTORE PUSH1 0x4 ADD PUSH2 0xADF SWAP1 PUSH2 0x17EF JUMP JUMPDEST PUSH1 0x40 MLOAD DUP1 SWAP2 SUB SWAP1 REVERT JUMPDEST DUP1 PUSH1 0x3 ADD PUSH1 0x10 SWAP1 SLOAD SWAP1 PUSH2 0x100 EXP SWAP1 DIV PUSH1 0xFF AND ISZERO PUSH2 0xB3A JUMPI PUSH1 0x40 MLOAD PUSH32 0x8C379A000000000000000000000000000000000000000000000000000000000 DUP2 MSTORE PUSH1 0x4 ADD PUSH2 0xB31 SWAP1 PUSH2 0x1857 JUMP JUMPDEST PUSH1 0x40 MLOAD DUP1 SWAP2 SUB SWAP1 REVERT JUMPDEST DUP1 PUSH1 0x3 ADD PUSH1 0x8 SWAP1 SLOAD SWAP1 PUSH2 0x100 EXP SWAP1 DIV PUSH8 0xFFFFFFFFFFFFFFFF AND PUSH8 0xFFFFFFFFFFFFFFFF AND TIMESTAMP GT ISZERO PUSH2 0xB9F JUMPI PUSH1 0x40 MLOAD PUSH32 0x8C379A000000000000000000000000000000000000000000000000000000000 DUP2 MSTORE PUSH1 0x4 ADD PUSH2 0xB96 SWAP1 PUSH2 0x155A JUMP JUMPDEST PUSH1 0x40 MLOAD DUP1 SWAP2 SUB SWAP1 REVERT JUMPDEST DUP1 PUSH1 0x4 ADD PUSH0 CALLER PUSH20 0xFFFFFFFFFFFFFFFFFFFFFFFFFFFFFFFFFFFFFFFF AND PUSH20 0xFFFFFFFFFFFFFFFFFFFFFFFFFFFFFFFFFFFFFFFF AND DUP2 MSTORE PUSH1 0x20 ADD SWAP1 DUP2 MSTORE PUSH1 0x20 ADD PUSH0 KECCAK256 PUSH0 SWAP1 SLOAD SWAP1 PUSH2 0x100 EXP SWAP1 DIV PUSH1 0xFF AND ISZERO PUSH2 0xC2B JUMPI PUSH1 0x40 MLOAD PUSH32 0x8C379A000000000000000000000000000000000000000000000000000000000 DUP2 MSTORE PUSH1 0x4 ADD PUSH2 0xC22 SWAP1 PUSH2 0x18BF JUMP JUMPDEST PUSH1 0x40 MLOAD DUP1 SWAP2 SUB SWAP1 REVERT JUMPDEST DUP1 PUSH1 0x3 ADD PUSH0 SWAP1 SLOAD SWAP1 PUSH2 0x100 EXP SWAP1 DIV PUSH4 0xFFFFFFFF AND PUSH4 0xFFFFFFFF AND DUP2 PUSH1 0x3 ADD PUSH1 0x4 SWAP1 SLOAD SWAP1 PUSH2 0x100 EXP SWAP1 DIV PUSH4 0xFFFFFFFF AND PUSH4 0xFFFFFFFF AND LT PUSH2 0xCA0 JUMPI PUSH1 0x40 MLOAD PUSH32 0x8C379A000000000000000000000000000000000000000000000000000000000 DUP2 MSTORE PUSH1 0x4 ADD PUSH2 0xC97 SWAP1 PUSH2 0x1927 JUMP JUMPDEST PUSH1 0x40 MLOAD DUP1 SWAP2 SUB SWAP1 REVERT JUMPDEST PUSH1 0x1 DUP2 PUSH1 0x4 ADD PUSH0 CALLER PUSH20 0xFFFFFFFFFFFFFFFFFFFFFFFFFFFFFFFFFFFFFFFF AND PUSH20 0xFFFFFFFFFFFFFFFFFFFFFFFFFFFFFFFFFFFFFFFF AND DUP2 MSTORE PUSH1 0x20 ADD SWAP1 DUP2 MSTORE PUSH1 0x20 ADD PUSH0 KECCAK256 PUSH0 PUSH2 0x100 EXP DUP2 SLOAD DUP2 PUSH1 0xFF MUL NOT AND SWAP1 DUP4 ISZERO ISZERO MUL OR SWAP1 SSTORE POP PUSH1 0x1 DUP2 PUSH1 0x3 ADD PUSH1 0x4 DUP3 DUP3 DUP3 SWAP1 SLOAD SWAP1 PUSH2 0x100 EXP SWAP1 DIV PUSH4 0xFFFFFFFF AND PUSH2 0xD1B SWAP2 SWAP1 PUSH2 0x1945 JUMP JUMPDEST SWAP3 POP PUSH2 0x100 EXP DUP2 SLOAD DUP2 PUSH4 0xFFFFFFFF MUL NOT AND SWAP1 DUP4 PUSH4 0xFFFFFFFF AND MUL OR SWAP1 SSTORE POP PUSH0 CALLER PUSH20 0xFFFFFFFFFFFFFFFFFFFFFFFFFFFFFFFFFFFFFFFF AND DUP3 PUSH1 0x2 ADD SLOAD PUSH1 0x40 MLOAD PUSH2 0xD62 SWAP1 PUSH2 0x1343 JUMP JUMPDEST PUSH0 PUSH1 0x40 MLOAD DUP1 DUP4 SUB DUP2 DUP6 DUP8 GAS CALL SWAP3 POP POP POP RETURNDATASIZE DUP1 PUSH0 DUP2 EQ PUSH2 0xD9C JUMPI PUSH1 0x40 MLOAD SWAP2 POP PUSH1 0x1F NOT PUSH1 0x3F RETURNDATASIZE ADD AND DUP3 ADD PUSH1 0x40 MSTORE RETURNDATASIZE DUP3 MSTORE RETURNDATASIZE PUSH0 PUSH1 0x20 DUP5 ADD RETURNDATACOPY PUSH2 0xDA1 JUMP JUMPDEST PUSH1 0x60 SWAP2 POP JUMPDEST POP POP SWAP1 POP DUP1 PUSH2 0xDE5 JUMPI PUSH1 0x40 MLOAD PUSH32 0x8C379A000000000000000000000000000000000000000000000000000000000 DUP2 MSTORE PUSH1 0x4 ADD PUSH2 0xDDC SWAP1 PUSH2 0x19C6 JUMP JUMPDEST PUSH1 0x40 MLOAD DUP1 SWAP2 SUB SWAP1 REVERT JUMPDEST CALLER PUSH20 0xFFFFFFFFFFFFFFFFFFFFFFFFFFFFFFFFFFFFFFFF AND DUP4 PUSH32 0x508A8B4117D9A7B3D8F5895F6413E61B4F9A2DF35AFBFB41E78D0ECFFF1843F DUP5 PUSH1 0x2 ADD SLOAD PUSH1 0x40 MLOAD PUSH2 0xE30 SWAP2 SWAP1 PUSH2 0x13BF JUMP JUMPDEST PUSH1 0x40 MLOAD DUP1 SWAP2 SUB SWAP1 LOG3 POP POP POP JUMP JUMPDEST PUSH2 0x1F4 DUP2 JUMP JUMPDEST PUSH0 PUSH0 REVERT JUMPDEST PUSH0 DUP2 SWAP1 POP SWAP2 SWAP1 POP JUMP JUMPDEST PUSH2 0xE59 DUP2 PUSH2 0xE47 JUMP JUMPDEST DUP2 EQ PUSH2 0xE63 JUMPI PUSH0 PUSH0 REVERT JUMPDEST POP JUMP JUMPDEST PUSH0 DUP2 CALLDATALOAD SWAP1 POP PUSH2 0xE74 DUP2 PUSH2 0xE50 JUMP JUMPDEST SWAP3 SWAP2 POP POP JUMP JUMPDEST PUSH0 PUSH1 0x20 DUP3 DUP5 SUB SLT ISZERO PUSH2 0xE8F JUMPI PUSH2 0xE8E PUSH2 0xE43 JUMP JUMPDEST JUMPDEST PUSH0 PUSH2 0xE9C DUP5 DUP3 DUP6 ADD PUSH2 0xE66 JUMP JUMPDEST SWAP2 POP POP SWAP3 SWAP2 POP POP JUMP JUMPDEST PUSH0 PUSH20 0xFFFFFFFFFFFFFFFFFFFFFFFFFFFFFFFFFFFFFFFF DUP3 AND SWAP1 POP SWAP2 SWAP1 POP JUMP JUMPDEST PUSH0 PUSH2 0xECE DUP3 PUSH2 0xEA5 JUMP JUMPDEST SWAP1 POP SWAP2 SWAP1 POP JUMP JUMPDEST PUSH2 0xEDE DUP2 PUSH2 0xEC4 JUMP JUMPDEST DUP3 MSTORE POP POP JUMP JUMPDEST PUSH0 DUP2 SWAP1 POP SWAP2 SWAP1 POP JUMP JUMPDEST PUSH2 0xEF6 DUP2 PUSH2 0xEE4 JUMP JUMPDEST DUP3 MSTORE POP POP JUMP JUMPDEST PUSH0 PUSH4 0xFFFFFFFF DUP3 AND SWAP1 POP SWAP2 SWAP1 POP JUMP JUMPDEST PUSH2 0xF14 DUP2 PUSH2 0xEFC JUMP JUMPDEST DUP3 MSTORE POP POP JUMP JUMPDEST PUSH0 PUSH8 0xFFFFFFFFFFFFFFFF DUP3 AND SWAP1 POP SWAP2 SWAP1 POP JUMP JUMPDEST PUSH2 0xF36 DUP2 PUSH2 0xF1A JUMP JUMPDEST DUP3 MSTORE POP POP JUMP JUMPDEST PUSH0 DUP2 ISZERO ISZERO SWAP1 POP SWAP2 SWAP1 POP JUMP JUMPDEST PUSH2 0xF50 DUP2 PUSH2 0xF3C JUMP JUMPDEST DUP3 MSTORE POP POP JUMP JUMPDEST PUSH0 PUSH2 0x100 DUP3 ADD SWAP1 POP PUSH2 0xF6A PUSH0 DUP4 ADD DUP12 PUSH2 0xED5 JUMP JUMPDEST PUSH2 0xF77 PUSH1 0x20 DUP4 ADD DUP11 PUSH2 0xEED JUMP JUMPDEST PUSH2 0xF84 PUSH1 0x40 DUP4 ADD DUP10 PUSH2 0xEED JUMP JUMPDEST PUSH2 0xF91 PUSH1 0x60 DUP4 ADD DUP9 PUSH2 0xF0B JUMP JUMPDEST PUSH2 0xF9E PUSH1 0x80 DUP4 ADD DUP8 PUSH2 0xF0B JUMP JUMPDEST PUSH2 0xFAB PUSH1 0xA0 DUP4 ADD DUP7 PUSH2 0xF2D JUMP JUMPDEST PUSH2 0xFB8 PUSH1 0xC0 DUP4 ADD DUP6 PUSH2 0xF47 JUMP JUMPDEST PUSH2 0xFC5 PUSH1 0xE0 DUP4 ADD DUP5 PUSH2 0xF47 JUMP JUMPDEST SWAP10 SWAP9 POP POP POP POP POP POP POP POP POP JUMP JUMPDEST PUSH2 0xFDB DUP2 PUSH2 0xEFC JUMP JUMPDEST DUP2 EQ PUSH2 0xFE5 JUMPI PUSH0 PUSH0 REVERT JUMPDEST POP JUMP JUMPDEST PUSH0 DUP2 CALLDATALOAD SWAP1 POP PUSH2 0xFF6 DUP2 PUSH2 0xFD2 JUMP JUMPDEST SWAP3 SWAP2 POP POP JUMP JUMPDEST PUSH2 0x1005 DUP2 PUSH2 0xF1A JUMP JUMPDEST DUP2 EQ PUSH2 0x100F JUMPI PUSH0 PUSH0 REVERT JUMPDEST POP JUMP JUMPDEST PUSH0 DUP2 CALLDATALOAD SWAP1 POP PUSH2 0x1020 DUP2 PUSH2 0xFFC JUMP JUMPDEST SWAP3 SWAP2 POP POP JUMP JUMPDEST PUSH0 PUSH0 PUSH0 PUSH1 0x60 DUP5 DUP7 SUB SLT ISZERO PUSH2 0x103D JUMPI PUSH2 0x103C PUSH2 0xE43 JUMP JUMPDEST JUMPDEST PUSH0 PUSH2 0x104A DUP7 DUP3 DUP8 ADD PUSH2 0xE66 JUMP JUMPDEST SWAP4 POP POP PUSH1 0x20 PUSH2 0x105B DUP7 DUP3 DUP8 ADD PUSH2 0xFE8 JUMP JUMPDEST SWAP3 POP POP PUSH1 0x40 PUSH2 0x106C DUP7 DUP3 DUP8 ADD PUSH2 0x1012 JUMP JUMPDEST SWAP2 POP POP SWAP3 POP SWAP3 POP SWAP3 JUMP JUMPDEST PUSH0 PUSH1 0x20 DUP3 ADD SWAP1 POP PUSH2 0x1089 PUSH0 DUP4 ADD DUP5 PUSH2 0xF2D JUMP JUMPDEST SWAP3 SWAP2 POP POP JUMP JUMPDEST PUSH2 0x1098 DUP2 PUSH2 0xEC4 JUMP JUMPDEST DUP2 EQ PUSH2 0x10A2 JUMPI PUSH0 PUSH0 REVERT JUMPDEST POP JUMP JUMPDEST PUSH0 DUP2 CALLDATALOAD SWAP1 POP PUSH2 0x10B3 DUP2 PUSH2 0x108F JUMP JUMPDEST SWAP3 SWAP2 POP POP JUMP JUMPDEST PUSH0 PUSH0 PUSH1 0x40 DUP4 DUP6 SUB SLT ISZERO PUSH2 0x10CF JUMPI PUSH2 0x10CE PUSH2 0xE43 JUMP JUMPDEST JUMPDEST PUSH0 PUSH2 0x10DC DUP6 DUP3 DUP7 ADD PUSH2 0xE66 JUMP JUMPDEST SWAP3 POP POP PUSH1 0x20 PUSH2 0x10ED DUP6 DUP3 DUP7 ADD PUSH2 0x10A5 JUMP JUMPDEST SWAP2 POP POP SWAP3 POP SWAP3 SWAP1 POP JUMP JUMPDEST PUSH0 PUSH1 0x20 DUP3 ADD SWAP1 POP PUSH2 0x110A PUSH0 DUP4 ADD DUP5 PUSH2 0xF47 JUMP JUMPDEST SWAP3 SWAP2 POP POP JUMP JUMPDEST PUSH0 PUSH1 0x20 DUP3 ADD SWAP1 POP PUSH2 0x1123 PUSH0 DUP4 ADD DUP5 PUSH2 0xF0B JUMP JUMPDEST SWAP3 SWAP2 POP POP JUMP JUMPDEST PUSH0 DUP3 DUP3 MSTORE PUSH1 0x20 DUP3 ADD SWAP1 POP SWAP3 SWAP2 POP POP JUMP JUMPDEST PUSH32 0x6E6F742063726561746F72000000000000000000000000000000000000000000 PUSH0 DUP3 ADD MSTORE POP JUMP JUMPDEST PUSH0 PUSH2 0x116D PUSH1 0xB DUP4 PUSH2 0x1129 JUMP JUMPDEST SWAP2 POP PUSH2 0x1178 DUP3 PUSH2 0x1139 JUMP JUMPDEST PUSH1 0x20 DUP3 ADD SWAP1 POP SWAP2 SWAP1 POP JUMP JUMPDEST PUSH0 PUSH1 0x20 DUP3 ADD SWAP1 POP DUP2 DUP2 SUB PUSH0 DUP4 ADD MSTORE PUSH2 0x119A DUP2 PUSH2 0x1161 JUMP JUMPDEST SWAP1 POP SWAP2 SWAP1 POP JUMP JUMPDEST PUSH32 0x616C726561647900000000000000000000000000000000000000000000000000 PUSH0 DUP3 ADD MSTORE POP JUMP JUMPDEST PUSH0 PUSH2 0x11D5 PUSH1 0x7 DUP4 PUSH2 0x1129 JUMP JUMPDEST SWAP2 POP PUSH2 0x11E0 DUP3 PUSH2 0x11A1 JUMP JUMPDEST PUSH1 0x20 DUP3 ADD SWAP1 POP SWAP2 SWAP1 POP JUMP JUMPDEST PUSH0 PUSH1 0x20 DUP3 ADD SWAP1 POP DUP2 DUP2 SUB PUSH0 DUP4 ADD MSTORE PUSH2 0x1202 DUP2 PUSH2 0x11C9 JUMP JUMPDEST SWAP1 POP SWAP2 SWAP1 POP JUMP JUMPDEST PUSH32 0x6E6F7420656E6400000000000000000000000000000000000000000000000000 PUSH0 DUP3 ADD MSTORE POP JUMP JUMPDEST PUSH0 PUSH2 0x123D PUSH1 0x7 DUP4 PUSH2 0x1129 JUMP JUMPDEST SWAP2 POP PUSH2 0x1248 DUP3 PUSH2 0x1209 JUMP JUMPDEST PUSH1 0x20 DUP3 ADD SWAP1 POP SWAP2 SWAP1 POP JUMP JUMPDEST PUSH0 PUSH1 0x20 DUP3 ADD SWAP1 POP DUP2 DUP2 SUB PUSH0 DUP4 ADD MSTORE PUSH2 0x126A DUP2 PUSH2 0x1231 JUMP JUMPDEST SWAP1 POP SWAP2 SWAP1 POP JUMP JUMPDEST PUSH32 0x4E487B7100000000000000000000000000000000000000000000000000000000 PUSH0 MSTORE PUSH1 0x11 PUSH1 0x4 MSTORE PUSH1 0x24 PUSH0 REVERT JUMPDEST PUSH0 PUSH2 0x12A8 DUP3 PUSH2 0xEFC JUMP JUMPDEST SWAP2 POP PUSH2 0x12B3 DUP4 PUSH2 0xEFC JUMP JUMPDEST SWAP3 POP DUP3 DUP3 SUB SWAP1 POP PUSH4 0xFFFFFFFF DUP2 GT ISZERO PUSH2 0x12CF JUMPI PUSH2 0x12CE PUSH2 0x1271 JUMP JUMPDEST JUMPDEST SWAP3 SWAP2 POP POP JUMP JUMPDEST PUSH0 PUSH2 0x12DF DUP3 PUSH2 0xEE4 JUMP JUMPDEST SWAP2 POP PUSH2 0x12EA DUP4 PUSH2 0xEE4 JUMP JUMPDEST SWAP3 POP DUP3 DUP3 MUL PUSH2 0x12F8 DUP2 PUSH2 0xEE4 JUMP JUMPDEST SWAP2 POP DUP3 DUP3 DIV DUP5 EQ DUP4 ISZERO OR PUSH2 0x130F JUMPI PUSH2 0x130E PUSH2 0x1271 JUMP JUMPDEST JUMPDEST POP SWAP3 SWAP2 POP POP JUMP JUMPDEST PUSH0 DUP2 SWAP1 POP SWAP3 SWAP2 POP POP JUMP JUMPDEST POP JUMP JUMPDEST PUSH0 PUSH2 0x132E PUSH0 DUP4 PUSH2 0x1316 JUMP JUMPDEST SWAP2 POP PUSH2 0x1339 DUP3 PUSH2 0x1320 JUMP JUMPDEST PUSH0 DUP3 ADD SWAP1 POP SWAP2 SWAP1 POP JUMP JUMPDEST PUSH0 PUSH2 0x134D DUP3 PUSH2 0x1323 JUMP JUMPDEST SWAP2 POP DUP2 SWAP1 POP SWAP2 SWAP1 POP JUMP JUMPDEST PUSH32 0x726566756E64207472616E73666572206661696C656400000000000000000000 PUSH0 DUP3 ADD MSTORE POP JUMP JUMPDEST PUSH0 PUSH2 0x138B PUSH1 0x16 DUP4 PUSH2 0x1129 JUMP JUMPDEST SWAP2 POP PUSH2 0x1396 DUP3 PUSH2 0x1357 JUMP JUMPDEST PUSH1 0x20 DUP3 ADD SWAP1 POP SWAP2 SWAP1 POP JUMP JUMPDEST PUSH0 PUSH1 0x20 DUP3 ADD SWAP1 POP DUP2 DUP2 SUB PUSH0 DUP4 ADD MSTORE PUSH2 0x13B8 DUP2 PUSH2 0x137F JUMP JUMPDEST SWAP1 POP SWAP2 SWAP1 POP JUMP JUMPDEST PUSH0 PUSH1 0x20 DUP3 ADD SWAP1 POP PUSH2 0x13D2 PUSH0 DUP4 ADD DUP5 PUSH2 0xEED JUMP JUMPDEST SWAP3 SWAP2 POP POP JUMP JUMPDEST PUSH32 0x7061636B657449643D3000000000000000000000000000000000000000000000 PUSH0 DUP3 ADD MSTORE POP JUMP JUMPDEST PUSH0 PUSH2 0x140C PUSH1 0xA DUP4 PUSH2 0x1129 JUMP JUMPDEST SWAP2 POP PUSH2 0x1417 DUP3 PUSH2 0x13D8 JUMP JUMPDEST PUSH1 0x20 DUP3 ADD SWAP1 POP SWAP2 SWAP1 POP JUMP JUMPDEST PUSH0 PUSH1 0x20 DUP3 ADD SWAP1 POP DUP2 DUP2 SUB PUSH0 DUP4 ADD MSTORE PUSH2 0x1439 DUP2 PUSH2 0x1400 JUMP JUMPDEST SWAP1 POP SWAP2 SWAP1 POP JUMP JUMPDEST PUSH32 0x696E76616C696420636F756E7400000000000000000000000000000000000000 PUSH0 DUP3 ADD MSTORE POP JUMP JUMPDEST PUSH0 PUSH2 0x1474 PUSH1 0xD DUP4 PUSH2 0x1129 JUMP JUMPDEST SWAP2 POP PUSH2 0x147F DUP3 PUSH2 0x1440 JUMP JUMPDEST PUSH1 0x20 DUP3 ADD SWAP1 POP SWAP2 SWAP1 POP JUMP JUMPDEST PUSH0 PUSH1 0x20 DUP3 ADD SWAP1 POP DUP2 DUP2 SUB PUSH0 DUP4 ADD MSTORE PUSH2 0x14A1 DUP2 PUSH2 0x1468 JUMP JUMPDEST SWAP1 POP SWAP2 SWAP1 POP JUMP JUMPDEST PUSH32 0x76616C75653D3000000000000000000000000000000000000000000000000000 PUSH0 DUP3 ADD MSTORE POP JUMP JUMPDEST PUSH0 PUSH2 0x14DC PUSH1 0x7 DUP4 PUSH2 0x1129 JUMP JUMPDEST SWAP2 POP PUSH2 0x14E7 DUP3 PUSH2 0x14A8 JUMP JUMPDEST PUSH1 0x20 DUP3 ADD SWAP1 POP SWAP2 SWAP1 POP JUMP JUMPDEST PUSH0 PUSH1 0x20 DUP3 ADD SWAP1 POP DUP2 DUP2 SUB PUSH0 DUP4 ADD MSTORE PUSH2 0x1509 DUP2 PUSH2 0x14D0 JUMP JUMPDEST SWAP1 POP SWAP2 SWAP1 POP JUMP JUMPDEST PUSH32 0x6578706972656400000000000000000000000000000000000000000000000000 PUSH0 DUP3 ADD MSTORE POP JUMP JUMPDEST PUSH0 PUSH2 0x1544 PUSH1 0x7 DUP4 PUSH2 0x1129 JUMP JUMPDEST SWAP2 POP PUSH2 0x154F DUP3 PUSH2 0x1510 JUMP JUMPDEST PUSH1 0x20 DUP3 ADD SWAP1 POP SWAP2 SWAP1 POP JUMP JUMPDEST PUSH0 PUSH1 0x20 DUP3 ADD SWAP1 POP DUP2 DUP2 SUB PUSH0 DUP4 ADD MSTORE PUSH2 0x1571 DUP2 PUSH2 0x1538 JUMP JUMPDEST SWAP1 POP SWAP2 SWAP1 POP JUMP JUMPDEST PUSH0 PUSH2 0x1582 DUP3 PUSH2 0xEE4 JUMP JUMPDEST SWAP2 POP PUSH2 0x158D DUP4 PUSH2 0xEE4 JUMP JUMPDEST SWAP3 POP DUP3 DUP3 ADD SWAP1 POP DUP1 DUP3 GT ISZERO PUSH2 0x15A5 JUMPI PUSH2 0x15A4 PUSH2 0x1271 JUMP JUMPDEST JUMPDEST SWAP3 SWAP2 POP POP JUMP JUMPDEST PUSH32 0x6578706972657320746F6F206661720000000000000000000000000000000000 PUSH0 DUP3 ADD MSTORE POP JUMP JUMPDEST PUSH0 PUSH2 0x15DF PUSH1 0xF DUP4 PUSH2 0x1129 JUMP JUMPDEST SWAP2 POP PUSH2 0x15EA DUP3 PUSH2 0x15AB JUMP JUMPDEST PUSH1 0x20 DUP3 ADD SWAP1 POP SWAP2 SWAP1 POP JUMP JUMPDEST PUSH0 PUSH1 0x20 DUP3 ADD SWAP1 POP DUP2 DUP2 SUB PUSH0 DUP4 ADD MSTORE PUSH2 0x160C DUP2 PUSH2 0x15D3 JUMP JUMPDEST SWAP1 POP SWAP2 SWAP1 POP JUMP JUMPDEST PUSH32 0x6578697374730000000000000000000000000000000000000000000000000000 PUSH0 DUP3 ADD MSTORE POP JUMP JUMPDEST PUSH0 PUSH2 0x1647 PUSH1 0x6 DUP4 PUSH2 0x1129 JUMP JUMPDEST SWAP2 POP PUSH2 0x1652 DUP3 PUSH2 0x1613 JUMP JUMPDEST PUSH1 0x20 DUP3 ADD SWAP1 POP SWAP2 SWAP1 POP JUMP JUMPDEST PUSH0 PUSH1 0x20 DUP3 ADD SWAP1 POP DUP2 DUP2 SUB PUSH0 DUP4 ADD MSTORE PUSH2 0x1674 DUP2 PUSH2 0x163B JUMP JUMPDEST SWAP1 POP SWAP2 SWAP1 POP JUMP JUMPDEST PUSH32 0x4E487B7100000000000000000000000000000000000000000000000000000000 PUSH0 MSTORE PUSH1 0x12 PUSH1 0x4 MSTORE PUSH1 0x24 PUSH0 REVERT JUMPDEST PUSH0 PUSH2 0x16B2 DUP3 PUSH2 0xEE4 JUMP JUMPDEST SWAP2 POP PUSH2 0x16BD DUP4 PUSH2 0xEE4 JUMP JUMPDEST SWAP3 POP DUP3 PUSH2 0x16CD JUMPI PUSH2 0x16CC PUSH2 0x167B JUMP JUMPDEST JUMPDEST DUP3 DUP3 MOD SWAP1 POP SWAP3 SWAP2 POP POP JUMP JUMPDEST PUSH32 0x6E6F7420646976697369626C6500000000000000000000000000000000000000 PUSH0 DUP3 ADD MSTORE POP JUMP JUMPDEST PUSH0 PUSH2 0x170C PUSH1 0xD DUP4 PUSH2 0x1129 JUMP JUMPDEST SWAP2 POP PUSH2 0x1717 DUP3 PUSH2 0x16D8 JUMP JUMPDEST PUSH1 0x20 DUP3 ADD SWAP1 POP SWAP2 SWAP1 POP JUMP JUMPDEST PUSH0 PUSH1 0x20 DUP3 ADD SWAP1 POP DUP2 DUP2 SUB PUSH0 DUP4 ADD MSTORE PUSH2 0x1739 DUP2 PUSH2 0x1700 JUMP JUMPDEST SWAP1 POP SWAP2 SWAP1 POP JUMP JUMPDEST PUSH0 PUSH2 0x174A DUP3 PUSH2 0xEE4 JUMP JUMPDEST SWAP2 POP PUSH2 0x1755 DUP4 PUSH2 0xEE4 JUMP JUMPDEST SWAP3 POP DUP3 PUSH2 0x1765 JUMPI PUSH2 0x1764 PUSH2 0x167B JUMP JUMPDEST JUMPDEST DUP3 DUP3 DIV SWAP1 POP SWAP3 SWAP2 POP POP JUMP JUMPDEST PUSH0 PUSH1 0x60 DUP3 ADD SWAP1 POP PUSH2 0x1783 PUSH0 DUP4 ADD DUP7 PUSH2 0xEED JUMP JUMPDEST PUSH2 0x1790 PUSH1 0x20 DUP4 ADD DUP6 PUSH2 0xF0B JUMP JUMPDEST PUSH2 0x179D PUSH1 0x40 DUP4 ADD DUP5 PUSH2 0xF2D JUMP JUMPDEST SWAP5 SWAP4 POP POP POP POP JUMP JUMPDEST PUSH32 0x6E6F7420666F756E640000000000000000000000000000000000000000000000 PUSH0 DUP3 ADD MSTORE POP JUMP JUMPDEST PUSH0 PUSH2 0x17D9 PUSH1 0x9 DUP4 PUSH2 0x1129 JUMP JUMPDEST SWAP2 POP PUSH2 0x17E4 DUP3 PUSH2 0x17A5 JUMP JUMPDEST PUSH1 0x20 DUP3 ADD SWAP1 POP SWAP2 SWAP1 POP JUMP JUMPDEST PUSH0 PUSH1 0x20 DUP3 ADD SWAP1 POP DUP2 DUP2 SUB PUSH0 DUP4 ADD MSTORE PUSH2 0x1806 DUP2 PUSH2 0x17CD JUMP JUMPDEST SWAP1 POP SWAP2 SWAP1 POP JUMP JUMPDEST PUSH32 0x726566756E646564000000000000000000000000000000000000000000000000 PUSH0 DUP3 ADD MSTORE POP JUMP JUMPDEST PUSH0 PUSH2 0x1841 PUSH1 0x8 DUP4 PUSH2 0x1129 JUMP JUMPDEST SWAP2 POP PUSH2 0x184C DUP3 PUSH2 0x180D JUMP JUMPDEST PUSH1 0x20 DUP3 ADD SWAP1 POP SWAP2 SWAP1 POP JUMP JUMPDEST PUSH0 PUSH1 0x20 DUP3 ADD SWAP1 POP DUP2 DUP2 SUB PUSH0 DUP4 ADD MSTORE PUSH2 0x186E DUP2 PUSH2 0x1835 JUMP JUMPDEST SWAP1 POP SWAP2 SWAP1 POP JUMP JUMPDEST PUSH32 0x636C61696D656400000000000000000000000000000000000000000000000000 PUSH0 DUP3 ADD MSTORE POP JUMP JUMPDEST PUSH0 PUSH2 0x18A9 PUSH1 0x7 DUP4 PUSH2 0x1129 JUMP JUMPDEST SWAP2 POP PUSH2 0x18B4 DUP3 PUSH2 0x1875 JUMP JUMPDEST PUSH1 0x20 DUP3 ADD SWAP1 POP SWAP2 SWAP1 POP JUMP JUMPDEST PUSH0 PUSH1 0x20 DUP3 ADD SWAP1 POP DUP2 DUP2 SUB PUSH0 DUP4 ADD MSTORE PUSH2 0x18D6 DUP2 PUSH2 0x189D JUMP JUMPDEST SWAP1 POP SWAP2 SWAP1 POP JUMP JUMPDEST PUSH32 0x656D707479000000000000000000000000000000000000000000000000000000 PUSH0 DUP3 ADD MSTORE POP JUMP JUMPDEST PUSH0 PUSH2 0x1911 PUSH1 0x5 DUP4 PUSH2 0x1129 JUMP JUMPDEST SWAP2 POP PUSH2 0x191C DUP3 PUSH2 0x18DD JUMP JUMPDEST PUSH1 0x20 DUP3 ADD SWAP1 POP SWAP2 SWAP1 POP JUMP JUMPDEST PUSH0 PUSH1 0x20 DUP3 ADD SWAP1 POP DUP2 DUP2 SUB PUSH0 DUP4 ADD MSTORE PUSH2 0x193E DUP2 PUSH2 0x1905 JUMP JUMPDEST SWAP1 POP SWAP2 SWAP1 POP JUMP JUMPDEST PUSH0 PUSH2 0x194F DUP3 PUSH2 0xEFC JUMP JUMPDEST SWAP2 POP PUSH2 0x195A DUP4 PUSH2 0xEFC JUMP JUMPDEST SWAP3 POP DUP3 DUP3 ADD SWAP1 POP PUSH4 0xFFFFFFFF DUP2 GT ISZERO PUSH2 0x1976 JUMPI PUSH2 0x1975 PUSH2 0x1271 JUMP JUMPDEST JUMPDEST SWAP3 SWAP2 POP POP JUMP JUMPDEST PUSH32 0x636C61696D207472616E73666572206661696C65640000000000000000000000 PUSH0 DUP3 ADD MSTORE POP JUMP JUMPDEST PUSH0 PUSH2 0x19B0 PUSH1 0x15 DUP4 PUSH2 0x1129 JUMP JUMPDEST SWAP2 POP PUSH2 0x19BB DUP3 PUSH2 0x197C JUMP JUMPDEST PUSH1 0x20 DUP3 ADD SWAP1 POP SWAP2 SWAP1 POP JUMP JUMPDEST PUSH0 PUSH1 0x20 DUP3 ADD SWAP1 POP DUP2 DUP2 SUB PUSH0 DUP4 ADD MSTORE PUSH2 0x19DD DUP2 PUSH2 0x19A4 JUMP JUMPDEST SWAP1 POP SWAP2 SWAP1 POP JUMP INVALID LOG2 PUSH5 0x6970667358 0x22 SLT KECCAK256 DUP12 0xD2 CODESIZE 0xB6 0xAC 0xBA 0xC2 PUSH21 0xFD66B9FC43CE9351FA629F19BB40819B30D6F6FC1 PUSH4 0xE3766473 PUSH16 0x6C634300081E00330000000000000000 "
				},
				"gasEstimates": {
					"creation": {
						"codeDepositCost": "1336400",
						"executionCost": "1388",
						"totalCost": "1337788"
					},
					"external": {
						"MAX_EXPIRES_IN()": "331",
						"MAX_PACKET_COUNT()": "397",
						"claim(bytes32)": "infinite",
						"createPacket(bytes32,uint32,uint64)": "infinite",
						"getPacket(bytes32)": "infinite",
						"hasClaimed(bytes32,address)": "3143",
						"refund(bytes32)": "infinite"
					}
				},
				"methodIdentifiers": {
					"MAX_EXPIRES_IN()": "90924027",
					"MAX_PACKET_COUNT()": "df567dd7",
					"claim(bytes32)": "bd66528a",
					"createPacket(bytes32,uint32,uint64)": "7bd76aa2",
					"getPacket(bytes32)": "0b524856",
					"hasClaimed(bytes32,address)": "92a42d1d",
					"refund(bytes32)": "7249fbb6"
				}
			},
			"storageLayout": {
				"storage": [
					{
						"astId": 31,
						"contract": "contracts/TelegramRedPacket.sol:TelegramRedPacket",
						"label": "packets",
						"offset": 0,
						"slot": "0",
						"type": "t_mapping(t_bytes32,t_struct(Packet)26_storage)"
					}
				],
				"types": {
					"t_address": {
						"encoding": "inplace",
						"label": "address",
						"numberOfBytes": "20"
					},
					"t_bool": {
						"encoding": "inplace",
						"label": "bool",
						"numberOfBytes": "1"
					},
					"t_bytes32": {
						"encoding": "inplace",
						"label": "bytes32",
						"numberOfBytes": "32"
					},
					"t_mapping(t_address,t_bool)": {
						"encoding": "mapping",
						"key": "t_address",
						"label": "mapping(address => bool)",
						"numberOfBytes": "32",
						"value": "t_bool"
					},
					"t_mapping(t_bytes32,t_struct(Packet)26_storage)": {
						"encoding": "mapping",
						"key": "t_bytes32",
						"label": "mapping(bytes32 => struct TelegramRedPacket.Packet)",
						"numberOfBytes": "32",
						"value": "t_struct(Packet)26_storage"
					},
					"t_struct(Packet)26_storage": {
						"encoding": "inplace",
						"label": "struct TelegramRedPacket.Packet",
						"members": [
							{
								"astId": 9,
								"contract": "contracts/TelegramRedPacket.sol:TelegramRedPacket",
								"label": "creator",
								"offset": 0,
								"slot": "0",
								"type": "t_address"
							},
							{
								"astId": 11,
								"contract": "contracts/TelegramRedPacket.sol:TelegramRedPacket",
								"label": "total",
								"offset": 0,
								"slot": "1",
								"type": "t_uint256"
							},
							{
								"astId": 13,
								"contract": "contracts/TelegramRedPacket.sol:TelegramRedPacket",
								"label": "amountPerClaim",
								"offset": 0,
								"slot": "2",
								"type": "t_uint256"
							},
							{
								"astId": 15,
								"contract": "contracts/TelegramRedPacket.sol:TelegramRedPacket",
								"label": "totalCount",
								"offset": 0,
								"slot": "3",
								"type": "t_uint32"
							},
							{
								"astId": 17,
								"contract": "contracts/TelegramRedPacket.sol:TelegramRedPacket",
								"label": "claimedCount",
								"offset": 4,
								"slot": "3",
								"type": "t_uint32"
							},
							{
								"astId": 19,
								"contract": "contracts/TelegramRedPacket.sol:TelegramRedPacket",
								"label": "expiresAt",
								"offset": 8,
								"slot": "3",
								"type": "t_uint64"
							},
							{
								"astId": 21,
								"contract": "contracts/TelegramRedPacket.sol:TelegramRedPacket",
								"label": "refunded",
								"offset": 16,
								"slot": "3",
								"type": "t_bool"
							},
							{
								"astId": 25,
								"contract": "contracts/TelegramRedPacket.sol:TelegramRedPacket",
								"label": "claimed",
								"offset": 0,
								"slot": "4",
								"type": "t_mapping(t_address,t_bool)"
							}
						],
						"numberOfBytes": "160"
					},
					"t_uint256": {
						"encoding": "inplace",
						"label": "uint256",
						"numberOfBytes": "32"
					},
					"t_uint32": {
						"encoding": "inplace",
						"label": "uint32",
						"numberOfBytes": "4"
					},
					"t_uint64": {
						"encoding": "inplace",
						"label": "uint64",
						"numberOfBytes": "8"
					}
				}
			},
			"userdoc": {
				"kind": "user",
				"methods": {},
				"version": 1
			}
		}
	}
}